{
	"contracts/Errors.sol": {
		"Errors": {
			"abi": [
				{
					"inputs": [
						{
							"internalType": "uint256",
							"name": "x",
							"type": "uint256"
						},
						{
							"internalType": "uint256",
							"name": "y",
							"type": "uint256"
						}
					],
					"name": "add",
					"outputs": [
						{
							"internalType": "uint256",
							"name": "",
							"type": "uint256"
						}
					],
					"stateMutability": "pure",
					"type": "function"
				},
				{
					"inputs": [
						{
							"internalType": "uint256",
							"name": "x",
							"type": "uint256"
						},
						{
							"internalType": "uint256",
							"name": "y",
							"type": "uint256"
						}
					],
					"name": "divide",
					"outputs": [
						{
							"internalType": "uint256",
							"name": "",
							"type": "uint256"
						}
					],
					"stateMutability": "pure",
					"type": "function"
				},
				{
					"inputs": [],
					"name": "get",
					"outputs": [
						{
							"internalType": "uint256",
							"name": "",
							"type": "uint256"
						}
					],
					"stateMutability": "view",
					"type": "function"
				},
				{
					"inputs": [
						{
							"internalType": "uint256",
							"name": "x",
							"type": "uint256"
						}
					],
					"name": "set",
					"outputs": [],
					"stateMutability": "nonpayable",
					"type": "function"
				}
			],
			"devdoc": {
				"kind": "dev",
				"methods": {},
				"version": 1
			},
			"evm": {
				"assembly": "    /* \"contracts/Errors.sol\":60:772  contract Errors {... */\n  mstore(0x40, 0x80)\n  callvalue\n  dup1\n  iszero\n  tag_1\n  jumpi\n  0x00\n  dup1\n  revert\ntag_1:\n  pop\n  dataSize(sub_0)\n  dup1\n  dataOffset(sub_0)\n  0x00\n  codecopy\n  0x00\n  return\nstop\n\nsub_0: assembly {\n        /* \"contracts/Errors.sol\":60:772  contract Errors {... */\n      mstore(0x40, 0x80)\n      callvalue\n      dup1\n      iszero\n      tag_1\n      jumpi\n      0x00\n      dup1\n      revert\n    tag_1:\n      pop\n      jumpi(tag_2, lt(calldatasize, 0x04))\n      shr(0xe0, calldataload(0x00))\n      dup1\n      0x60fe47b1\n      eq\n      tag_3\n      jumpi\n      dup1\n      0x6d4ce63c\n      eq\n      tag_4\n      jumpi\n      dup1\n      0x771602f7\n      eq\n      tag_5\n      jumpi\n      dup1\n      0xf88e9fbf\n      eq\n      tag_6\n      jumpi\n    tag_2:\n      0x00\n      dup1\n      revert\n        /* \"contracts/Errors.sol\":107:251  function set(uint x) public {... */\n    tag_3:\n      tag_7\n      0x04\n      dup1\n      calldatasize\n      sub\n      dup2\n      add\n      swap1\n      tag_8\n      swap2\n      swap1\n      tag_9\n      jump\t// in\n    tag_8:\n      tag_10\n      jump\t// in\n    tag_7:\n      stop\n        /* \"contracts/Errors.sol\":259:337  function get() public view returns (uint) {... */\n    tag_4:\n      tag_11\n      tag_12\n      jump\t// in\n    tag_11:\n      mload(0x40)\n      tag_13\n      swap2\n      swap1\n      tag_14\n      jump\t// in\n    tag_13:\n      mload(0x40)\n      dup1\n      swap2\n      sub\n      swap1\n      return\n        /* \"contracts/Errors.sol\":345:595  function add(uint x , uint y) public pure returns (uint) {... */\n    tag_5:\n      tag_15\n      0x04\n      dup1\n      calldatasize\n      sub\n      dup2\n      add\n      swap1\n      tag_16\n      swap2\n      swap1\n      tag_17\n      jump\t// in\n    tag_16:\n      tag_18\n      jump\t// in\n    tag_15:\n      mload(0x40)\n      tag_19\n      swap2\n      swap1\n      tag_14\n      jump\t// in\n    tag_19:\n      mload(0x40)\n      dup1\n      swap2\n      sub\n      swap1\n      return\n        /* \"contracts/Errors.sol\":603:769  function divide(uint x , uint y) public pure returns (uint) {... */\n    tag_6:\n      tag_20\n      0x04\n      dup1\n      calldatasize\n      sub\n      dup2\n      add\n      swap1\n      tag_21\n      swap2\n      swap1\n      tag_17\n      jump\t// in\n    tag_21:\n      tag_22\n      jump\t// in\n    tag_20:\n      mload(0x40)\n      tag_23\n      swap2\n      swap1\n      tag_14\n      jump\t// in\n    tag_23:\n      mload(0x40)\n      dup1\n      swap2\n      sub\n      swap1\n      return\n        /* \"contracts/Errors.sol\":107:251  function set(uint x) public {... */\n    tag_10:\n        /* \"contracts/Errors.sol\":159:160  0 */\n      0x00\n        /* \"contracts/Errors.sol\":154:155  x */\n      dup2\n        /* \"contracts/Errors.sol\":154:160  x != 0 */\n      sub\n        /* \"contracts/Errors.sol\":146:182  require(x != 0 , \"x cannot be zero\") */\n      tag_25\n      jumpi\n      mload(0x40)\n      0x08c379a000000000000000000000000000000000000000000000000000000000\n      dup2\n      mstore\n      0x04\n      add\n      tag_26\n      swap1\n      tag_27\n      jump\t// in\n    tag_26:\n      mload(0x40)\n      dup1\n      swap2\n      sub\n      swap1\n      revert\n    tag_25:\n        /* \"contracts/Errors.sol\":242:243  x */\n      dup1\n        /* \"contracts/Errors.sol\":229:239  storedData */\n      0x00\n        /* \"contracts/Errors.sol\":229:243  storedData = x */\n      dup2\n      swap1\n      sstore\n      pop\n        /* \"contracts/Errors.sol\":107:251  function set(uint x) public {... */\n      pop\n      jump\t// out\n        /* \"contracts/Errors.sol\":259:337  function get() public view returns (uint) {... */\n    tag_12:\n        /* \"contracts/Errors.sol\":295:299  uint */\n      0x00\n        /* \"contracts/Errors.sol\":319:329  storedData */\n      dup1\n      sload\n        /* \"contracts/Errors.sol\":312:329  return storedData */\n      swap1\n      pop\n        /* \"contracts/Errors.sol\":259:337  function get() public view returns (uint) {... */\n      swap1\n      jump\t// out\n        /* \"contracts/Errors.sol\":345:595  function add(uint x , uint y) public pure returns (uint) {... */\n    tag_18:\n        /* \"contracts/Errors.sol\":396:400  uint */\n      0x00\n        /* \"contracts/Errors.sol\":413:424  uint result */\n      dup1\n        /* \"contracts/Errors.sol\":431:432  y */\n      dup3\n        /* \"contracts/Errors.sol\":427:428  x */\n      dup5\n        /* \"contracts/Errors.sol\":427:432  x + y */\n      tag_30\n      swap2\n      swap1\n      tag_31\n      jump\t// in\n    tag_30:\n        /* \"contracts/Errors.sol\":413:432  uint result = x + y */\n      swap1\n      pop\n        /* \"contracts/Errors.sol\":455:456  x */\n      dup4\n        /* \"contracts/Errors.sol\":446:452  result */\n      dup2\n        /* \"contracts/Errors.sol\":446:456  result < x */\n      lt\n        /* \"contracts/Errors.sol\":446:470  result < x || result < y */\n      dup1\n      tag_32\n      jumpi\n      pop\n        /* \"contracts/Errors.sol\":469:470  y */\n      dup3\n        /* \"contracts/Errors.sol\":460:466  result */\n      dup2\n        /* \"contracts/Errors.sol\":460:470  result < y */\n      lt\n        /* \"contracts/Errors.sol\":446:470  result < x || result < y */\n    tag_32:\n        /* \"contracts/Errors.sol\":443:564  if(result < x || result < y){... */\n      iszero\n      tag_33\n      jumpi\n        /* \"contracts/Errors.sol\":486:513  revert(\"result overflowed\") */\n      mload(0x40)\n      0x08c379a000000000000000000000000000000000000000000000000000000000\n      dup2\n      mstore\n      0x04\n      add\n      tag_34\n      swap1\n      tag_35\n      jump\t// in\n    tag_34:\n      mload(0x40)\n      dup1\n      swap2\n      sub\n      swap1\n      revert\n        /* \"contracts/Errors.sol\":443:564  if(result < x || result < y){... */\n    tag_33:\n        /* \"contracts/Errors.sol\":581:587  result */\n      dup1\n        /* \"contracts/Errors.sol\":574:587  return result */\n      swap2\n      pop\n      pop\n        /* \"contracts/Errors.sol\":345:595  function add(uint x , uint y) public pure returns (uint) {... */\n      swap3\n      swap2\n      pop\n      pop\n      jump\t// out\n        /* \"contracts/Errors.sol\":603:769  function divide(uint x , uint y) public pure returns (uint) {... */\n    tag_22:\n        /* \"contracts/Errors.sol\":657:661  uint */\n      0x00\n        /* \"contracts/Errors.sol\":686:687  0 */\n      dup1\n        /* \"contracts/Errors.sol\":681:682  y */\n      dup3\n        /* \"contracts/Errors.sol\":681:687  y != 0 */\n      sub\n        /* \"contracts/Errors.sol\":674:688  assert(y != 0) */\n      tag_37\n      jumpi\n      tag_38\n      tag_39\n      jump\t// in\n    tag_38:\n    tag_37:\n        /* \"contracts/Errors.sol\":760:761  y */\n      dup2\n        /* \"contracts/Errors.sol\":756:757  x */\n      dup4\n        /* \"contracts/Errors.sol\":756:761  x / y */\n      tag_40\n      swap2\n      swap1\n      tag_41\n      jump\t// in\n    tag_40:\n        /* \"contracts/Errors.sol\":749:761  return x / y */\n      swap1\n      pop\n        /* \"contracts/Errors.sol\":603:769  function divide(uint x , uint y) public pure returns (uint) {... */\n      swap3\n      swap2\n      pop\n      pop\n      jump\t// out\n        /* \"#utility.yul\":88:205   */\n    tag_43:\n        /* \"#utility.yul\":197:198   */\n      0x00\n        /* \"#utility.yul\":194:195   */\n      dup1\n        /* \"#utility.yul\":187:199   */\n      revert\n        /* \"#utility.yul\":334:411   */\n    tag_45:\n        /* \"#utility.yul\":371:378   */\n      0x00\n        /* \"#utility.yul\":400:405   */\n      dup2\n        /* \"#utility.yul\":389:405   */\n      swap1\n      pop\n        /* \"#utility.yul\":334:411   */\n      swap2\n      swap1\n      pop\n      jump\t// out\n        /* \"#utility.yul\":417:539   */\n    tag_46:\n        /* \"#utility.yul\":490:514   */\n      tag_62\n        /* \"#utility.yul\":508:513   */\n      dup2\n        /* \"#utility.yul\":490:514   */\n      tag_45\n      jump\t// in\n    tag_62:\n        /* \"#utility.yul\":483:488   */\n      dup2\n        /* \"#utility.yul\":480:515   */\n      eq\n        /* \"#utility.yul\":470:533   */\n      tag_63\n      jumpi\n        /* \"#utility.yul\":529:530   */\n      0x00\n        /* \"#utility.yul\":526:527   */\n      dup1\n        /* \"#utility.yul\":519:531   */\n      revert\n        /* \"#utility.yul\":470:533   */\n    tag_63:\n        /* \"#utility.yul\":417:539   */\n      pop\n      jump\t// out\n        /* \"#utility.yul\":545:684   */\n    tag_47:\n        /* \"#utility.yul\":591:596   */\n      0x00\n        /* \"#utility.yul\":629:635   */\n      dup2\n        /* \"#utility.yul\":616:636   */\n      calldataload\n        /* \"#utility.yul\":607:636   */\n      swap1\n      pop\n        /* \"#utility.yul\":645:678   */\n      tag_65\n        /* \"#utility.yul\":672:677   */\n      dup2\n        /* \"#utility.yul\":645:678   */\n      tag_46\n      jump\t// in\n    tag_65:\n        /* \"#utility.yul\":545:684   */\n      swap3\n      swap2\n      pop\n      pop\n      jump\t// out\n        /* \"#utility.yul\":690:1019   */\n    tag_9:\n        /* \"#utility.yul\":749:755   */\n      0x00\n        /* \"#utility.yul\":798:800   */\n      0x20\n        /* \"#utility.yul\":786:795   */\n      dup3\n        /* \"#utility.yul\":777:784   */\n      dup5\n        /* \"#utility.yul\":773:796   */\n      sub\n        /* \"#utility.yul\":769:801   */\n      slt\n        /* \"#utility.yul\":766:885   */\n      iszero\n      tag_67\n      jumpi\n        /* \"#utility.yul\":804:883   */\n      tag_68\n      tag_43\n      jump\t// in\n    tag_68:\n        /* \"#utility.yul\":766:885   */\n    tag_67:\n        /* \"#utility.yul\":924:925   */\n      0x00\n        /* \"#utility.yul\":949:1002   */\n      tag_69\n        /* \"#utility.yul\":994:1001   */\n      dup5\n        /* \"#utility.yul\":985:991   */\n      dup3\n        /* \"#utility.yul\":974:983   */\n      dup6\n        /* \"#utility.yul\":970:992   */\n      add\n        /* \"#utility.yul\":949:1002   */\n      tag_47\n      jump\t// in\n    tag_69:\n        /* \"#utility.yul\":939:1002   */\n      swap2\n      pop\n        /* \"#utility.yul\":895:1012   */\n      pop\n        /* \"#utility.yul\":690:1019   */\n      swap3\n      swap2\n      pop\n      pop\n      jump\t// out\n        /* \"#utility.yul\":1025:1143   */\n    tag_48:\n        /* \"#utility.yul\":1112:1136   */\n      tag_71\n        /* \"#utility.yul\":1130:1135   */\n      dup2\n        /* \"#utility.yul\":1112:1136   */\n      tag_45\n      jump\t// in\n    tag_71:\n        /* \"#utility.yul\":1107:1110   */\n      dup3\n        /* \"#utility.yul\":1100:1137   */\n      mstore\n        /* \"#utility.yul\":1025:1143   */\n      pop\n      pop\n      jump\t// out\n        /* \"#utility.yul\":1149:1371   */\n    tag_14:\n        /* \"#utility.yul\":1242:1246   */\n      0x00\n        /* \"#utility.yul\":1280:1282   */\n      0x20\n        /* \"#utility.yul\":1269:1278   */\n      dup3\n        /* \"#utility.yul\":1265:1283   */\n      add\n        /* \"#utility.yul\":1257:1283   */\n      swap1\n      pop\n        /* \"#utility.yul\":1293:1364   */\n      tag_73\n        /* \"#utility.yul\":1361:1362   */\n      0x00\n        /* \"#utility.yul\":1350:1359   */\n      dup4\n        /* \"#utility.yul\":1346:1363   */\n      add\n        /* \"#utility.yul\":1337:1343   */\n      dup5\n        /* \"#utility.yul\":1293:1364   */\n      tag_48\n      jump\t// in\n    tag_73:\n        /* \"#utility.yul\":1149:1371   */\n      swap3\n      swap2\n      pop\n      pop\n      jump\t// out\n        /* \"#utility.yul\":1377:1851   */\n    tag_17:\n        /* \"#utility.yul\":1445:1451   */\n      0x00\n        /* \"#utility.yul\":1453:1459   */\n      dup1\n        /* \"#utility.yul\":1502:1504   */\n      0x40\n        /* \"#utility.yul\":1490:1499   */\n      dup4\n        /* \"#utility.yul\":1481:1488   */\n      dup6\n        /* \"#utility.yul\":1477:1500   */\n      sub\n        /* \"#utility.yul\":1473:1505   */\n      slt\n        /* \"#utility.yul\":1470:1589   */\n      iszero\n      tag_75\n      jumpi\n        /* \"#utility.yul\":1508:1587   */\n      tag_76\n      tag_43\n      jump\t// in\n    tag_76:\n        /* \"#utility.yul\":1470:1589   */\n    tag_75:\n        /* \"#utility.yul\":1628:1629   */\n      0x00\n        /* \"#utility.yul\":1653:1706   */\n      tag_77\n        /* \"#utility.yul\":1698:1705   */\n      dup6\n        /* \"#utility.yul\":1689:1695   */\n      dup3\n        /* \"#utility.yul\":1678:1687   */\n      dup7\n        /* \"#utility.yul\":1674:1696   */\n      add\n        /* \"#utility.yul\":1653:1706   */\n      tag_47\n      jump\t// in\n    tag_77:\n        /* \"#utility.yul\":1643:1706   */\n      swap3\n      pop\n        /* \"#utility.yul\":1599:1716   */\n      pop\n        /* \"#utility.yul\":1755:1757   */\n      0x20\n        /* \"#utility.yul\":1781:1834   */\n      tag_78\n        /* \"#utility.yul\":1826:1833   */\n      dup6\n        /* \"#utility.yul\":1817:1823   */\n      dup3\n        /* \"#utility.yul\":1806:1815   */\n      dup7\n        /* \"#utility.yul\":1802:1824   */\n      add\n        /* \"#utility.yul\":1781:1834   */\n      tag_47\n      jump\t// in\n    tag_78:\n        /* \"#utility.yul\":1771:1834   */\n      swap2\n      pop\n        /* \"#utility.yul\":1726:1844   */\n      pop\n        /* \"#utility.yul\":1377:1851   */\n      swap3\n      pop\n      swap3\n      swap1\n      pop\n      jump\t// out\n        /* \"#utility.yul\":1857:2026   */\n    tag_49:\n        /* \"#utility.yul\":1941:1952   */\n      0x00\n        /* \"#utility.yul\":1975:1981   */\n      dup3\n        /* \"#utility.yul\":1970:1973   */\n      dup3\n        /* \"#utility.yul\":1963:1982   */\n      mstore\n        /* \"#utility.yul\":2015:2019   */\n      0x20\n        /* \"#utility.yul\":2010:2013   */\n      dup3\n        /* \"#utility.yul\":2006:2020   */\n      add\n        /* \"#utility.yul\":1991:2020   */\n      swap1\n      pop\n        /* \"#utility.yul\":1857:2026   */\n      swap3\n      swap2\n      pop\n      pop\n      jump\t// out\n        /* \"#utility.yul\":2032:2198   */\n    tag_50:\n        /* \"#utility.yul\":2172:2190   */\n      0x782063616e6e6f74206265207a65726f00000000000000000000000000000000\n        /* \"#utility.yul\":2168:2169   */\n      0x00\n        /* \"#utility.yul\":2160:2166   */\n      dup3\n        /* \"#utility.yul\":2156:2170   */\n      add\n        /* \"#utility.yul\":2149:2191   */\n      mstore\n        /* \"#utility.yul\":2032:2198   */\n      pop\n      jump\t// out\n        /* \"#utility.yul\":2204:2570   */\n    tag_51:\n        /* \"#utility.yul\":2346:2349   */\n      0x00\n        /* \"#utility.yul\":2367:2434   */\n      tag_82\n        /* \"#utility.yul\":2431:2433   */\n      0x10\n        /* \"#utility.yul\":2426:2429   */\n      dup4\n        /* \"#utility.yul\":2367:2434   */\n      tag_49\n      jump\t// in\n    tag_82:\n        /* \"#utility.yul\":2360:2434   */\n      swap2\n      pop\n        /* \"#utility.yul\":2443:2536   */\n      tag_83\n        /* \"#utility.yul\":2532:2535   */\n      dup3\n        /* \"#utility.yul\":2443:2536   */\n      tag_50\n      jump\t// in\n    tag_83:\n        /* \"#utility.yul\":2561:2563   */\n      0x20\n        /* \"#utility.yul\":2556:2559   */\n      dup3\n        /* \"#utility.yul\":2552:2564   */\n      add\n        /* \"#utility.yul\":2545:2564   */\n      swap1\n      pop\n        /* \"#utility.yul\":2204:2570   */\n      swap2\n      swap1\n      pop\n      jump\t// out\n        /* \"#utility.yul\":2576:2995   */\n    tag_27:\n        /* \"#utility.yul\":2742:2746   */\n      0x00\n        /* \"#utility.yul\":2780:2782   */\n      0x20\n        /* \"#utility.yul\":2769:2778   */\n      dup3\n        /* \"#utility.yul\":2765:2783   */\n      add\n        /* \"#utility.yul\":2757:2783   */\n      swap1\n      pop\n        /* \"#utility.yul\":2829:2838   */\n      dup2\n        /* \"#utility.yul\":2823:2827   */\n      dup2\n        /* \"#utility.yul\":2819:2839   */\n      sub\n        /* \"#utility.yul\":2815:2816   */\n      0x00\n        /* \"#utility.yul\":2804:2813   */\n      dup4\n        /* \"#utility.yul\":2800:2817   */\n      add\n        /* \"#utility.yul\":2793:2840   */\n      mstore\n        /* \"#utility.yul\":2857:2988   */\n      tag_85\n        /* \"#utility.yul\":2983:2987   */\n      dup2\n        /* \"#utility.yul\":2857:2988   */\n      tag_51\n      jump\t// in\n    tag_85:\n        /* \"#utility.yul\":2849:2988   */\n      swap1\n      pop\n        /* \"#utility.yul\":2576:2995   */\n      swap2\n      swap1\n      pop\n      jump\t// out\n        /* \"#utility.yul\":3001:3181   */\n    tag_52:\n        /* \"#utility.yul\":3049:3126   */\n      0x4e487b7100000000000000000000000000000000000000000000000000000000\n        /* \"#utility.yul\":3046:3047   */\n      0x00\n        /* \"#utility.yul\":3039:3127   */\n      mstore\n        /* \"#utility.yul\":3146:3150   */\n      0x11\n        /* \"#utility.yul\":3143:3144   */\n      0x04\n        /* \"#utility.yul\":3136:3151   */\n      mstore\n        /* \"#utility.yul\":3170:3174   */\n      0x24\n        /* \"#utility.yul\":3167:3168   */\n      0x00\n        /* \"#utility.yul\":3160:3175   */\n      revert\n        /* \"#utility.yul\":3187:3378   */\n    tag_31:\n        /* \"#utility.yul\":3227:3230   */\n      0x00\n        /* \"#utility.yul\":3246:3266   */\n      tag_88\n        /* \"#utility.yul\":3264:3265   */\n      dup3\n        /* \"#utility.yul\":3246:3266   */\n      tag_45\n      jump\t// in\n    tag_88:\n        /* \"#utility.yul\":3241:3266   */\n      swap2\n      pop\n        /* \"#utility.yul\":3280:3300   */\n      tag_89\n        /* \"#utility.yul\":3298:3299   */\n      dup4\n        /* \"#utility.yul\":3280:3300   */\n      tag_45\n      jump\t// in\n    tag_89:\n        /* \"#utility.yul\":3275:3300   */\n      swap3\n      pop\n        /* \"#utility.yul\":3323:3324   */\n      dup3\n        /* \"#utility.yul\":3320:3321   */\n      dup3\n        /* \"#utility.yul\":3316:3325   */\n      add\n        /* \"#utility.yul\":3309:3325   */\n      swap1\n      pop\n        /* \"#utility.yul\":3344:3347   */\n      dup1\n        /* \"#utility.yul\":3341:3342   */\n      dup3\n        /* \"#utility.yul\":3338:3348   */\n      gt\n        /* \"#utility.yul\":3335:3371   */\n      iszero\n      tag_90\n      jumpi\n        /* \"#utility.yul\":3351:3369   */\n      tag_91\n      tag_52\n      jump\t// in\n    tag_91:\n        /* \"#utility.yul\":3335:3371   */\n    tag_90:\n        /* \"#utility.yul\":3187:3378   */\n      swap3\n      swap2\n      pop\n      pop\n      jump\t// out\n        /* \"#utility.yul\":3384:3551   */\n    tag_53:\n        /* \"#utility.yul\":3524:3543   */\n      0x726573756c74206f766572666c6f776564000000000000000000000000000000\n        /* \"#utility.yul\":3520:3521   */\n      0x00\n        /* \"#utility.yul\":3512:3518   */\n      dup3\n        /* \"#utility.yul\":3508:3522   */\n      add\n        /* \"#utility.yul\":3501:3544   */\n      mstore\n        /* \"#utility.yul\":3384:3551   */\n      pop\n      jump\t// out\n        /* \"#utility.yul\":3557:3923   */\n    tag_54:\n        /* \"#utility.yul\":3699:3702   */\n      0x00\n        /* \"#utility.yul\":3720:3787   */\n      tag_94\n        /* \"#utility.yul\":3784:3786   */\n      0x11\n        /* \"#utility.yul\":3779:3782   */\n      dup4\n        /* \"#utility.yul\":3720:3787   */\n      tag_49\n      jump\t// in\n    tag_94:\n        /* \"#utility.yul\":3713:3787   */\n      swap2\n      pop\n        /* \"#utility.yul\":3796:3889   */\n      tag_95\n        /* \"#utility.yul\":3885:3888   */\n      dup3\n        /* \"#utility.yul\":3796:3889   */\n      tag_53\n      jump\t// in\n    tag_95:\n        /* \"#utility.yul\":3914:3916   */\n      0x20\n        /* \"#utility.yul\":3909:3912   */\n      dup3\n        /* \"#utility.yul\":3905:3917   */\n      add\n        /* \"#utility.yul\":3898:3917   */\n      swap1\n      pop\n        /* \"#utility.yul\":3557:3923   */\n      swap2\n      swap1\n      pop\n      jump\t// out\n        /* \"#utility.yul\":3929:4348   */\n    tag_35:\n        /* \"#utility.yul\":4095:4099   */\n      0x00\n        /* \"#utility.yul\":4133:4135   */\n      0x20\n        /* \"#utility.yul\":4122:4131   */\n      dup3\n        /* \"#utility.yul\":4118:4136   */\n      add\n        /* \"#utility.yul\":4110:4136   */\n      swap1\n      pop\n        /* \"#utility.yul\":4182:4191   */\n      dup2\n        /* \"#utility.yul\":4176:4180   */\n      dup2\n        /* \"#utility.yul\":4172:4192   */\n      sub\n        /* \"#utility.yul\":4168:4169   */\n      0x00\n        /* \"#utility.yul\":4157:4166   */\n      dup4\n        /* \"#utility.yul\":4153:4170   */\n      add\n        /* \"#utility.yul\":4146:4193   */\n      mstore\n        /* \"#utility.yul\":4210:4341   */\n      tag_97\n        /* \"#utility.yul\":4336:4340   */\n      dup2\n        /* \"#utility.yul\":4210:4341   */\n      tag_54\n      jump\t// in\n    tag_97:\n        /* \"#utility.yul\":4202:4341   */\n      swap1\n      pop\n        /* \"#utility.yul\":3929:4348   */\n      swap2\n      swap1\n      pop\n      jump\t// out\n        /* \"#utility.yul\":4354:4534   */\n    tag_39:\n        /* \"#utility.yul\":4402:4479   */\n      0x4e487b7100000000000000000000000000000000000000000000000000000000\n        /* \"#utility.yul\":4399:4400   */\n      0x00\n        /* \"#utility.yul\":4392:4480   */\n      mstore\n        /* \"#utility.yul\":4499:4503   */\n      0x01\n        /* \"#utility.yul\":4496:4497   */\n      0x04\n        /* \"#utility.yul\":4489:4504   */\n      mstore\n        /* \"#utility.yul\":4523:4527   */\n      0x24\n        /* \"#utility.yul\":4520:4521   */\n      0x00\n        /* \"#utility.yul\":4513:4528   */\n      revert\n        /* \"#utility.yul\":4540:4720   */\n    tag_55:\n        /* \"#utility.yul\":4588:4665   */\n      0x4e487b7100000000000000000000000000000000000000000000000000000000\n        /* \"#utility.yul\":4585:4586   */\n      0x00\n        /* \"#utility.yul\":4578:4666   */\n      mstore\n        /* \"#utility.yul\":4685:4689   */\n      0x12\n        /* \"#utility.yul\":4682:4683   */\n      0x04\n        /* \"#utility.yul\":4675:4690   */\n      mstore\n        /* \"#utility.yul\":4709:4713   */\n      0x24\n        /* \"#utility.yul\":4706:4707   */\n      0x00\n        /* \"#utility.yul\":4699:4714   */\n      revert\n        /* \"#utility.yul\":4726:4911   */\n    tag_41:\n        /* \"#utility.yul\":4766:4767   */\n      0x00\n        /* \"#utility.yul\":4783:4803   */\n      tag_101\n        /* \"#utility.yul\":4801:4802   */\n      dup3\n        /* \"#utility.yul\":4783:4803   */\n      tag_45\n      jump\t// in\n    tag_101:\n        /* \"#utility.yul\":4778:4803   */\n      swap2\n      pop\n        /* \"#utility.yul\":4817:4837   */\n      tag_102\n        /* \"#utility.yul\":4835:4836   */\n      dup4\n        /* \"#utility.yul\":4817:4837   */\n      tag_45\n      jump\t// in\n    tag_102:\n        /* \"#utility.yul\":4812:4837   */\n      swap3\n      pop\n        /* \"#utility.yul\":4856:4857   */\n      dup3\n        /* \"#utility.yul\":4846:4881   */\n      tag_103\n      jumpi\n        /* \"#utility.yul\":4861:4879   */\n      tag_104\n      tag_55\n      jump\t// in\n    tag_104:\n        /* \"#utility.yul\":4846:4881   */\n    tag_103:\n        /* \"#utility.yul\":4903:4904   */\n      dup3\n        /* \"#utility.yul\":4900:4901   */\n      dup3\n        /* \"#utility.yul\":4896:4905   */\n      div\n        /* \"#utility.yul\":4891:4905   */\n      swap1\n      pop\n        /* \"#utility.yul\":4726:4911   */\n      swap3\n      swap2\n      pop\n      pop\n      jump\t// out\n\n    auxdata: 0xa2646970667358221220ed993e92be185c30c90c0f55d86aa72dec1144b19cf6b82e926b64090c369a0e64736f6c63430008160033\n}\n",
				"bytecode": {
					"linkReferences": {},
					"object": "608060405234801561000f575f80fd5b5061048f8061001d5f395ff3fe608060405234801561000f575f80fd5b506004361061004a575f3560e01c806360fe47b11461004e5780636d4ce63c1461006a578063771602f714610088578063f88e9fbf146100b8575b5f80fd5b610068600480360381019061006391906101fe565b6100e8565b005b610072610133565b60405161007f9190610238565b60405180910390f35b6100a2600480360381019061009d9190610251565b61013b565b6040516100af9190610238565b60405180910390f35b6100d260048036038101906100cd9190610251565b6101a2565b6040516100df9190610238565b60405180910390f35b5f810361012a576040517f08c379a0000000000000000000000000000000000000000000000000000000008152600401610121906102e9565b60405180910390fd5b805f8190555050565b5f8054905090565b5f8082846101499190610334565b90508381108061015857508281105b15610198576040517f08c379a000000000000000000000000000000000000000000000000000000000815260040161018f906103b1565b60405180910390fd5b8091505092915050565b5f8082036101b3576101b26103cf565b5b81836101bf9190610429565b905092915050565b5f80fd5b5f819050919050565b6101dd816101cb565b81146101e7575f80fd5b50565b5f813590506101f8816101d4565b92915050565b5f60208284031215610213576102126101c7565b5b5f610220848285016101ea565b91505092915050565b610232816101cb565b82525050565b5f60208201905061024b5f830184610229565b92915050565b5f8060408385031215610267576102666101c7565b5b5f610274858286016101ea565b9250506020610285858286016101ea565b9150509250929050565b5f82825260208201905092915050565b7f782063616e6e6f74206265207a65726f000000000000000000000000000000005f82015250565b5f6102d360108361028f565b91506102de8261029f565b602082019050919050565b5f6020820190508181035f830152610300816102c7565b9050919050565b7f4e487b71000000000000000000000000000000000000000000000000000000005f52601160045260245ffd5b5f61033e826101cb565b9150610349836101cb565b925082820190508082111561036157610360610307565b5b92915050565b7f726573756c74206f766572666c6f7765640000000000000000000000000000005f82015250565b5f61039b60118361028f565b91506103a682610367565b602082019050919050565b5f6020820190508181035f8301526103c88161038f565b9050919050565b7f4e487b71000000000000000000000000000000000000000000000000000000005f52600160045260245ffd5b7f4e487b71000000000000000000000000000000000000000000000000000000005f52601260045260245ffd5b5f610433826101cb565b915061043e836101cb565b92508261044e5761044d6103fc565b5b82820490509291505056fea2646970667358221220ed993e92be185c30c90c0f55d86aa72dec1144b19cf6b82e926b64090c369a0e64736f6c63430008160033",
					"opcodes": "PUSH1 0x80 PUSH1 0x40 MSTORE CALLVALUE DUP1 ISZERO PUSH2 0xF JUMPI PUSH0 DUP1 REVERT JUMPDEST POP PUSH2 0x48F DUP1 PUSH2 0x1D PUSH0 CODECOPY PUSH0 RETURN INVALID PUSH1 0x80 PUSH1 0x40 MSTORE CALLVALUE DUP1 ISZERO PUSH2 0xF JUMPI PUSH0 DUP1 REVERT JUMPDEST POP PUSH1 0x4 CALLDATASIZE LT PUSH2 0x4A JUMPI PUSH0 CALLDATALOAD PUSH1 0xE0 SHR DUP1 PUSH4 0x60FE47B1 EQ PUSH2 0x4E JUMPI DUP1 PUSH4 0x6D4CE63C EQ PUSH2 0x6A JUMPI DUP1 PUSH4 0x771602F7 EQ PUSH2 0x88 JUMPI DUP1 PUSH4 0xF88E9FBF EQ PUSH2 0xB8 JUMPI JUMPDEST PUSH0 DUP1 REVERT JUMPDEST PUSH2 0x68 PUSH1 0x4 DUP1 CALLDATASIZE SUB DUP2 ADD SWAP1 PUSH2 0x63 SWAP2 SWAP1 PUSH2 0x1FE JUMP JUMPDEST PUSH2 0xE8 JUMP JUMPDEST STOP JUMPDEST PUSH2 0x72 PUSH2 0x133 JUMP JUMPDEST PUSH1 0x40 MLOAD PUSH2 0x7F SWAP2 SWAP1 PUSH2 0x238 JUMP JUMPDEST PUSH1 0x40 MLOAD DUP1 SWAP2 SUB SWAP1 RETURN JUMPDEST PUSH2 0xA2 PUSH1 0x4 DUP1 CALLDATASIZE SUB DUP2 ADD SWAP1 PUSH2 0x9D SWAP2 SWAP1 PUSH2 0x251 JUMP JUMPDEST PUSH2 0x13B JUMP JUMPDEST PUSH1 0x40 MLOAD PUSH2 0xAF SWAP2 SWAP1 PUSH2 0x238 JUMP JUMPDEST PUSH1 0x40 MLOAD DUP1 SWAP2 SUB SWAP1 RETURN JUMPDEST PUSH2 0xD2 PUSH1 0x4 DUP1 CALLDATASIZE SUB DUP2 ADD SWAP1 PUSH2 0xCD SWAP2 SWAP1 PUSH2 0x251 JUMP JUMPDEST PUSH2 0x1A2 JUMP JUMPDEST PUSH1 0x40 MLOAD PUSH2 0xDF SWAP2 SWAP1 PUSH2 0x238 JUMP JUMPDEST PUSH1 0x40 MLOAD DUP1 SWAP2 SUB SWAP1 RETURN JUMPDEST PUSH0 DUP2 SUB PUSH2 0x12A JUMPI PUSH1 0x40 MLOAD PUSH32 0x8C379A000000000000000000000000000000000000000000000000000000000 DUP2 MSTORE PUSH1 0x4 ADD PUSH2 0x121 SWAP1 PUSH2 0x2E9 JUMP JUMPDEST PUSH1 0x40 MLOAD DUP1 SWAP2 SUB SWAP1 REVERT JUMPDEST DUP1 PUSH0 DUP2 SWAP1 SSTORE POP POP JUMP JUMPDEST PUSH0 DUP1 SLOAD SWAP1 POP SWAP1 JUMP JUMPDEST PUSH0 DUP1 DUP3 DUP5 PUSH2 0x149 SWAP2 SWAP1 PUSH2 0x334 JUMP JUMPDEST SWAP1 POP DUP4 DUP2 LT DUP1 PUSH2 0x158 JUMPI POP DUP3 DUP2 LT JUMPDEST ISZERO PUSH2 0x198 JUMPI PUSH1 0x40 MLOAD PUSH32 0x8C379A000000000000000000000000000000000000000000000000000000000 DUP2 MSTORE PUSH1 0x4 ADD PUSH2 0x18F SWAP1 PUSH2 0x3B1 JUMP JUMPDEST PUSH1 0x40 MLOAD DUP1 SWAP2 SUB SWAP1 REVERT JUMPDEST DUP1 SWAP2 POP POP SWAP3 SWAP2 POP POP JUMP JUMPDEST PUSH0 DUP1 DUP3 SUB PUSH2 0x1B3 JUMPI PUSH2 0x1B2 PUSH2 0x3CF JUMP JUMPDEST JUMPDEST DUP2 DUP4 PUSH2 0x1BF SWAP2 SWAP1 PUSH2 0x429 JUMP JUMPDEST SWAP1 POP SWAP3 SWAP2 POP POP JUMP JUMPDEST PUSH0 DUP1 REVERT JUMPDEST PUSH0 DUP2 SWAP1 POP SWAP2 SWAP1 POP JUMP JUMPDEST PUSH2 0x1DD DUP2 PUSH2 0x1CB JUMP JUMPDEST DUP2 EQ PUSH2 0x1E7 JUMPI PUSH0 DUP1 REVERT JUMPDEST POP JUMP JUMPDEST PUSH0 DUP2 CALLDATALOAD SWAP1 POP PUSH2 0x1F8 DUP2 PUSH2 0x1D4 JUMP JUMPDEST SWAP3 SWAP2 POP POP JUMP JUMPDEST PUSH0 PUSH1 0x20 DUP3 DUP5 SUB SLT ISZERO PUSH2 0x213 JUMPI PUSH2 0x212 PUSH2 0x1C7 JUMP JUMPDEST JUMPDEST PUSH0 PUSH2 0x220 DUP5 DUP3 DUP6 ADD PUSH2 0x1EA JUMP JUMPDEST SWAP2 POP POP SWAP3 SWAP2 POP POP JUMP JUMPDEST PUSH2 0x232 DUP2 PUSH2 0x1CB JUMP JUMPDEST DUP3 MSTORE POP POP JUMP JUMPDEST PUSH0 PUSH1 0x20 DUP3 ADD SWAP1 POP PUSH2 0x24B PUSH0 DUP4 ADD DUP5 PUSH2 0x229 JUMP JUMPDEST SWAP3 SWAP2 POP POP JUMP JUMPDEST PUSH0 DUP1 PUSH1 0x40 DUP4 DUP6 SUB SLT ISZERO PUSH2 0x267 JUMPI PUSH2 0x266 PUSH2 0x1C7 JUMP JUMPDEST JUMPDEST PUSH0 PUSH2 0x274 DUP6 DUP3 DUP7 ADD PUSH2 0x1EA JUMP JUMPDEST SWAP3 POP POP PUSH1 0x20 PUSH2 0x285 DUP6 DUP3 DUP7 ADD PUSH2 0x1EA JUMP JUMPDEST SWAP2 POP POP SWAP3 POP SWAP3 SWAP1 POP JUMP JUMPDEST PUSH0 DUP3 DUP3 MSTORE PUSH1 0x20 DUP3 ADD SWAP1 POP SWAP3 SWAP2 POP POP JUMP JUMPDEST PUSH32 0x782063616E6E6F74206265207A65726F00000000000000000000000000000000 PUSH0 DUP3 ADD MSTORE POP JUMP JUMPDEST PUSH0 PUSH2 0x2D3 PUSH1 0x10 DUP4 PUSH2 0x28F JUMP JUMPDEST SWAP2 POP PUSH2 0x2DE DUP3 PUSH2 0x29F JUMP JUMPDEST PUSH1 0x20 DUP3 ADD SWAP1 POP SWAP2 SWAP1 POP JUMP JUMPDEST PUSH0 PUSH1 0x20 DUP3 ADD SWAP1 POP DUP2 DUP2 SUB PUSH0 DUP4 ADD MSTORE PUSH2 0x300 DUP2 PUSH2 0x2C7 JUMP JUMPDEST SWAP1 POP SWAP2 SWAP1 POP JUMP JUMPDEST PUSH32 0x4E487B7100000000000000000000000000000000000000000000000000000000 PUSH0 MSTORE PUSH1 0x11 PUSH1 0x4 MSTORE PUSH1 0x24 PUSH0 REVERT JUMPDEST PUSH0 PUSH2 0x33E DUP3 PUSH2 0x1CB JUMP JUMPDEST SWAP2 POP PUSH2 0x349 DUP4 PUSH2 0x1CB JUMP JUMPDEST SWAP3 POP DUP3 DUP3 ADD SWAP1 POP DUP1 DUP3 GT ISZERO PUSH2 0x361 JUMPI PUSH2 0x360 PUSH2 0x307 JUMP JUMPDEST JUMPDEST SWAP3 SWAP2 POP POP JUMP JUMPDEST PUSH32 0x726573756C74206F766572666C6F776564000000000000000000000000000000 PUSH0 DUP3 ADD MSTORE POP JUMP JUMPDEST PUSH0 PUSH2 0x39B PUSH1 0x11 DUP4 PUSH2 0x28F JUMP JUMPDEST SWAP2 POP PUSH2 0x3A6 DUP3 PUSH2 0x367 JUMP JUMPDEST PUSH1 0x20 DUP3 ADD SWAP1 POP SWAP2 SWAP1 POP JUMP JUMPDEST PUSH0 PUSH1 0x20 DUP3 ADD SWAP1 POP DUP2 DUP2 SUB PUSH0 DUP4 ADD MSTORE PUSH2 0x3C8 DUP2 PUSH2 0x38F JUMP JUMPDEST SWAP1 POP SWAP2 SWAP1 POP JUMP JUMPDEST PUSH32 0x4E487B7100000000000000000000000000000000000000000000000000000000 PUSH0 MSTORE PUSH1 0x1 PUSH1 0x4 MSTORE PUSH1 0x24 PUSH0 REVERT JUMPDEST PUSH32 0x4E487B7100000000000000000000000000000000000000000000000000000000 PUSH0 MSTORE PUSH1 0x12 PUSH1 0x4 MSTORE PUSH1 0x24 PUSH0 REVERT JUMPDEST PUSH0 PUSH2 0x433 DUP3 PUSH2 0x1CB JUMP JUMPDEST SWAP2 POP PUSH2 0x43E DUP4 PUSH2 0x1CB JUMP JUMPDEST SWAP3 POP DUP3 PUSH2 0x44E JUMPI PUSH2 0x44D PUSH2 0x3FC JUMP JUMPDEST JUMPDEST DUP3 DUP3 DIV SWAP1 POP SWAP3 SWAP2 POP POP JUMP INVALID LOG2 PUSH5 0x6970667358 0x22 SLT KECCAK256 0xED SWAP10 RETURNDATACOPY SWAP3 0xBE XOR 0x5C ADDRESS 0xC9 0xC 0xF SSTORE 0xD8 PUSH11 0xA72DEC1144B19CF6B82E92 PUSH12 0x64090C369A0E64736F6C6343 STOP ADDMOD AND STOP CALLER "
				},
				"gasEstimates": {
					"creation": {
						"codeDepositCost": "233400",
						"executionCost": "273",
						"totalCost": "233673"
					},
					"external": {
						"add(uint256,uint256)": "infinite",
						"divide(uint256,uint256)": "infinite",
						"get()": "2432",
						"set(uint256)": "22514"
					}
				},
				"methodIdentifiers": {
					"add(uint256,uint256)": "771602f7",
					"divide(uint256,uint256)": "f88e9fbf",
					"get()": "6d4ce63c",
					"set(uint256)": "60fe47b1"
				}
			},
			"storageLayout": {
				"storage": [
					{
						"astId": 3,
						"contract": "contracts/Errors.sol:Errors",
						"label": "storedData",
						"offset": 0,
						"slot": "0",
						"type": "t_uint256"
					}
				],
				"types": {
					"t_uint256": {
						"encoding": "inplace",
						"label": "uint256",
						"numberOfBytes": "32"
					}
				}
			},
			"userdoc": {
				"kind": "user",
				"methods": {},
				"version": 1
			}
		}
	}
}