{
	"contracts/Mappings.sol": {
		"Mappings": {
			"abi": [
				{
					"inputs": [],
					"name": "getName",
					"outputs": [
						{
							"internalType": "string",
							"name": "",
							"type": "string"
						}
					],
					"stateMutability": "view",
					"type": "function"
				},
				{
					"inputs": [
						{
							"internalType": "address",
							"name": "",
							"type": "address"
						}
					],
					"name": "names",
					"outputs": [
						{
							"internalType": "string",
							"name": "",
							"type": "string"
						}
					],
					"stateMutability": "view",
					"type": "function"
				},
				{
					"inputs": [
						{
							"internalType": "string",
							"name": "_name",
							"type": "string"
						}
					],
					"name": "setName",
					"outputs": [],
					"stateMutability": "nonpayable",
					"type": "function"
				}
			],
			"devdoc": {
				"kind": "dev",
				"methods": {},
				"version": 1
			},
			"evm": {
				"assembly": "    /* \"contracts/Mappings.sol\":60:331  contract Mappings {... */\n  mstore(0x40, 0x80)\n  callvalue\n  dup1\n  iszero\n  tag_1\n  jumpi\n  0x00\n  dup1\n  revert\ntag_1:\n  pop\n  dataSize(sub_0)\n  dup1\n  dataOffset(sub_0)\n  0x00\n  codecopy\n  0x00\n  return\nstop\n\nsub_0: assembly {\n        /* \"contracts/Mappings.sol\":60:331  contract Mappings {... */\n      mstore(0x40, 0x80)\n      callvalue\n      dup1\n      iszero\n      tag_1\n      jumpi\n      0x00\n      dup1\n      revert\n    tag_1:\n      pop\n      jumpi(tag_2, lt(calldatasize, 0x04))\n      shr(0xe0, calldataload(0x00))\n      dup1\n      0x17d7de7c\n      eq\n      tag_3\n      jumpi\n      dup1\n      0x5cf3d346\n      eq\n      tag_4\n      jumpi\n      dup1\n      0xc47f0027\n      eq\n      tag_5\n      jumpi\n    tag_2:\n      0x00\n      dup1\n      revert\n        /* \"contracts/Mappings.sol\":230:328  function getName() public view returns (string memory) {... */\n    tag_3:\n      tag_6\n      tag_7\n      jump\t// in\n    tag_6:\n      mload(0x40)\n      tag_8\n      swap2\n      swap1\n      tag_9\n      jump\t// in\n    tag_8:\n      mload(0x40)\n      dup1\n      swap2\n      sub\n      swap1\n      return\n        /* \"contracts/Mappings.sol\":85:124  mapping(address => string) public names */\n    tag_4:\n      tag_10\n      0x04\n      dup1\n      calldatasize\n      sub\n      dup2\n      add\n      swap1\n      tag_11\n      swap2\n      swap1\n      tag_12\n      jump\t// in\n    tag_11:\n      tag_13\n      jump\t// in\n    tag_10:\n      mload(0x40)\n      tag_14\n      swap2\n      swap1\n      tag_9\n      jump\t// in\n    tag_14:\n      mload(0x40)\n      dup1\n      swap2\n      sub\n      swap1\n      return\n        /* \"contracts/Mappings.sol\":133:222  function setName(string memory _name) public {... */\n    tag_5:\n      tag_15\n      0x04\n      dup1\n      calldatasize\n      sub\n      dup2\n      add\n      swap1\n      tag_16\n      swap2\n      swap1\n      tag_17\n      jump\t// in\n    tag_16:\n      tag_18\n      jump\t// in\n    tag_15:\n      stop\n        /* \"contracts/Mappings.sol\":230:328  function getName() public view returns (string memory) {... */\n    tag_7:\n        /* \"contracts/Mappings.sol\":270:283  string memory */\n      0x60\n        /* \"contracts/Mappings.sol\":303:308  names */\n      0x00\n        /* \"contracts/Mappings.sol\":303:320  names[msg.sender] */\n      dup1\n        /* \"contracts/Mappings.sol\":309:319  msg.sender */\n      caller\n        /* \"contracts/Mappings.sol\":303:320  names[msg.sender] */\n      0xffffffffffffffffffffffffffffffffffffffff\n      and\n      0xffffffffffffffffffffffffffffffffffffffff\n      and\n      dup2\n      mstore\n      0x20\n      add\n      swap1\n      dup2\n      mstore\n      0x20\n      add\n      0x00\n      keccak256\n        /* \"contracts/Mappings.sol\":296:320  return names[msg.sender] */\n      dup1\n      sload\n      tag_20\n      swap1\n      tag_21\n      jump\t// in\n    tag_20:\n      dup1\n      0x1f\n      add\n      0x20\n      dup1\n      swap2\n      div\n      mul\n      0x20\n      add\n      mload(0x40)\n      swap1\n      dup2\n      add\n      0x40\n      mstore\n      dup1\n      swap3\n      swap2\n      swap1\n      dup2\n      dup2\n      mstore\n      0x20\n      add\n      dup3\n      dup1\n      sload\n      tag_22\n      swap1\n      tag_21\n      jump\t// in\n    tag_22:\n      dup1\n      iszero\n      tag_23\n      jumpi\n      dup1\n      0x1f\n      lt\n      tag_24\n      jumpi\n      0x0100\n      dup1\n      dup4\n      sload\n      div\n      mul\n      dup4\n      mstore\n      swap2\n      0x20\n      add\n      swap2\n      jump(tag_23)\n    tag_24:\n      dup3\n      add\n      swap2\n      swap1\n      0x00\n      mstore\n      keccak256(0x00, 0x20)\n      swap1\n    tag_25:\n      dup2\n      sload\n      dup2\n      mstore\n      swap1\n      0x01\n      add\n      swap1\n      0x20\n      add\n      dup1\n      dup4\n      gt\n      tag_25\n      jumpi\n      dup3\n      swap1\n      sub\n      0x1f\n      and\n      dup3\n      add\n      swap2\n    tag_23:\n      pop\n      pop\n      pop\n      pop\n      pop\n      swap1\n      pop\n        /* \"contracts/Mappings.sol\":230:328  function getName() public view returns (string memory) {... */\n      swap1\n      jump\t// out\n        /* \"contracts/Mappings.sol\":85:124  mapping(address => string) public names */\n    tag_13:\n      mstore(0x20, 0x00)\n      dup1\n      0x00\n      mstore\n      keccak256(0x00, 0x40)\n      0x00\n      swap2\n      pop\n      swap1\n      pop\n      dup1\n      sload\n      tag_26\n      swap1\n      tag_21\n      jump\t// in\n    tag_26:\n      dup1\n      0x1f\n      add\n      0x20\n      dup1\n      swap2\n      div\n      mul\n      0x20\n      add\n      mload(0x40)\n      swap1\n      dup2\n      add\n      0x40\n      mstore\n      dup1\n      swap3\n      swap2\n      swap1\n      dup2\n      dup2\n      mstore\n      0x20\n      add\n      dup3\n      dup1\n      sload\n      tag_27\n      swap1\n      tag_21\n      jump\t// in\n    tag_27:\n      dup1\n      iszero\n      tag_28\n      jumpi\n      dup1\n      0x1f\n      lt\n      tag_29\n      jumpi\n      0x0100\n      dup1\n      dup4\n      sload\n      div\n      mul\n      dup4\n      mstore\n      swap2\n      0x20\n      add\n      swap2\n      jump(tag_28)\n    tag_29:\n      dup3\n      add\n      swap2\n      swap1\n      0x00\n      mstore\n      keccak256(0x00, 0x20)\n      swap1\n    tag_30:\n      dup2\n      sload\n      dup2\n      mstore\n      swap1\n      0x01\n      add\n      swap1\n      0x20\n      add\n      dup1\n      dup4\n      gt\n      tag_30\n      jumpi\n      dup3\n      swap1\n      sub\n      0x1f\n      and\n      dup3\n      add\n      swap2\n    tag_28:\n      pop\n      pop\n      pop\n      pop\n      pop\n      dup2\n      jump\t// out\n        /* \"contracts/Mappings.sol\":133:222  function setName(string memory _name) public {... */\n    tag_18:\n        /* \"contracts/Mappings.sol\":209:214  _name */\n      dup1\n        /* \"contracts/Mappings.sol\":189:194  names */\n      0x00\n        /* \"contracts/Mappings.sol\":189:206  names[msg.sender] */\n      dup1\n        /* \"contracts/Mappings.sol\":195:205  msg.sender */\n      caller\n        /* \"contracts/Mappings.sol\":189:206  names[msg.sender] */\n      0xffffffffffffffffffffffffffffffffffffffff\n      and\n      0xffffffffffffffffffffffffffffffffffffffff\n      and\n      dup2\n      mstore\n      0x20\n      add\n      swap1\n      dup2\n      mstore\n      0x20\n      add\n      0x00\n      keccak256\n        /* \"contracts/Mappings.sol\":189:214  names[msg.sender] = _name */\n      swap1\n      dup2\n      tag_32\n      swap2\n      swap1\n      tag_33\n      jump\t// in\n    tag_32:\n      pop\n        /* \"contracts/Mappings.sol\":133:222  function setName(string memory _name) public {... */\n      pop\n      jump\t// out\n        /* \"#utility.yul\":7:106   */\n    tag_34:\n        /* \"#utility.yul\":59:65   */\n      0x00\n        /* \"#utility.yul\":93:98   */\n      dup2\n        /* \"#utility.yul\":87:99   */\n      mload\n        /* \"#utility.yul\":77:99   */\n      swap1\n      pop\n        /* \"#utility.yul\":7:106   */\n      swap2\n      swap1\n      pop\n      jump\t// out\n        /* \"#utility.yul\":112:281   */\n    tag_35:\n        /* \"#utility.yul\":196:207   */\n      0x00\n        /* \"#utility.yul\":230:236   */\n      dup3\n        /* \"#utility.yul\":225:228   */\n      dup3\n        /* \"#utility.yul\":218:237   */\n      mstore\n        /* \"#utility.yul\":270:274   */\n      0x20\n        /* \"#utility.yul\":265:268   */\n      dup3\n        /* \"#utility.yul\":261:275   */\n      add\n        /* \"#utility.yul\":246:275   */\n      swap1\n      pop\n        /* \"#utility.yul\":112:281   */\n      swap3\n      swap2\n      pop\n      pop\n      jump\t// out\n        /* \"#utility.yul\":287:533   */\n    tag_36:\n        /* \"#utility.yul\":368:369   */\n      0x00\n        /* \"#utility.yul\":378:491   */\n    tag_76:\n        /* \"#utility.yul\":392:398   */\n      dup4\n        /* \"#utility.yul\":389:390   */\n      dup2\n        /* \"#utility.yul\":386:399   */\n      lt\n        /* \"#utility.yul\":378:491   */\n      iszero\n      tag_78\n      jumpi\n        /* \"#utility.yul\":477:478   */\n      dup1\n        /* \"#utility.yul\":472:475   */\n      dup3\n        /* \"#utility.yul\":468:479   */\n      add\n        /* \"#utility.yul\":462:480   */\n      mload\n        /* \"#utility.yul\":458:459   */\n      dup2\n        /* \"#utility.yul\":453:456   */\n      dup5\n        /* \"#utility.yul\":449:460   */\n      add\n        /* \"#utility.yul\":442:481   */\n      mstore\n        /* \"#utility.yul\":414:416   */\n      0x20\n        /* \"#utility.yul\":411:412   */\n      dup2\n        /* \"#utility.yul\":407:417   */\n      add\n        /* \"#utility.yul\":402:417   */\n      swap1\n      pop\n        /* \"#utility.yul\":378:491   */\n      jump(tag_76)\n    tag_78:\n        /* \"#utility.yul\":525:526   */\n      0x00\n        /* \"#utility.yul\":516:522   */\n      dup5\n        /* \"#utility.yul\":511:514   */\n      dup5\n        /* \"#utility.yul\":507:523   */\n      add\n        /* \"#utility.yul\":500:527   */\n      mstore\n        /* \"#utility.yul\":349:533   */\n      pop\n        /* \"#utility.yul\":287:533   */\n      pop\n      pop\n      pop\n      jump\t// out\n        /* \"#utility.yul\":539:641   */\n    tag_37:\n        /* \"#utility.yul\":580:586   */\n      0x00\n        /* \"#utility.yul\":631:633   */\n      0x1f\n        /* \"#utility.yul\":627:634   */\n      not\n        /* \"#utility.yul\":622:624   */\n      0x1f\n        /* \"#utility.yul\":615:620   */\n      dup4\n        /* \"#utility.yul\":611:625   */\n      add\n        /* \"#utility.yul\":607:635   */\n      and\n        /* \"#utility.yul\":597:635   */\n      swap1\n      pop\n        /* \"#utility.yul\":539:641   */\n      swap2\n      swap1\n      pop\n      jump\t// out\n        /* \"#utility.yul\":647:1024   */\n    tag_38:\n        /* \"#utility.yul\":735:738   */\n      0x00\n        /* \"#utility.yul\":763:802   */\n      tag_81\n        /* \"#utility.yul\":796:801   */\n      dup3\n        /* \"#utility.yul\":763:802   */\n      tag_34\n      jump\t// in\n    tag_81:\n        /* \"#utility.yul\":818:889   */\n      tag_82\n        /* \"#utility.yul\":882:888   */\n      dup2\n        /* \"#utility.yul\":877:880   */\n      dup6\n        /* \"#utility.yul\":818:889   */\n      tag_35\n      jump\t// in\n    tag_82:\n        /* \"#utility.yul\":811:889   */\n      swap4\n      pop\n        /* \"#utility.yul\":898:963   */\n      tag_83\n        /* \"#utility.yul\":956:962   */\n      dup2\n        /* \"#utility.yul\":951:954   */\n      dup6\n        /* \"#utility.yul\":944:948   */\n      0x20\n        /* \"#utility.yul\":937:942   */\n      dup7\n        /* \"#utility.yul\":933:949   */\n      add\n        /* \"#utility.yul\":898:963   */\n      tag_36\n      jump\t// in\n    tag_83:\n        /* \"#utility.yul\":988:1017   */\n      tag_84\n        /* \"#utility.yul\":1010:1016   */\n      dup2\n        /* \"#utility.yul\":988:1017   */\n      tag_37\n      jump\t// in\n    tag_84:\n        /* \"#utility.yul\":983:986   */\n      dup5\n        /* \"#utility.yul\":979:1018   */\n      add\n        /* \"#utility.yul\":972:1018   */\n      swap2\n      pop\n        /* \"#utility.yul\":739:1024   */\n      pop\n        /* \"#utility.yul\":647:1024   */\n      swap3\n      swap2\n      pop\n      pop\n      jump\t// out\n        /* \"#utility.yul\":1030:1343   */\n    tag_9:\n        /* \"#utility.yul\":1143:1147   */\n      0x00\n        /* \"#utility.yul\":1181:1183   */\n      0x20\n        /* \"#utility.yul\":1170:1179   */\n      dup3\n        /* \"#utility.yul\":1166:1184   */\n      add\n        /* \"#utility.yul\":1158:1184   */\n      swap1\n      pop\n        /* \"#utility.yul\":1230:1239   */\n      dup2\n        /* \"#utility.yul\":1224:1228   */\n      dup2\n        /* \"#utility.yul\":1220:1240   */\n      sub\n        /* \"#utility.yul\":1216:1217   */\n      0x00\n        /* \"#utility.yul\":1205:1214   */\n      dup4\n        /* \"#utility.yul\":1201:1218   */\n      add\n        /* \"#utility.yul\":1194:1241   */\n      mstore\n        /* \"#utility.yul\":1258:1336   */\n      tag_86\n        /* \"#utility.yul\":1331:1335   */\n      dup2\n        /* \"#utility.yul\":1322:1328   */\n      dup5\n        /* \"#utility.yul\":1258:1336   */\n      tag_38\n      jump\t// in\n    tag_86:\n        /* \"#utility.yul\":1250:1336   */\n      swap1\n      pop\n        /* \"#utility.yul\":1030:1343   */\n      swap3\n      swap2\n      pop\n      pop\n      jump\t// out\n        /* \"#utility.yul\":1349:1424   */\n    tag_39:\n        /* \"#utility.yul\":1382:1388   */\n      0x00\n        /* \"#utility.yul\":1415:1417   */\n      0x40\n        /* \"#utility.yul\":1409:1418   */\n      mload\n        /* \"#utility.yul\":1399:1418   */\n      swap1\n      pop\n        /* \"#utility.yul\":1349:1424   */\n      swap1\n      jump\t// out\n        /* \"#utility.yul\":1430:1547   */\n    tag_40:\n        /* \"#utility.yul\":1539:1540   */\n      0x00\n        /* \"#utility.yul\":1536:1537   */\n      dup1\n        /* \"#utility.yul\":1529:1541   */\n      revert\n        /* \"#utility.yul\":1553:1670   */\n    tag_41:\n        /* \"#utility.yul\":1662:1663   */\n      0x00\n        /* \"#utility.yul\":1659:1660   */\n      dup1\n        /* \"#utility.yul\":1652:1664   */\n      revert\n        /* \"#utility.yul\":1676:1802   */\n    tag_42:\n        /* \"#utility.yul\":1713:1720   */\n      0x00\n        /* \"#utility.yul\":1753:1795   */\n      0xffffffffffffffffffffffffffffffffffffffff\n        /* \"#utility.yul\":1746:1751   */\n      dup3\n        /* \"#utility.yul\":1742:1796   */\n      and\n        /* \"#utility.yul\":1731:1796   */\n      swap1\n      pop\n        /* \"#utility.yul\":1676:1802   */\n      swap2\n      swap1\n      pop\n      jump\t// out\n        /* \"#utility.yul\":1808:1904   */\n    tag_43:\n        /* \"#utility.yul\":1845:1852   */\n      0x00\n        /* \"#utility.yul\":1874:1898   */\n      tag_92\n        /* \"#utility.yul\":1892:1897   */\n      dup3\n        /* \"#utility.yul\":1874:1898   */\n      tag_42\n      jump\t// in\n    tag_92:\n        /* \"#utility.yul\":1863:1898   */\n      swap1\n      pop\n        /* \"#utility.yul\":1808:1904   */\n      swap2\n      swap1\n      pop\n      jump\t// out\n        /* \"#utility.yul\":1910:2032   */\n    tag_44:\n        /* \"#utility.yul\":1983:2007   */\n      tag_94\n        /* \"#utility.yul\":2001:2006   */\n      dup2\n        /* \"#utility.yul\":1983:2007   */\n      tag_43\n      jump\t// in\n    tag_94:\n        /* \"#utility.yul\":1976:1981   */\n      dup2\n        /* \"#utility.yul\":1973:2008   */\n      eq\n        /* \"#utility.yul\":1963:2026   */\n      tag_95\n      jumpi\n        /* \"#utility.yul\":2022:2023   */\n      0x00\n        /* \"#utility.yul\":2019:2020   */\n      dup1\n        /* \"#utility.yul\":2012:2024   */\n      revert\n        /* \"#utility.yul\":1963:2026   */\n    tag_95:\n        /* \"#utility.yul\":1910:2032   */\n      pop\n      jump\t// out\n        /* \"#utility.yul\":2038:2177   */\n    tag_45:\n        /* \"#utility.yul\":2084:2089   */\n      0x00\n        /* \"#utility.yul\":2122:2128   */\n      dup2\n        /* \"#utility.yul\":2109:2129   */\n      calldataload\n        /* \"#utility.yul\":2100:2129   */\n      swap1\n      pop\n        /* \"#utility.yul\":2138:2171   */\n      tag_97\n        /* \"#utility.yul\":2165:2170   */\n      dup2\n        /* \"#utility.yul\":2138:2171   */\n      tag_44\n      jump\t// in\n    tag_97:\n        /* \"#utility.yul\":2038:2177   */\n      swap3\n      swap2\n      pop\n      pop\n      jump\t// out\n        /* \"#utility.yul\":2183:2512   */\n    tag_12:\n        /* \"#utility.yul\":2242:2248   */\n      0x00\n        /* \"#utility.yul\":2291:2293   */\n      0x20\n        /* \"#utility.yul\":2279:2288   */\n      dup3\n        /* \"#utility.yul\":2270:2277   */\n      dup5\n        /* \"#utility.yul\":2266:2289   */\n      sub\n        /* \"#utility.yul\":2262:2294   */\n      slt\n        /* \"#utility.yul\":2259:2378   */\n      iszero\n      tag_99\n      jumpi\n        /* \"#utility.yul\":2297:2376   */\n      tag_100\n      tag_40\n      jump\t// in\n    tag_100:\n        /* \"#utility.yul\":2259:2378   */\n    tag_99:\n        /* \"#utility.yul\":2417:2418   */\n      0x00\n        /* \"#utility.yul\":2442:2495   */\n      tag_101\n        /* \"#utility.yul\":2487:2494   */\n      dup5\n        /* \"#utility.yul\":2478:2484   */\n      dup3\n        /* \"#utility.yul\":2467:2476   */\n      dup6\n        /* \"#utility.yul\":2463:2485   */\n      add\n        /* \"#utility.yul\":2442:2495   */\n      tag_45\n      jump\t// in\n    tag_101:\n        /* \"#utility.yul\":2432:2495   */\n      swap2\n      pop\n        /* \"#utility.yul\":2388:2505   */\n      pop\n        /* \"#utility.yul\":2183:2512   */\n      swap3\n      swap2\n      pop\n      pop\n      jump\t// out\n        /* \"#utility.yul\":2518:2635   */\n    tag_46:\n        /* \"#utility.yul\":2627:2628   */\n      0x00\n        /* \"#utility.yul\":2624:2625   */\n      dup1\n        /* \"#utility.yul\":2617:2629   */\n      revert\n        /* \"#utility.yul\":2641:2758   */\n    tag_47:\n        /* \"#utility.yul\":2750:2751   */\n      0x00\n        /* \"#utility.yul\":2747:2748   */\n      dup1\n        /* \"#utility.yul\":2740:2752   */\n      revert\n        /* \"#utility.yul\":2764:2944   */\n    tag_48:\n        /* \"#utility.yul\":2812:2889   */\n      0x4e487b7100000000000000000000000000000000000000000000000000000000\n        /* \"#utility.yul\":2809:2810   */\n      0x00\n        /* \"#utility.yul\":2802:2890   */\n      mstore\n        /* \"#utility.yul\":2909:2913   */\n      0x41\n        /* \"#utility.yul\":2906:2907   */\n      0x04\n        /* \"#utility.yul\":2899:2914   */\n      mstore\n        /* \"#utility.yul\":2933:2937   */\n      0x24\n        /* \"#utility.yul\":2930:2931   */\n      0x00\n        /* \"#utility.yul\":2923:2938   */\n      revert\n        /* \"#utility.yul\":2950:3231   */\n    tag_49:\n        /* \"#utility.yul\":3033:3060   */\n      tag_106\n        /* \"#utility.yul\":3055:3059   */\n      dup3\n        /* \"#utility.yul\":3033:3060   */\n      tag_37\n      jump\t// in\n    tag_106:\n        /* \"#utility.yul\":3025:3031   */\n      dup2\n        /* \"#utility.yul\":3021:3061   */\n      add\n        /* \"#utility.yul\":3163:3169   */\n      dup2\n        /* \"#utility.yul\":3151:3161   */\n      dup2\n        /* \"#utility.yul\":3148:3170   */\n      lt\n        /* \"#utility.yul\":3127:3145   */\n      0xffffffffffffffff\n        /* \"#utility.yul\":3115:3125   */\n      dup3\n        /* \"#utility.yul\":3112:3146   */\n      gt\n        /* \"#utility.yul\":3109:3171   */\n      or\n        /* \"#utility.yul\":3106:3194   */\n      iszero\n      tag_107\n      jumpi\n        /* \"#utility.yul\":3174:3192   */\n      tag_108\n      tag_48\n      jump\t// in\n    tag_108:\n        /* \"#utility.yul\":3106:3194   */\n    tag_107:\n        /* \"#utility.yul\":3214:3224   */\n      dup1\n        /* \"#utility.yul\":3210:3212   */\n      0x40\n        /* \"#utility.yul\":3203:3225   */\n      mstore\n        /* \"#utility.yul\":2993:3231   */\n      pop\n        /* \"#utility.yul\":2950:3231   */\n      pop\n      pop\n      jump\t// out\n        /* \"#utility.yul\":3237:3366   */\n    tag_50:\n        /* \"#utility.yul\":3271:3277   */\n      0x00\n        /* \"#utility.yul\":3298:3318   */\n      tag_110\n      tag_39\n      jump\t// in\n    tag_110:\n        /* \"#utility.yul\":3288:3318   */\n      swap1\n      pop\n        /* \"#utility.yul\":3327:3360   */\n      tag_111\n        /* \"#utility.yul\":3355:3359   */\n      dup3\n        /* \"#utility.yul\":3347:3353   */\n      dup3\n        /* \"#utility.yul\":3327:3360   */\n      tag_49\n      jump\t// in\n    tag_111:\n        /* \"#utility.yul\":3237:3366   */\n      swap2\n      swap1\n      pop\n      jump\t// out\n        /* \"#utility.yul\":3372:3680   */\n    tag_51:\n        /* \"#utility.yul\":3434:3438   */\n      0x00\n        /* \"#utility.yul\":3524:3542   */\n      0xffffffffffffffff\n        /* \"#utility.yul\":3516:3522   */\n      dup3\n        /* \"#utility.yul\":3513:3543   */\n      gt\n        /* \"#utility.yul\":3510:3566   */\n      iszero\n      tag_113\n      jumpi\n        /* \"#utility.yul\":3546:3564   */\n      tag_114\n      tag_48\n      jump\t// in\n    tag_114:\n        /* \"#utility.yul\":3510:3566   */\n    tag_113:\n        /* \"#utility.yul\":3584:3613   */\n      tag_115\n        /* \"#utility.yul\":3606:3612   */\n      dup3\n        /* \"#utility.yul\":3584:3613   */\n      tag_37\n      jump\t// in\n    tag_115:\n        /* \"#utility.yul\":3576:3613   */\n      swap1\n      pop\n        /* \"#utility.yul\":3668:3672   */\n      0x20\n        /* \"#utility.yul\":3662:3666   */\n      dup2\n        /* \"#utility.yul\":3658:3673   */\n      add\n        /* \"#utility.yul\":3650:3673   */\n      swap1\n      pop\n        /* \"#utility.yul\":3372:3680   */\n      swap2\n      swap1\n      pop\n      jump\t// out\n        /* \"#utility.yul\":3686:3832   */\n    tag_52:\n        /* \"#utility.yul\":3783:3789   */\n      dup3\n        /* \"#utility.yul\":3778:3781   */\n      dup2\n        /* \"#utility.yul\":3773:3776   */\n      dup4\n        /* \"#utility.yul\":3760:3790   */\n      calldatacopy\n        /* \"#utility.yul\":3824:3825   */\n      0x00\n        /* \"#utility.yul\":3815:3821   */\n      dup4\n        /* \"#utility.yul\":3810:3813   */\n      dup4\n        /* \"#utility.yul\":3806:3822   */\n      add\n        /* \"#utility.yul\":3799:3826   */\n      mstore\n        /* \"#utility.yul\":3686:3832   */\n      pop\n      pop\n      pop\n      jump\t// out\n        /* \"#utility.yul\":3838:4263   */\n    tag_53:\n        /* \"#utility.yul\":3916:3921   */\n      0x00\n        /* \"#utility.yul\":3941:4007   */\n      tag_118\n        /* \"#utility.yul\":3957:4006   */\n      tag_119\n        /* \"#utility.yul\":3999:4005   */\n      dup5\n        /* \"#utility.yul\":3957:4006   */\n      tag_51\n      jump\t// in\n    tag_119:\n        /* \"#utility.yul\":3941:4007   */\n      tag_50\n      jump\t// in\n    tag_118:\n        /* \"#utility.yul\":3932:4007   */\n      swap1\n      pop\n        /* \"#utility.yul\":4030:4036   */\n      dup3\n        /* \"#utility.yul\":4023:4028   */\n      dup2\n        /* \"#utility.yul\":4016:4037   */\n      mstore\n        /* \"#utility.yul\":4068:4072   */\n      0x20\n        /* \"#utility.yul\":4061:4066   */\n      dup2\n        /* \"#utility.yul\":4057:4073   */\n      add\n        /* \"#utility.yul\":4106:4109   */\n      dup5\n        /* \"#utility.yul\":4097:4103   */\n      dup5\n        /* \"#utility.yul\":4092:4095   */\n      dup5\n        /* \"#utility.yul\":4088:4104   */\n      add\n        /* \"#utility.yul\":4085:4110   */\n      gt\n        /* \"#utility.yul\":4082:4194   */\n      iszero\n      tag_120\n      jumpi\n        /* \"#utility.yul\":4113:4192   */\n      tag_121\n      tag_47\n      jump\t// in\n    tag_121:\n        /* \"#utility.yul\":4082:4194   */\n    tag_120:\n        /* \"#utility.yul\":4203:4257   */\n      tag_122\n        /* \"#utility.yul\":4250:4256   */\n      dup5\n        /* \"#utility.yul\":4245:4248   */\n      dup3\n        /* \"#utility.yul\":4240:4243   */\n      dup6\n        /* \"#utility.yul\":4203:4257   */\n      tag_52\n      jump\t// in\n    tag_122:\n        /* \"#utility.yul\":3922:4263   */\n      pop\n        /* \"#utility.yul\":3838:4263   */\n      swap4\n      swap3\n      pop\n      pop\n      pop\n      jump\t// out\n        /* \"#utility.yul\":4283:4623   */\n    tag_54:\n        /* \"#utility.yul\":4339:4344   */\n      0x00\n        /* \"#utility.yul\":4388:4391   */\n      dup3\n        /* \"#utility.yul\":4381:4385   */\n      0x1f\n        /* \"#utility.yul\":4373:4379   */\n      dup4\n        /* \"#utility.yul\":4369:4386   */\n      add\n        /* \"#utility.yul\":4365:4392   */\n      slt\n        /* \"#utility.yul\":4355:4477   */\n      tag_124\n      jumpi\n        /* \"#utility.yul\":4396:4475   */\n      tag_125\n      tag_46\n      jump\t// in\n    tag_125:\n        /* \"#utility.yul\":4355:4477   */\n    tag_124:\n        /* \"#utility.yul\":4513:4519   */\n      dup2\n        /* \"#utility.yul\":4500:4520   */\n      calldataload\n        /* \"#utility.yul\":4538:4617   */\n      tag_126\n        /* \"#utility.yul\":4613:4616   */\n      dup5\n        /* \"#utility.yul\":4605:4611   */\n      dup3\n        /* \"#utility.yul\":4598:4602   */\n      0x20\n        /* \"#utility.yul\":4590:4596   */\n      dup7\n        /* \"#utility.yul\":4586:4603   */\n      add\n        /* \"#utility.yul\":4538:4617   */\n      tag_53\n      jump\t// in\n    tag_126:\n        /* \"#utility.yul\":4529:4617   */\n      swap2\n      pop\n        /* \"#utility.yul\":4345:4623   */\n      pop\n        /* \"#utility.yul\":4283:4623   */\n      swap3\n      swap2\n      pop\n      pop\n      jump\t// out\n        /* \"#utility.yul\":4629:5138   */\n    tag_17:\n        /* \"#utility.yul\":4698:4704   */\n      0x00\n        /* \"#utility.yul\":4747:4749   */\n      0x20\n        /* \"#utility.yul\":4735:4744   */\n      dup3\n        /* \"#utility.yul\":4726:4733   */\n      dup5\n        /* \"#utility.yul\":4722:4745   */\n      sub\n        /* \"#utility.yul\":4718:4750   */\n      slt\n        /* \"#utility.yul\":4715:4834   */\n      iszero\n      tag_128\n      jumpi\n        /* \"#utility.yul\":4753:4832   */\n      tag_129\n      tag_40\n      jump\t// in\n    tag_129:\n        /* \"#utility.yul\":4715:4834   */\n    tag_128:\n        /* \"#utility.yul\":4901:4902   */\n      0x00\n        /* \"#utility.yul\":4890:4899   */\n      dup3\n        /* \"#utility.yul\":4886:4903   */\n      add\n        /* \"#utility.yul\":4873:4904   */\n      calldataload\n        /* \"#utility.yul\":4931:4949   */\n      0xffffffffffffffff\n        /* \"#utility.yul\":4923:4929   */\n      dup2\n        /* \"#utility.yul\":4920:4950   */\n      gt\n        /* \"#utility.yul\":4917:5034   */\n      iszero\n      tag_130\n      jumpi\n        /* \"#utility.yul\":4953:5032   */\n      tag_131\n      tag_41\n      jump\t// in\n    tag_131:\n        /* \"#utility.yul\":4917:5034   */\n    tag_130:\n        /* \"#utility.yul\":5058:5121   */\n      tag_132\n        /* \"#utility.yul\":5113:5120   */\n      dup5\n        /* \"#utility.yul\":5104:5110   */\n      dup3\n        /* \"#utility.yul\":5093:5102   */\n      dup6\n        /* \"#utility.yul\":5089:5111   */\n      add\n        /* \"#utility.yul\":5058:5121   */\n      tag_54\n      jump\t// in\n    tag_132:\n        /* \"#utility.yul\":5048:5121   */\n      swap2\n      pop\n        /* \"#utility.yul\":4844:5131   */\n      pop\n        /* \"#utility.yul\":4629:5138   */\n      swap3\n      swap2\n      pop\n      pop\n      jump\t// out\n        /* \"#utility.yul\":5144:5324   */\n    tag_55:\n        /* \"#utility.yul\":5192:5269   */\n      0x4e487b7100000000000000000000000000000000000000000000000000000000\n        /* \"#utility.yul\":5189:5190   */\n      0x00\n        /* \"#utility.yul\":5182:5270   */\n      mstore\n        /* \"#utility.yul\":5289:5293   */\n      0x22\n        /* \"#utility.yul\":5286:5287   */\n      0x04\n        /* \"#utility.yul\":5279:5294   */\n      mstore\n        /* \"#utility.yul\":5313:5317   */\n      0x24\n        /* \"#utility.yul\":5310:5311   */\n      0x00\n        /* \"#utility.yul\":5303:5318   */\n      revert\n        /* \"#utility.yul\":5330:5650   */\n    tag_21:\n        /* \"#utility.yul\":5374:5380   */\n      0x00\n        /* \"#utility.yul\":5411:5412   */\n      0x02\n        /* \"#utility.yul\":5405:5409   */\n      dup3\n        /* \"#utility.yul\":5401:5413   */\n      div\n        /* \"#utility.yul\":5391:5413   */\n      swap1\n      pop\n        /* \"#utility.yul\":5458:5459   */\n      0x01\n        /* \"#utility.yul\":5452:5456   */\n      dup3\n        /* \"#utility.yul\":5448:5460   */\n      and\n        /* \"#utility.yul\":5479:5497   */\n      dup1\n        /* \"#utility.yul\":5469:5550   */\n      tag_135\n      jumpi\n        /* \"#utility.yul\":5535:5539   */\n      0x7f\n        /* \"#utility.yul\":5527:5533   */\n      dup3\n        /* \"#utility.yul\":5523:5540   */\n      and\n        /* \"#utility.yul\":5513:5540   */\n      swap2\n      pop\n        /* \"#utility.yul\":5469:5550   */\n    tag_135:\n        /* \"#utility.yul\":5597:5599   */\n      0x20\n        /* \"#utility.yul\":5589:5595   */\n      dup3\n        /* \"#utility.yul\":5586:5600   */\n      lt\n        /* \"#utility.yul\":5566:5584   */\n      dup2\n        /* \"#utility.yul\":5563:5601   */\n      sub\n        /* \"#utility.yul\":5560:5644   */\n      tag_136\n      jumpi\n        /* \"#utility.yul\":5616:5634   */\n      tag_137\n      tag_55\n      jump\t// in\n    tag_137:\n        /* \"#utility.yul\":5560:5644   */\n    tag_136:\n        /* \"#utility.yul\":5381:5650   */\n      pop\n        /* \"#utility.yul\":5330:5650   */\n      swap2\n      swap1\n      pop\n      jump\t// out\n        /* \"#utility.yul\":5656:5797   */\n    tag_56:\n        /* \"#utility.yul\":5705:5709   */\n      0x00\n        /* \"#utility.yul\":5728:5731   */\n      dup2\n        /* \"#utility.yul\":5720:5731   */\n      swap1\n      pop\n        /* \"#utility.yul\":5751:5754   */\n      dup2\n        /* \"#utility.yul\":5748:5749   */\n      0x00\n        /* \"#utility.yul\":5741:5755   */\n      mstore\n        /* \"#utility.yul\":5785:5789   */\n      0x20\n        /* \"#utility.yul\":5782:5783   */\n      0x00\n        /* \"#utility.yul\":5772:5790   */\n      keccak256\n        /* \"#utility.yul\":5764:5790   */\n      swap1\n      pop\n        /* \"#utility.yul\":5656:5797   */\n      swap2\n      swap1\n      pop\n      jump\t// out\n        /* \"#utility.yul\":5803:5896   */\n    tag_57:\n        /* \"#utility.yul\":5840:5846   */\n      0x00\n        /* \"#utility.yul\":5887:5889   */\n      0x20\n        /* \"#utility.yul\":5882:5884   */\n      0x1f\n        /* \"#utility.yul\":5875:5880   */\n      dup4\n        /* \"#utility.yul\":5871:5885   */\n      add\n        /* \"#utility.yul\":5867:5890   */\n      div\n        /* \"#utility.yul\":5857:5890   */\n      swap1\n      pop\n        /* \"#utility.yul\":5803:5896   */\n      swap2\n      swap1\n      pop\n      jump\t// out\n        /* \"#utility.yul\":5902:6009   */\n    tag_58:\n        /* \"#utility.yul\":5946:5954   */\n      0x00\n        /* \"#utility.yul\":5996:6001   */\n      dup3\n        /* \"#utility.yul\":5990:5994   */\n      dup3\n        /* \"#utility.yul\":5986:6002   */\n      shl\n        /* \"#utility.yul\":5965:6002   */\n      swap1\n      pop\n        /* \"#utility.yul\":5902:6009   */\n      swap3\n      swap2\n      pop\n      pop\n      jump\t// out\n        /* \"#utility.yul\":6015:6408   */\n    tag_59:\n        /* \"#utility.yul\":6084:6090   */\n      0x00\n        /* \"#utility.yul\":6134:6135   */\n      0x08\n        /* \"#utility.yul\":6122:6132   */\n      dup4\n        /* \"#utility.yul\":6118:6136   */\n      mul\n        /* \"#utility.yul\":6157:6254   */\n      tag_142\n        /* \"#utility.yul\":6187:6253   */\n      0xffffffffffffffffffffffffffffffffffffffffffffffffffffffffffffffff\n        /* \"#utility.yul\":6176:6185   */\n      dup3\n        /* \"#utility.yul\":6157:6254   */\n      tag_58\n      jump\t// in\n    tag_142:\n        /* \"#utility.yul\":6275:6314   */\n      tag_143\n        /* \"#utility.yul\":6305:6313   */\n      dup7\n        /* \"#utility.yul\":6294:6303   */\n      dup4\n        /* \"#utility.yul\":6275:6314   */\n      tag_58\n      jump\t// in\n    tag_143:\n        /* \"#utility.yul\":6263:6314   */\n      swap6\n      pop\n        /* \"#utility.yul\":6347:6351   */\n      dup1\n        /* \"#utility.yul\":6343:6352   */\n      not\n        /* \"#utility.yul\":6336:6341   */\n      dup5\n        /* \"#utility.yul\":6332:6353   */\n      and\n        /* \"#utility.yul\":6323:6353   */\n      swap4\n      pop\n        /* \"#utility.yul\":6396:6400   */\n      dup1\n        /* \"#utility.yul\":6386:6394   */\n      dup7\n        /* \"#utility.yul\":6382:6401   */\n      and\n        /* \"#utility.yul\":6375:6380   */\n      dup5\n        /* \"#utility.yul\":6372:6402   */\n      or\n        /* \"#utility.yul\":6362:6402   */\n      swap3\n      pop\n        /* \"#utility.yul\":6091:6408   */\n      pop\n      pop\n        /* \"#utility.yul\":6015:6408   */\n      swap4\n      swap3\n      pop\n      pop\n      pop\n      jump\t// out\n        /* \"#utility.yul\":6414:6491   */\n    tag_60:\n        /* \"#utility.yul\":6451:6458   */\n      0x00\n        /* \"#utility.yul\":6480:6485   */\n      dup2\n        /* \"#utility.yul\":6469:6485   */\n      swap1\n      pop\n        /* \"#utility.yul\":6414:6491   */\n      swap2\n      swap1\n      pop\n      jump\t// out\n        /* \"#utility.yul\":6497:6557   */\n    tag_61:\n        /* \"#utility.yul\":6525:6528   */\n      0x00\n        /* \"#utility.yul\":6546:6551   */\n      dup2\n        /* \"#utility.yul\":6539:6551   */\n      swap1\n      pop\n        /* \"#utility.yul\":6497:6557   */\n      swap2\n      swap1\n      pop\n      jump\t// out\n        /* \"#utility.yul\":6563:6705   */\n    tag_62:\n        /* \"#utility.yul\":6613:6622   */\n      0x00\n        /* \"#utility.yul\":6646:6699   */\n      tag_147\n        /* \"#utility.yul\":6664:6698   */\n      tag_148\n        /* \"#utility.yul\":6673:6697   */\n      tag_149\n        /* \"#utility.yul\":6691:6696   */\n      dup5\n        /* \"#utility.yul\":6673:6697   */\n      tag_60\n      jump\t// in\n    tag_149:\n        /* \"#utility.yul\":6664:6698   */\n      tag_61\n      jump\t// in\n    tag_148:\n        /* \"#utility.yul\":6646:6699   */\n      tag_60\n      jump\t// in\n    tag_147:\n        /* \"#utility.yul\":6633:6699   */\n      swap1\n      pop\n        /* \"#utility.yul\":6563:6705   */\n      swap2\n      swap1\n      pop\n      jump\t// out\n        /* \"#utility.yul\":6711:6786   */\n    tag_63:\n        /* \"#utility.yul\":6754:6757   */\n      0x00\n        /* \"#utility.yul\":6775:6780   */\n      dup2\n        /* \"#utility.yul\":6768:6780   */\n      swap1\n      pop\n        /* \"#utility.yul\":6711:6786   */\n      swap2\n      swap1\n      pop\n      jump\t// out\n        /* \"#utility.yul\":6792:7061   */\n    tag_64:\n        /* \"#utility.yul\":6902:6941   */\n      tag_152\n        /* \"#utility.yul\":6933:6940   */\n      dup4\n        /* \"#utility.yul\":6902:6941   */\n      tag_62\n      jump\t// in\n    tag_152:\n        /* \"#utility.yul\":6963:7054   */\n      tag_153\n        /* \"#utility.yul\":7012:7053   */\n      tag_154\n        /* \"#utility.yul\":7036:7052   */\n      dup3\n        /* \"#utility.yul\":7012:7053   */\n      tag_63\n      jump\t// in\n    tag_154:\n        /* \"#utility.yul\":7004:7010   */\n      dup5\n        /* \"#utility.yul\":6997:7001   */\n      dup5\n        /* \"#utility.yul\":6991:7002   */\n      sload\n        /* \"#utility.yul\":6963:7054   */\n      tag_59\n      jump\t// in\n    tag_153:\n        /* \"#utility.yul\":6957:6961   */\n      dup3\n        /* \"#utility.yul\":6950:7055   */\n      sstore\n        /* \"#utility.yul\":6868:7061   */\n      pop\n        /* \"#utility.yul\":6792:7061   */\n      pop\n      pop\n      pop\n      jump\t// out\n        /* \"#utility.yul\":7067:7140   */\n    tag_65:\n        /* \"#utility.yul\":7112:7115   */\n      0x00\n        /* \"#utility.yul\":7067:7140   */\n      swap1\n      jump\t// out\n        /* \"#utility.yul\":7146:7335   */\n    tag_66:\n        /* \"#utility.yul\":7223:7255   */\n      tag_157\n      tag_65\n      jump\t// in\n    tag_157:\n        /* \"#utility.yul\":7264:7329   */\n      tag_158\n        /* \"#utility.yul\":7322:7328   */\n      dup2\n        /* \"#utility.yul\":7314:7320   */\n      dup5\n        /* \"#utility.yul\":7308:7312   */\n      dup5\n        /* \"#utility.yul\":7264:7329   */\n      tag_64\n      jump\t// in\n    tag_158:\n        /* \"#utility.yul\":7199:7335   */\n      pop\n        /* \"#utility.yul\":7146:7335   */\n      pop\n      pop\n      jump\t// out\n        /* \"#utility.yul\":7341:7527   */\n    tag_67:\n        /* \"#utility.yul\":7401:7521   */\n    tag_160:\n        /* \"#utility.yul\":7418:7421   */\n      dup2\n        /* \"#utility.yul\":7411:7416   */\n      dup2\n        /* \"#utility.yul\":7408:7422   */\n      lt\n        /* \"#utility.yul\":7401:7521   */\n      iszero\n      tag_162\n      jumpi\n        /* \"#utility.yul\":7472:7511   */\n      tag_163\n        /* \"#utility.yul\":7509:7510   */\n      0x00\n        /* \"#utility.yul\":7502:7507   */\n      dup3\n        /* \"#utility.yul\":7472:7511   */\n      tag_66\n      jump\t// in\n    tag_163:\n        /* \"#utility.yul\":7445:7446   */\n      0x01\n        /* \"#utility.yul\":7438:7443   */\n      dup2\n        /* \"#utility.yul\":7434:7447   */\n      add\n        /* \"#utility.yul\":7425:7447   */\n      swap1\n      pop\n        /* \"#utility.yul\":7401:7521   */\n      jump(tag_160)\n    tag_162:\n        /* \"#utility.yul\":7341:7527   */\n      pop\n      pop\n      jump\t// out\n        /* \"#utility.yul\":7533:8076   */\n    tag_68:\n        /* \"#utility.yul\":7634:7636   */\n      0x1f\n        /* \"#utility.yul\":7629:7632   */\n      dup3\n        /* \"#utility.yul\":7626:7637   */\n      gt\n        /* \"#utility.yul\":7623:8069   */\n      iszero\n      tag_165\n      jumpi\n        /* \"#utility.yul\":7668:7706   */\n      tag_166\n        /* \"#utility.yul\":7700:7705   */\n      dup2\n        /* \"#utility.yul\":7668:7706   */\n      tag_56\n      jump\t// in\n    tag_166:\n        /* \"#utility.yul\":7752:7781   */\n      tag_167\n        /* \"#utility.yul\":7770:7780   */\n      dup5\n        /* \"#utility.yul\":7752:7781   */\n      tag_57\n      jump\t// in\n    tag_167:\n        /* \"#utility.yul\":7742:7750   */\n      dup2\n        /* \"#utility.yul\":7738:7782   */\n      add\n        /* \"#utility.yul\":7935:7937   */\n      0x20\n        /* \"#utility.yul\":7923:7933   */\n      dup6\n        /* \"#utility.yul\":7920:7938   */\n      lt\n        /* \"#utility.yul\":7917:7966   */\n      iszero\n      tag_168\n      jumpi\n        /* \"#utility.yul\":7956:7964   */\n      dup2\n        /* \"#utility.yul\":7941:7964   */\n      swap1\n      pop\n        /* \"#utility.yul\":7917:7966   */\n    tag_168:\n        /* \"#utility.yul\":7979:8059   */\n      tag_169\n        /* \"#utility.yul\":8035:8057   */\n      tag_170\n        /* \"#utility.yul\":8053:8056   */\n      dup6\n        /* \"#utility.yul\":8035:8057   */\n      tag_57\n      jump\t// in\n    tag_170:\n        /* \"#utility.yul\":8025:8033   */\n      dup4\n        /* \"#utility.yul\":8021:8058   */\n      add\n        /* \"#utility.yul\":8008:8019   */\n      dup3\n        /* \"#utility.yul\":7979:8059   */\n      tag_67\n      jump\t// in\n    tag_169:\n        /* \"#utility.yul\":7638:8069   */\n      pop\n      pop\n        /* \"#utility.yul\":7623:8069   */\n    tag_165:\n        /* \"#utility.yul\":7533:8076   */\n      pop\n      pop\n      pop\n      jump\t// out\n        /* \"#utility.yul\":8082:8199   */\n    tag_69:\n        /* \"#utility.yul\":8136:8144   */\n      0x00\n        /* \"#utility.yul\":8186:8191   */\n      dup3\n        /* \"#utility.yul\":8180:8184   */\n      dup3\n        /* \"#utility.yul\":8176:8192   */\n      shr\n        /* \"#utility.yul\":8155:8192   */\n      swap1\n      pop\n        /* \"#utility.yul\":8082:8199   */\n      swap3\n      swap2\n      pop\n      pop\n      jump\t// out\n        /* \"#utility.yul\":8205:8374   */\n    tag_70:\n        /* \"#utility.yul\":8249:8255   */\n      0x00\n        /* \"#utility.yul\":8282:8333   */\n      tag_173\n        /* \"#utility.yul\":8330:8331   */\n      0x00\n        /* \"#utility.yul\":8326:8332   */\n      not\n        /* \"#utility.yul\":8318:8323   */\n      dup5\n        /* \"#utility.yul\":8315:8316   */\n      0x08\n        /* \"#utility.yul\":8311:8324   */\n      mul\n        /* \"#utility.yul\":8282:8333   */\n      tag_69\n      jump\t// in\n    tag_173:\n        /* \"#utility.yul\":8278:8334   */\n      not\n        /* \"#utility.yul\":8363:8367   */\n      dup1\n        /* \"#utility.yul\":8357:8361   */\n      dup4\n        /* \"#utility.yul\":8353:8368   */\n      and\n        /* \"#utility.yul\":8343:8368   */\n      swap2\n      pop\n        /* \"#utility.yul\":8256:8374   */\n      pop\n        /* \"#utility.yul\":8205:8374   */\n      swap3\n      swap2\n      pop\n      pop\n      jump\t// out\n        /* \"#utility.yul\":8379:8674   */\n    tag_71:\n        /* \"#utility.yul\":8455:8459   */\n      0x00\n        /* \"#utility.yul\":8601:8630   */\n      tag_175\n        /* \"#utility.yul\":8626:8629   */\n      dup4\n        /* \"#utility.yul\":8620:8624   */\n      dup4\n        /* \"#utility.yul\":8601:8630   */\n      tag_70\n      jump\t// in\n    tag_175:\n        /* \"#utility.yul\":8593:8630   */\n      swap2\n      pop\n        /* \"#utility.yul\":8663:8666   */\n      dup3\n        /* \"#utility.yul\":8660:8661   */\n      0x02\n        /* \"#utility.yul\":8656:8667   */\n      mul\n        /* \"#utility.yul\":8650:8654   */\n      dup3\n        /* \"#utility.yul\":8647:8668   */\n      or\n        /* \"#utility.yul\":8639:8668   */\n      swap1\n      pop\n        /* \"#utility.yul\":8379:8674   */\n      swap3\n      swap2\n      pop\n      pop\n      jump\t// out\n        /* \"#utility.yul\":8679:10074   */\n    tag_33:\n        /* \"#utility.yul\":8796:8833   */\n      tag_177\n        /* \"#utility.yul\":8829:8832   */\n      dup3\n        /* \"#utility.yul\":8796:8833   */\n      tag_34\n      jump\t// in\n    tag_177:\n        /* \"#utility.yul\":8898:8916   */\n      0xffffffffffffffff\n        /* \"#utility.yul\":8890:8896   */\n      dup2\n        /* \"#utility.yul\":8887:8917   */\n      gt\n        /* \"#utility.yul\":8884:8940   */\n      iszero\n      tag_178\n      jumpi\n        /* \"#utility.yul\":8920:8938   */\n      tag_179\n      tag_48\n      jump\t// in\n    tag_179:\n        /* \"#utility.yul\":8884:8940   */\n    tag_178:\n        /* \"#utility.yul\":8964:9002   */\n      tag_180\n        /* \"#utility.yul\":8996:9000   */\n      dup3\n        /* \"#utility.yul\":8990:9001   */\n      sload\n        /* \"#utility.yul\":8964:9002   */\n      tag_21\n      jump\t// in\n    tag_180:\n        /* \"#utility.yul\":9049:9116   */\n      tag_181\n        /* \"#utility.yul\":9109:9115   */\n      dup3\n        /* \"#utility.yul\":9101:9107   */\n      dup3\n        /* \"#utility.yul\":9095:9099   */\n      dup6\n        /* \"#utility.yul\":9049:9116   */\n      tag_68\n      jump\t// in\n    tag_181:\n        /* \"#utility.yul\":9143:9144   */\n      0x00\n        /* \"#utility.yul\":9167:9171   */\n      0x20\n        /* \"#utility.yul\":9154:9171   */\n      swap1\n      pop\n        /* \"#utility.yul\":9199:9201   */\n      0x1f\n        /* \"#utility.yul\":9191:9197   */\n      dup4\n        /* \"#utility.yul\":9188:9202   */\n      gt\n        /* \"#utility.yul\":9216:9217   */\n      0x01\n        /* \"#utility.yul\":9211:9829   */\n      dup2\n      eq\n      tag_183\n      jumpi\n        /* \"#utility.yul\":9873:9874   */\n      0x00\n        /* \"#utility.yul\":9890:9896   */\n      dup5\n        /* \"#utility.yul\":9887:9964   */\n      iszero\n      tag_184\n      jumpi\n        /* \"#utility.yul\":9939:9948   */\n      dup3\n        /* \"#utility.yul\":9934:9937   */\n      dup8\n        /* \"#utility.yul\":9930:9949   */\n      add\n        /* \"#utility.yul\":9924:9950   */\n      mload\n        /* \"#utility.yul\":9915:9950   */\n      swap1\n      pop\n        /* \"#utility.yul\":9887:9964   */\n    tag_184:\n        /* \"#utility.yul\":9990:10057   */\n      tag_185\n        /* \"#utility.yul\":10050:10056   */\n      dup6\n        /* \"#utility.yul\":10043:10048   */\n      dup3\n        /* \"#utility.yul\":9990:10057   */\n      tag_71\n      jump\t// in\n    tag_185:\n        /* \"#utility.yul\":9984:9988   */\n      dup7\n        /* \"#utility.yul\":9977:10058   */\n      sstore\n        /* \"#utility.yul\":9846:10068   */\n      pop\n        /* \"#utility.yul\":9181:10068   */\n      jump(tag_182)\n        /* \"#utility.yul\":9211:9829   */\n    tag_183:\n        /* \"#utility.yul\":9263:9267   */\n      0x1f\n        /* \"#utility.yul\":9259:9268   */\n      not\n        /* \"#utility.yul\":9251:9257   */\n      dup5\n        /* \"#utility.yul\":9247:9269   */\n      and\n        /* \"#utility.yul\":9297:9334   */\n      tag_186\n        /* \"#utility.yul\":9329:9333   */\n      dup7\n        /* \"#utility.yul\":9297:9334   */\n      tag_56\n      jump\t// in\n    tag_186:\n        /* \"#utility.yul\":9356:9357   */\n      0x00\n        /* \"#utility.yul\":9370:9578   */\n    tag_187:\n        /* \"#utility.yul\":9384:9391   */\n      dup3\n        /* \"#utility.yul\":9381:9382   */\n      dup2\n        /* \"#utility.yul\":9378:9392   */\n      lt\n        /* \"#utility.yul\":9370:9578   */\n      iszero\n      tag_189\n      jumpi\n        /* \"#utility.yul\":9463:9472   */\n      dup5\n        /* \"#utility.yul\":9458:9461   */\n      dup10\n        /* \"#utility.yul\":9454:9473   */\n      add\n        /* \"#utility.yul\":9448:9474   */\n      mload\n        /* \"#utility.yul\":9440:9446   */\n      dup3\n        /* \"#utility.yul\":9433:9475   */\n      sstore\n        /* \"#utility.yul\":9514:9515   */\n      0x01\n        /* \"#utility.yul\":9506:9512   */\n      dup3\n        /* \"#utility.yul\":9502:9516   */\n      add\n        /* \"#utility.yul\":9492:9516   */\n      swap2\n      pop\n        /* \"#utility.yul\":9561:9563   */\n      0x20\n        /* \"#utility.yul\":9550:9559   */\n      dup6\n        /* \"#utility.yul\":9546:9564   */\n      add\n        /* \"#utility.yul\":9533:9564   */\n      swap5\n      pop\n        /* \"#utility.yul\":9407:9411   */\n      0x20\n        /* \"#utility.yul\":9404:9405   */\n      dup2\n        /* \"#utility.yul\":9400:9412   */\n      add\n        /* \"#utility.yul\":9395:9412   */\n      swap1\n      pop\n        /* \"#utility.yul\":9370:9578   */\n      jump(tag_187)\n    tag_189:\n        /* \"#utility.yul\":9606:9612   */\n      dup7\n        /* \"#utility.yul\":9597:9604   */\n      dup4\n        /* \"#utility.yul\":9594:9613   */\n      lt\n        /* \"#utility.yul\":9591:9770   */\n      iszero\n      tag_190\n      jumpi\n        /* \"#utility.yul\":9664:9673   */\n      dup5\n        /* \"#utility.yul\":9659:9662   */\n      dup10\n        /* \"#utility.yul\":9655:9674   */\n      add\n        /* \"#utility.yul\":9649:9675   */\n      mload\n        /* \"#utility.yul\":9707:9755   */\n      tag_191\n        /* \"#utility.yul\":9749:9753   */\n      0x1f\n        /* \"#utility.yul\":9741:9747   */\n      dup10\n        /* \"#utility.yul\":9737:9754   */\n      and\n        /* \"#utility.yul\":9726:9735   */\n      dup3\n        /* \"#utility.yul\":9707:9755   */\n      tag_70\n      jump\t// in\n    tag_191:\n        /* \"#utility.yul\":9699:9705   */\n      dup4\n        /* \"#utility.yul\":9692:9756   */\n      sstore\n        /* \"#utility.yul\":9614:9770   */\n      pop\n        /* \"#utility.yul\":9591:9770   */\n    tag_190:\n        /* \"#utility.yul\":9816:9817   */\n      0x01\n        /* \"#utility.yul\":9812:9813   */\n      0x02\n        /* \"#utility.yul\":9804:9810   */\n      dup9\n        /* \"#utility.yul\":9800:9814   */\n      mul\n        /* \"#utility.yul\":9796:9818   */\n      add\n        /* \"#utility.yul\":9790:9794   */\n      dup9\n        /* \"#utility.yul\":9783:9819   */\n      sstore\n        /* \"#utility.yul\":9218:9829   */\n      pop\n      pop\n      pop\n        /* \"#utility.yul\":9181:10068   */\n    tag_182:\n      pop\n        /* \"#utility.yul\":8771:10074   */\n      pop\n      pop\n      pop\n        /* \"#utility.yul\":8679:10074   */\n      pop\n      pop\n      jump\t// out\n\n    auxdata: 0xa2646970667358221220a574dbca9b91cbbcfd907773e6210623f95c672b8209b0ff343fae0523e23e9264736f6c63430008160033\n}\n",
				"bytecode": {
					"linkReferences": {},
					"object": "608060405234801561000f575f80fd5b506108198061001d5f395ff3fe608060405234801561000f575f80fd5b506004361061003f575f3560e01c806317d7de7c146100435780635cf3d34614610061578063c47f002714610091575b5f80fd5b61004b6100ad565b60405161005891906102e8565b60405180910390f35b61007b60048036038101906100769190610373565b610177565b60405161008891906102e8565b60405180910390f35b6100ab60048036038101906100a691906104ca565b610211565b005b60605f803373ffffffffffffffffffffffffffffffffffffffff1673ffffffffffffffffffffffffffffffffffffffff1681526020019081526020015f2080546100f69061053e565b80601f01602080910402602001604051908101604052809291908181526020018280546101229061053e565b801561016d5780601f106101445761010080835404028352916020019161016d565b820191905f5260205f20905b81548152906001019060200180831161015057829003601f168201915b5050505050905090565b5f602052805f5260405f205f9150905080546101929061053e565b80601f01602080910402602001604051908101604052809291908181526020018280546101be9061053e565b80156102095780601f106101e057610100808354040283529160200191610209565b820191905f5260205f20905b8154815290600101906020018083116101ec57829003601f168201915b505050505081565b805f803373ffffffffffffffffffffffffffffffffffffffff1673ffffffffffffffffffffffffffffffffffffffff1681526020019081526020015f20908161025a9190610714565b5050565b5f81519050919050565b5f82825260208201905092915050565b5f5b8381101561029557808201518184015260208101905061027a565b5f8484015250505050565b5f601f19601f8301169050919050565b5f6102ba8261025e565b6102c48185610268565b93506102d4818560208601610278565b6102dd816102a0565b840191505092915050565b5f6020820190508181035f83015261030081846102b0565b905092915050565b5f604051905090565b5f80fd5b5f80fd5b5f73ffffffffffffffffffffffffffffffffffffffff82169050919050565b5f61034282610319565b9050919050565b61035281610338565b811461035c575f80fd5b50565b5f8135905061036d81610349565b92915050565b5f6020828403121561038857610387610311565b5b5f6103958482850161035f565b91505092915050565b5f80fd5b5f80fd5b7f4e487b71000000000000000000000000000000000000000000000000000000005f52604160045260245ffd5b6103dc826102a0565b810181811067ffffffffffffffff821117156103fb576103fa6103a6565b5b80604052505050565b5f61040d610308565b905061041982826103d3565b919050565b5f67ffffffffffffffff821115610438576104376103a6565b5b610441826102a0565b9050602081019050919050565b828183375f83830152505050565b5f61046e6104698461041e565b610404565b90508281526020810184848401111561048a576104896103a2565b5b61049584828561044e565b509392505050565b5f82601f8301126104b1576104b061039e565b5b81356104c184826020860161045c565b91505092915050565b5f602082840312156104df576104de610311565b5b5f82013567ffffffffffffffff8111156104fc576104fb610315565b5b6105088482850161049d565b91505092915050565b7f4e487b71000000000000000000000000000000000000000000000000000000005f52602260045260245ffd5b5f600282049050600182168061055557607f821691505b60208210810361056857610567610511565b5b50919050565b5f819050815f5260205f209050919050565b5f6020601f8301049050919050565b5f82821b905092915050565b5f600883026105ca7fffffffffffffffffffffffffffffffffffffffffffffffffffffffffffffffff8261058f565b6105d4868361058f565b95508019841693508086168417925050509392505050565b5f819050919050565b5f819050919050565b5f61061861061361060e846105ec565b6105f5565b6105ec565b9050919050565b5f819050919050565b610631836105fe565b61064561063d8261061f565b84845461059b565b825550505050565b5f90565b61065961064d565b610664818484610628565b505050565b5b818110156106875761067c5f82610651565b60018101905061066a565b5050565b601f8211156106cc5761069d8161056e565b6106a684610580565b810160208510156106b5578190505b6106c96106c185610580565b830182610669565b50505b505050565b5f82821c905092915050565b5f6106ec5f19846008026106d1565b1980831691505092915050565b5f61070483836106dd565b9150826002028217905092915050565b61071d8261025e565b67ffffffffffffffff811115610736576107356103a6565b5b610740825461053e565b61074b82828561068b565b5f60209050601f83116001811461077c575f841561076a578287015190505b61077485826106f9565b8655506107db565b601f19841661078a8661056e565b5f5b828110156107b15784890151825560018201915060208501945060208101905061078c565b868310156107ce57848901516107ca601f8916826106dd565b8355505b6001600288020188555050505b50505050505056fea2646970667358221220a574dbca9b91cbbcfd907773e6210623f95c672b8209b0ff343fae0523e23e9264736f6c63430008160033",
					"opcodes": "PUSH1 0x80 PUSH1 0x40 MSTORE CALLVALUE DUP1 ISZERO PUSH2 0xF JUMPI PUSH0 DUP1 REVERT JUMPDEST POP PUSH2 0x819 DUP1 PUSH2 0x1D PUSH0 CODECOPY PUSH0 RETURN INVALID PUSH1 0x80 PUSH1 0x40 MSTORE CALLVALUE DUP1 ISZERO PUSH2 0xF JUMPI PUSH0 DUP1 REVERT JUMPDEST POP PUSH1 0x4 CALLDATASIZE LT PUSH2 0x3F JUMPI PUSH0 CALLDATALOAD PUSH1 0xE0 SHR DUP1 PUSH4 0x17D7DE7C EQ PUSH2 0x43 JUMPI DUP1 PUSH4 0x5CF3D346 EQ PUSH2 0x61 JUMPI DUP1 PUSH4 0xC47F0027 EQ PUSH2 0x91 JUMPI JUMPDEST PUSH0 DUP1 REVERT JUMPDEST PUSH2 0x4B PUSH2 0xAD JUMP JUMPDEST PUSH1 0x40 MLOAD PUSH2 0x58 SWAP2 SWAP1 PUSH2 0x2E8 JUMP JUMPDEST PUSH1 0x40 MLOAD DUP1 SWAP2 SUB SWAP1 RETURN JUMPDEST PUSH2 0x7B PUSH1 0x4 DUP1 CALLDATASIZE SUB DUP2 ADD SWAP1 PUSH2 0x76 SWAP2 SWAP1 PUSH2 0x373 JUMP JUMPDEST PUSH2 0x177 JUMP JUMPDEST PUSH1 0x40 MLOAD PUSH2 0x88 SWAP2 SWAP1 PUSH2 0x2E8 JUMP JUMPDEST PUSH1 0x40 MLOAD DUP1 SWAP2 SUB SWAP1 RETURN JUMPDEST PUSH2 0xAB PUSH1 0x4 DUP1 CALLDATASIZE SUB DUP2 ADD SWAP1 PUSH2 0xA6 SWAP2 SWAP1 PUSH2 0x4CA JUMP JUMPDEST PUSH2 0x211 JUMP JUMPDEST STOP JUMPDEST PUSH1 0x60 PUSH0 DUP1 CALLER PUSH20 0xFFFFFFFFFFFFFFFFFFFFFFFFFFFFFFFFFFFFFFFF AND PUSH20 0xFFFFFFFFFFFFFFFFFFFFFFFFFFFFFFFFFFFFFFFF AND DUP2 MSTORE PUSH1 0x20 ADD SWAP1 DUP2 MSTORE PUSH1 0x20 ADD PUSH0 KECCAK256 DUP1 SLOAD PUSH2 0xF6 SWAP1 PUSH2 0x53E JUMP JUMPDEST DUP1 PUSH1 0x1F ADD PUSH1 0x20 DUP1 SWAP2 DIV MUL PUSH1 0x20 ADD PUSH1 0x40 MLOAD SWAP1 DUP2 ADD PUSH1 0x40 MSTORE DUP1 SWAP3 SWAP2 SWAP1 DUP2 DUP2 MSTORE PUSH1 0x20 ADD DUP3 DUP1 SLOAD PUSH2 0x122 SWAP1 PUSH2 0x53E JUMP JUMPDEST DUP1 ISZERO PUSH2 0x16D JUMPI DUP1 PUSH1 0x1F LT PUSH2 0x144 JUMPI PUSH2 0x100 DUP1 DUP4 SLOAD DIV MUL DUP4 MSTORE SWAP2 PUSH1 0x20 ADD SWAP2 PUSH2 0x16D JUMP JUMPDEST DUP3 ADD SWAP2 SWAP1 PUSH0 MSTORE PUSH1 0x20 PUSH0 KECCAK256 SWAP1 JUMPDEST DUP2 SLOAD DUP2 MSTORE SWAP1 PUSH1 0x1 ADD SWAP1 PUSH1 0x20 ADD DUP1 DUP4 GT PUSH2 0x150 JUMPI DUP3 SWAP1 SUB PUSH1 0x1F AND DUP3 ADD SWAP2 JUMPDEST POP POP POP POP POP SWAP1 POP SWAP1 JUMP JUMPDEST PUSH0 PUSH1 0x20 MSTORE DUP1 PUSH0 MSTORE PUSH1 0x40 PUSH0 KECCAK256 PUSH0 SWAP2 POP SWAP1 POP DUP1 SLOAD PUSH2 0x192 SWAP1 PUSH2 0x53E JUMP JUMPDEST DUP1 PUSH1 0x1F ADD PUSH1 0x20 DUP1 SWAP2 DIV MUL PUSH1 0x20 ADD PUSH1 0x40 MLOAD SWAP1 DUP2 ADD PUSH1 0x40 MSTORE DUP1 SWAP3 SWAP2 SWAP1 DUP2 DUP2 MSTORE PUSH1 0x20 ADD DUP3 DUP1 SLOAD PUSH2 0x1BE SWAP1 PUSH2 0x53E JUMP JUMPDEST DUP1 ISZERO PUSH2 0x209 JUMPI DUP1 PUSH1 0x1F LT PUSH2 0x1E0 JUMPI PUSH2 0x100 DUP1 DUP4 SLOAD DIV MUL DUP4 MSTORE SWAP2 PUSH1 0x20 ADD SWAP2 PUSH2 0x209 JUMP JUMPDEST DUP3 ADD SWAP2 SWAP1 PUSH0 MSTORE PUSH1 0x20 PUSH0 KECCAK256 SWAP1 JUMPDEST DUP2 SLOAD DUP2 MSTORE SWAP1 PUSH1 0x1 ADD SWAP1 PUSH1 0x20 ADD DUP1 DUP4 GT PUSH2 0x1EC JUMPI DUP3 SWAP1 SUB PUSH1 0x1F AND DUP3 ADD SWAP2 JUMPDEST POP POP POP POP POP DUP2 JUMP JUMPDEST DUP1 PUSH0 DUP1 CALLER PUSH20 0xFFFFFFFFFFFFFFFFFFFFFFFFFFFFFFFFFFFFFFFF AND PUSH20 0xFFFFFFFFFFFFFFFFFFFFFFFFFFFFFFFFFFFFFFFF AND DUP2 MSTORE PUSH1 0x20 ADD SWAP1 DUP2 MSTORE PUSH1 0x20 ADD PUSH0 KECCAK256 SWAP1 DUP2 PUSH2 0x25A SWAP2 SWAP1 PUSH2 0x714 JUMP JUMPDEST POP POP JUMP JUMPDEST PUSH0 DUP2 MLOAD SWAP1 POP SWAP2 SWAP1 POP JUMP JUMPDEST PUSH0 DUP3 DUP3 MSTORE PUSH1 0x20 DUP3 ADD SWAP1 POP SWAP3 SWAP2 POP POP JUMP JUMPDEST PUSH0 JUMPDEST DUP4 DUP2 LT ISZERO PUSH2 0x295 JUMPI DUP1 DUP3 ADD MLOAD DUP2 DUP5 ADD MSTORE PUSH1 0x20 DUP2 ADD SWAP1 POP PUSH2 0x27A JUMP JUMPDEST PUSH0 DUP5 DUP5 ADD MSTORE POP POP POP POP JUMP JUMPDEST PUSH0 PUSH1 0x1F NOT PUSH1 0x1F DUP4 ADD AND SWAP1 POP SWAP2 SWAP1 POP JUMP JUMPDEST PUSH0 PUSH2 0x2BA DUP3 PUSH2 0x25E JUMP JUMPDEST PUSH2 0x2C4 DUP2 DUP6 PUSH2 0x268 JUMP JUMPDEST SWAP4 POP PUSH2 0x2D4 DUP2 DUP6 PUSH1 0x20 DUP7 ADD PUSH2 0x278 JUMP JUMPDEST PUSH2 0x2DD DUP2 PUSH2 0x2A0 JUMP JUMPDEST DUP5 ADD SWAP2 POP POP SWAP3 SWAP2 POP POP JUMP JUMPDEST PUSH0 PUSH1 0x20 DUP3 ADD SWAP1 POP DUP2 DUP2 SUB PUSH0 DUP4 ADD MSTORE PUSH2 0x300 DUP2 DUP5 PUSH2 0x2B0 JUMP JUMPDEST SWAP1 POP SWAP3 SWAP2 POP POP JUMP JUMPDEST PUSH0 PUSH1 0x40 MLOAD SWAP1 POP SWAP1 JUMP JUMPDEST PUSH0 DUP1 REVERT JUMPDEST PUSH0 DUP1 REVERT JUMPDEST PUSH0 PUSH20 0xFFFFFFFFFFFFFFFFFFFFFFFFFFFFFFFFFFFFFFFF DUP3 AND SWAP1 POP SWAP2 SWAP1 POP JUMP JUMPDEST PUSH0 PUSH2 0x342 DUP3 PUSH2 0x319 JUMP JUMPDEST SWAP1 POP SWAP2 SWAP1 POP JUMP JUMPDEST PUSH2 0x352 DUP2 PUSH2 0x338 JUMP JUMPDEST DUP2 EQ PUSH2 0x35C JUMPI PUSH0 DUP1 REVERT JUMPDEST POP JUMP JUMPDEST PUSH0 DUP2 CALLDATALOAD SWAP1 POP PUSH2 0x36D DUP2 PUSH2 0x349 JUMP JUMPDEST SWAP3 SWAP2 POP POP JUMP JUMPDEST PUSH0 PUSH1 0x20 DUP3 DUP5 SUB SLT ISZERO PUSH2 0x388 JUMPI PUSH2 0x387 PUSH2 0x311 JUMP JUMPDEST JUMPDEST PUSH0 PUSH2 0x395 DUP5 DUP3 DUP6 ADD PUSH2 0x35F JUMP JUMPDEST SWAP2 POP POP SWAP3 SWAP2 POP POP JUMP JUMPDEST PUSH0 DUP1 REVERT JUMPDEST PUSH0 DUP1 REVERT JUMPDEST PUSH32 0x4E487B7100000000000000000000000000000000000000000000000000000000 PUSH0 MSTORE PUSH1 0x41 PUSH1 0x4 MSTORE PUSH1 0x24 PUSH0 REVERT JUMPDEST PUSH2 0x3DC DUP3 PUSH2 0x2A0 JUMP JUMPDEST DUP2 ADD DUP2 DUP2 LT PUSH8 0xFFFFFFFFFFFFFFFF DUP3 GT OR ISZERO PUSH2 0x3FB JUMPI PUSH2 0x3FA PUSH2 0x3A6 JUMP JUMPDEST JUMPDEST DUP1 PUSH1 0x40 MSTORE POP POP POP JUMP JUMPDEST PUSH0 PUSH2 0x40D PUSH2 0x308 JUMP JUMPDEST SWAP1 POP PUSH2 0x419 DUP3 DUP3 PUSH2 0x3D3 JUMP JUMPDEST SWAP2 SWAP1 POP JUMP JUMPDEST PUSH0 PUSH8 0xFFFFFFFFFFFFFFFF DUP3 GT ISZERO PUSH2 0x438 JUMPI PUSH2 0x437 PUSH2 0x3A6 JUMP JUMPDEST JUMPDEST PUSH2 0x441 DUP3 PUSH2 0x2A0 JUMP JUMPDEST SWAP1 POP PUSH1 0x20 DUP2 ADD SWAP1 POP SWAP2 SWAP1 POP JUMP JUMPDEST DUP3 DUP2 DUP4 CALLDATACOPY PUSH0 DUP4 DUP4 ADD MSTORE POP POP POP JUMP JUMPDEST PUSH0 PUSH2 0x46E PUSH2 0x469 DUP5 PUSH2 0x41E JUMP JUMPDEST PUSH2 0x404 JUMP JUMPDEST SWAP1 POP DUP3 DUP2 MSTORE PUSH1 0x20 DUP2 ADD DUP5 DUP5 DUP5 ADD GT ISZERO PUSH2 0x48A JUMPI PUSH2 0x489 PUSH2 0x3A2 JUMP JUMPDEST JUMPDEST PUSH2 0x495 DUP5 DUP3 DUP6 PUSH2 0x44E JUMP JUMPDEST POP SWAP4 SWAP3 POP POP POP JUMP JUMPDEST PUSH0 DUP3 PUSH1 0x1F DUP4 ADD SLT PUSH2 0x4B1 JUMPI PUSH2 0x4B0 PUSH2 0x39E JUMP JUMPDEST JUMPDEST DUP2 CALLDATALOAD PUSH2 0x4C1 DUP5 DUP3 PUSH1 0x20 DUP7 ADD PUSH2 0x45C JUMP JUMPDEST SWAP2 POP POP SWAP3 SWAP2 POP POP JUMP JUMPDEST PUSH0 PUSH1 0x20 DUP3 DUP5 SUB SLT ISZERO PUSH2 0x4DF JUMPI PUSH2 0x4DE PUSH2 0x311 JUMP JUMPDEST JUMPDEST PUSH0 DUP3 ADD CALLDATALOAD PUSH8 0xFFFFFFFFFFFFFFFF DUP2 GT ISZERO PUSH2 0x4FC JUMPI PUSH2 0x4FB PUSH2 0x315 JUMP JUMPDEST JUMPDEST PUSH2 0x508 DUP5 DUP3 DUP6 ADD PUSH2 0x49D JUMP JUMPDEST SWAP2 POP POP SWAP3 SWAP2 POP POP JUMP JUMPDEST PUSH32 0x4E487B7100000000000000000000000000000000000000000000000000000000 PUSH0 MSTORE PUSH1 0x22 PUSH1 0x4 MSTORE PUSH1 0x24 PUSH0 REVERT JUMPDEST PUSH0 PUSH1 0x2 DUP3 DIV SWAP1 POP PUSH1 0x1 DUP3 AND DUP1 PUSH2 0x555 JUMPI PUSH1 0x7F DUP3 AND SWAP2 POP JUMPDEST PUSH1 0x20 DUP3 LT DUP2 SUB PUSH2 0x568 JUMPI PUSH2 0x567 PUSH2 0x511 JUMP JUMPDEST JUMPDEST POP SWAP2 SWAP1 POP JUMP JUMPDEST PUSH0 DUP2 SWAP1 POP DUP2 PUSH0 MSTORE PUSH1 0x20 PUSH0 KECCAK256 SWAP1 POP SWAP2 SWAP1 POP JUMP JUMPDEST PUSH0 PUSH1 0x20 PUSH1 0x1F DUP4 ADD DIV SWAP1 POP SWAP2 SWAP1 POP JUMP JUMPDEST PUSH0 DUP3 DUP3 SHL SWAP1 POP SWAP3 SWAP2 POP POP JUMP JUMPDEST PUSH0 PUSH1 0x8 DUP4 MUL PUSH2 0x5CA PUSH32 0xFFFFFFFFFFFFFFFFFFFFFFFFFFFFFFFFFFFFFFFFFFFFFFFFFFFFFFFFFFFFFFFF DUP3 PUSH2 0x58F JUMP JUMPDEST PUSH2 0x5D4 DUP7 DUP4 PUSH2 0x58F JUMP JUMPDEST SWAP6 POP DUP1 NOT DUP5 AND SWAP4 POP DUP1 DUP7 AND DUP5 OR SWAP3 POP POP POP SWAP4 SWAP3 POP POP POP JUMP JUMPDEST PUSH0 DUP2 SWAP1 POP SWAP2 SWAP1 POP JUMP JUMPDEST PUSH0 DUP2 SWAP1 POP SWAP2 SWAP1 POP JUMP JUMPDEST PUSH0 PUSH2 0x618 PUSH2 0x613 PUSH2 0x60E DUP5 PUSH2 0x5EC JUMP JUMPDEST PUSH2 0x5F5 JUMP JUMPDEST PUSH2 0x5EC JUMP JUMPDEST SWAP1 POP SWAP2 SWAP1 POP JUMP JUMPDEST PUSH0 DUP2 SWAP1 POP SWAP2 SWAP1 POP JUMP JUMPDEST PUSH2 0x631 DUP4 PUSH2 0x5FE JUMP JUMPDEST PUSH2 0x645 PUSH2 0x63D DUP3 PUSH2 0x61F JUMP JUMPDEST DUP5 DUP5 SLOAD PUSH2 0x59B JUMP JUMPDEST DUP3 SSTORE POP POP POP POP JUMP JUMPDEST PUSH0 SWAP1 JUMP JUMPDEST PUSH2 0x659 PUSH2 0x64D JUMP JUMPDEST PUSH2 0x664 DUP2 DUP5 DUP5 PUSH2 0x628 JUMP JUMPDEST POP POP POP JUMP JUMPDEST JUMPDEST DUP2 DUP2 LT ISZERO PUSH2 0x687 JUMPI PUSH2 0x67C PUSH0 DUP3 PUSH2 0x651 JUMP JUMPDEST PUSH1 0x1 DUP2 ADD SWAP1 POP PUSH2 0x66A JUMP JUMPDEST POP POP JUMP JUMPDEST PUSH1 0x1F DUP3 GT ISZERO PUSH2 0x6CC JUMPI PUSH2 0x69D DUP2 PUSH2 0x56E JUMP JUMPDEST PUSH2 0x6A6 DUP5 PUSH2 0x580 JUMP JUMPDEST DUP2 ADD PUSH1 0x20 DUP6 LT ISZERO PUSH2 0x6B5 JUMPI DUP2 SWAP1 POP JUMPDEST PUSH2 0x6C9 PUSH2 0x6C1 DUP6 PUSH2 0x580 JUMP JUMPDEST DUP4 ADD DUP3 PUSH2 0x669 JUMP JUMPDEST POP POP JUMPDEST POP POP POP JUMP JUMPDEST PUSH0 DUP3 DUP3 SHR SWAP1 POP SWAP3 SWAP2 POP POP JUMP JUMPDEST PUSH0 PUSH2 0x6EC PUSH0 NOT DUP5 PUSH1 0x8 MUL PUSH2 0x6D1 JUMP JUMPDEST NOT DUP1 DUP4 AND SWAP2 POP POP SWAP3 SWAP2 POP POP JUMP JUMPDEST PUSH0 PUSH2 0x704 DUP4 DUP4 PUSH2 0x6DD JUMP JUMPDEST SWAP2 POP DUP3 PUSH1 0x2 MUL DUP3 OR SWAP1 POP SWAP3 SWAP2 POP POP JUMP JUMPDEST PUSH2 0x71D DUP3 PUSH2 0x25E JUMP JUMPDEST PUSH8 0xFFFFFFFFFFFFFFFF DUP2 GT ISZERO PUSH2 0x736 JUMPI PUSH2 0x735 PUSH2 0x3A6 JUMP JUMPDEST JUMPDEST PUSH2 0x740 DUP3 SLOAD PUSH2 0x53E JUMP JUMPDEST PUSH2 0x74B DUP3 DUP3 DUP6 PUSH2 0x68B JUMP JUMPDEST PUSH0 PUSH1 0x20 SWAP1 POP PUSH1 0x1F DUP4 GT PUSH1 0x1 DUP2 EQ PUSH2 0x77C JUMPI PUSH0 DUP5 ISZERO PUSH2 0x76A JUMPI DUP3 DUP8 ADD MLOAD SWAP1 POP JUMPDEST PUSH2 0x774 DUP6 DUP3 PUSH2 0x6F9 JUMP JUMPDEST DUP7 SSTORE POP PUSH2 0x7DB JUMP JUMPDEST PUSH1 0x1F NOT DUP5 AND PUSH2 0x78A DUP7 PUSH2 0x56E JUMP JUMPDEST PUSH0 JUMPDEST DUP3 DUP2 LT ISZERO PUSH2 0x7B1 JUMPI DUP5 DUP10 ADD MLOAD DUP3 SSTORE PUSH1 0x1 DUP3 ADD SWAP2 POP PUSH1 0x20 DUP6 ADD SWAP5 POP PUSH1 0x20 DUP2 ADD SWAP1 POP PUSH2 0x78C JUMP JUMPDEST DUP7 DUP4 LT ISZERO PUSH2 0x7CE JUMPI DUP5 DUP10 ADD MLOAD PUSH2 0x7CA PUSH1 0x1F DUP10 AND DUP3 PUSH2 0x6DD JUMP JUMPDEST DUP4 SSTORE POP JUMPDEST PUSH1 0x1 PUSH1 0x2 DUP9 MUL ADD DUP9 SSTORE POP POP POP JUMPDEST POP POP POP POP POP POP JUMP INVALID LOG2 PUSH5 0x6970667358 0x22 SLT KECCAK256 0xA5 PUSH21 0xDBCA9B91CBBCFD907773E6210623F95C672B8209B0 SELFDESTRUCT CALLVALUE EXTCODEHASH 0xAE SDIV 0x23 0xE2 RETURNDATACOPY SWAP3 PUSH5 0x736F6C6343 STOP ADDMOD AND STOP CALLER "
				},
				"gasEstimates": {
					"creation": {
						"codeDepositCost": "414600",
						"executionCost": "447",
						"totalCost": "415047"
					},
					"external": {
						"getName()": "infinite",
						"names(address)": "infinite",
						"setName(string)": "infinite"
					}
				},
				"methodIdentifiers": {
					"getName()": "17d7de7c",
					"names(address)": "5cf3d346",
					"setName(string)": "c47f0027"
				}
			},
			"storageLayout": {
				"storage": [
					{
						"astId": 5,
						"contract": "contracts/Mappings.sol:Mappings",
						"label": "names",
						"offset": 0,
						"slot": "0",
						"type": "t_mapping(t_address,t_string_storage)"
					}
				],
				"types": {
					"t_address": {
						"encoding": "inplace",
						"label": "address",
						"numberOfBytes": "20"
					},
					"t_mapping(t_address,t_string_storage)": {
						"encoding": "mapping",
						"key": "t_address",
						"label": "mapping(address => string)",
						"numberOfBytes": "32",
						"value": "t_string_storage"
					},
					"t_string_storage": {
						"encoding": "bytes",
						"label": "string",
						"numberOfBytes": "32"
					}
				}
			},
			"userdoc": {
				"kind": "user",
				"methods": {},
				"version": 1
			}
		}
	}
}