{
	"contracts/MyLibrary.sol": {
		"MyLibrary": {
			"abi": [
				{
					"inputs": [
						{
							"internalType": "uint256[]",
							"name": "nums",
							"type": "uint256[]"
						}
					],
					"name": "double",
					"outputs": [
						{
							"internalType": "uint256[]",
							"name": "",
							"type": "uint256[]"
						}
					],
					"stateMutability": "pure",
					"type": "function"
				}
			],
			"devdoc": {
				"kind": "dev",
				"methods": {},
				"version": 1
			},
			"evm": {
				"assembly": "    /* \"contracts/MyLibrary.sol\":60:350  library MyLibrary {... */\n  dataSize(sub_0)\n  dataOffset(sub_0)\n  0x0b\n  dup3\n  dup3\n  dup3\n  codecopy\n  dup1\n  mload\n  0x00\n  byte\n  0x73\n  eq\n  tag_1\n  jumpi\n  mstore(0x00, 0x4e487b7100000000000000000000000000000000000000000000000000000000)\n  mstore(0x04, 0x00)\n  revert(0x00, 0x24)\ntag_1:\n  mstore(0x00, address)\n  0x73\n  dup2\n  mstore8\n  dup3\n  dup2\n  return\nstop\n\nsub_0: assembly {\n        /* \"contracts/MyLibrary.sol\":60:350  library MyLibrary {... */\n      eq(address, deployTimeAddress())\n      mstore(0x40, 0x80)\n      jumpi(tag_1, lt(calldatasize, 0x04))\n      shr(0xe0, calldataload(0x00))\n      dup1\n      0xe3fa0ff7\n      eq\n      tag_2\n      jumpi\n    tag_1:\n      0x00\n      dup1\n      revert\n        /* \"contracts/MyLibrary.sol\":85:347  function double(uint[] memory nums) public pure returns (uint[] memory) {... */\n    tag_2:\n      tag_3\n      0x04\n      dup1\n      calldatasize\n      sub\n      dup2\n      add\n      swap1\n      tag_4\n      swap2\n      swap1\n      tag_5\n      jump\t// in\n    tag_4:\n      tag_6\n      jump\t// in\n    tag_3:\n      mload(0x40)\n      tag_7\n      swap2\n      swap1\n      tag_8\n      jump\t// in\n    tag_7:\n      mload(0x40)\n      dup1\n      swap2\n      sub\n      swap1\n      return\n    tag_6:\n        /* \"contracts/MyLibrary.sol\":142:155  uint[] memory */\n      0x60\n        /* \"contracts/MyLibrary.sol\":168:188  uint[] memory result */\n      0x00\n        /* \"contracts/MyLibrary.sol\":202:206  nums */\n      dup3\n        /* \"contracts/MyLibrary.sol\":202:213  nums.length */\n      mload\n        /* \"contracts/MyLibrary.sol\":191:214  new uint[](nums.length) */\n      0xffffffffffffffff\n      dup2\n      gt\n      iszero\n      tag_10\n      jumpi\n      tag_11\n      tag_12\n      jump\t// in\n    tag_11:\n    tag_10:\n      mload(0x40)\n      swap1\n      dup1\n      dup3\n      mstore\n      dup1\n      0x20\n      mul\n      0x20\n      add\n      dup3\n      add\n      0x40\n      mstore\n      dup1\n      iszero\n      tag_13\n      jumpi\n      dup2\n      0x20\n      add\n      0x20\n      dup3\n      mul\n      dup1\n      calldatasize\n      dup4\n      calldatacopy\n      dup1\n      dup3\n      add\n      swap2\n      pop\n      pop\n      swap1\n      pop\n    tag_13:\n      pop\n        /* \"contracts/MyLibrary.sol\":168:214  uint[] memory result = new uint[](nums.length) */\n      swap1\n      pop\n        /* \"contracts/MyLibrary.sol\":231:237  uint i */\n      0x00\n        /* \"contracts/MyLibrary.sol\":227:314  for(uint i = 0; i < nums.length; i++) {... */\n    tag_14:\n        /* \"contracts/MyLibrary.sol\":247:251  nums */\n      dup4\n        /* \"contracts/MyLibrary.sol\":247:258  nums.length */\n      mload\n        /* \"contracts/MyLibrary.sol\":243:244  i */\n      dup2\n        /* \"contracts/MyLibrary.sol\":243:258  i < nums.length */\n      lt\n        /* \"contracts/MyLibrary.sol\":227:314  for(uint i = 0; i < nums.length; i++) {... */\n      iszero\n      tag_15\n      jumpi\n        /* \"contracts/MyLibrary.sol\":301:302  2 */\n      0x02\n        /* \"contracts/MyLibrary.sol\":292:296  nums */\n      dup5\n        /* \"contracts/MyLibrary.sol\":297:298  i */\n      dup3\n        /* \"contracts/MyLibrary.sol\":292:299  nums[i] */\n      dup2\n      mload\n      dup2\n      lt\n      tag_17\n      jumpi\n      tag_18\n      tag_19\n      jump\t// in\n    tag_18:\n    tag_17:\n      0x20\n      mul\n      0x20\n      add\n      add\n      mload\n        /* \"contracts/MyLibrary.sol\":292:302  nums[i] *2 */\n      tag_20\n      swap2\n      swap1\n      tag_21\n      jump\t// in\n    tag_20:\n        /* \"contracts/MyLibrary.sol\":280:286  result */\n      dup3\n        /* \"contracts/MyLibrary.sol\":287:288  i */\n      dup3\n        /* \"contracts/MyLibrary.sol\":280:289  result[i] */\n      dup2\n      mload\n      dup2\n      lt\n      tag_22\n      jumpi\n      tag_23\n      tag_19\n      jump\t// in\n    tag_23:\n    tag_22:\n      0x20\n      mul\n      0x20\n      add\n      add\n        /* \"contracts/MyLibrary.sol\":280:302  result[i] = nums[i] *2 */\n      dup2\n      dup2\n      mstore\n      pop\n      pop\n        /* \"contracts/MyLibrary.sol\":260:263  i++ */\n      dup1\n      dup1\n      0x01\n      add\n      swap2\n      pop\n      pop\n        /* \"contracts/MyLibrary.sol\":227:314  for(uint i = 0; i < nums.length; i++) {... */\n      jump(tag_14)\n    tag_15:\n      pop\n        /* \"contracts/MyLibrary.sol\":333:339  result */\n      dup1\n        /* \"contracts/MyLibrary.sol\":326:339  return result */\n      swap2\n      pop\n      pop\n        /* \"contracts/MyLibrary.sol\":85:347  function double(uint[] memory nums) public pure returns (uint[] memory) {... */\n      swap2\n      swap1\n      pop\n      jump\t// out\n        /* \"#utility.yul\":7:82   */\n    tag_24:\n        /* \"#utility.yul\":40:46   */\n      0x00\n        /* \"#utility.yul\":73:75   */\n      0x40\n        /* \"#utility.yul\":67:76   */\n      mload\n        /* \"#utility.yul\":57:76   */\n      swap1\n      pop\n        /* \"#utility.yul\":7:82   */\n      swap1\n      jump\t// out\n        /* \"#utility.yul\":88:205   */\n    tag_25:\n        /* \"#utility.yul\":197:198   */\n      0x00\n        /* \"#utility.yul\":194:195   */\n      dup1\n        /* \"#utility.yul\":187:199   */\n      revert\n        /* \"#utility.yul\":211:328   */\n    tag_26:\n        /* \"#utility.yul\":320:321   */\n      0x00\n        /* \"#utility.yul\":317:318   */\n      dup1\n        /* \"#utility.yul\":310:322   */\n      revert\n        /* \"#utility.yul\":334:451   */\n    tag_27:\n        /* \"#utility.yul\":443:444   */\n      0x00\n        /* \"#utility.yul\":440:441   */\n      dup1\n        /* \"#utility.yul\":433:445   */\n      revert\n        /* \"#utility.yul\":457:559   */\n    tag_28:\n        /* \"#utility.yul\":498:504   */\n      0x00\n        /* \"#utility.yul\":549:551   */\n      0x1f\n        /* \"#utility.yul\":545:552   */\n      not\n        /* \"#utility.yul\":540:542   */\n      0x1f\n        /* \"#utility.yul\":533:538   */\n      dup4\n        /* \"#utility.yul\":529:543   */\n      add\n        /* \"#utility.yul\":525:553   */\n      and\n        /* \"#utility.yul\":515:553   */\n      swap1\n      pop\n        /* \"#utility.yul\":457:559   */\n      swap2\n      swap1\n      pop\n      jump\t// out\n        /* \"#utility.yul\":565:745   */\n    tag_12:\n        /* \"#utility.yul\":613:690   */\n      0x4e487b7100000000000000000000000000000000000000000000000000000000\n        /* \"#utility.yul\":610:611   */\n      0x00\n        /* \"#utility.yul\":603:691   */\n      mstore\n        /* \"#utility.yul\":710:714   */\n      0x41\n        /* \"#utility.yul\":707:708   */\n      0x04\n        /* \"#utility.yul\":700:715   */\n      mstore\n        /* \"#utility.yul\":734:738   */\n      0x24\n        /* \"#utility.yul\":731:732   */\n      0x00\n        /* \"#utility.yul\":724:739   */\n      revert\n        /* \"#utility.yul\":751:1032   */\n    tag_29:\n        /* \"#utility.yul\":834:861   */\n      tag_54\n        /* \"#utility.yul\":856:860   */\n      dup3\n        /* \"#utility.yul\":834:861   */\n      tag_28\n      jump\t// in\n    tag_54:\n        /* \"#utility.yul\":826:832   */\n      dup2\n        /* \"#utility.yul\":822:862   */\n      add\n        /* \"#utility.yul\":964:970   */\n      dup2\n        /* \"#utility.yul\":952:962   */\n      dup2\n        /* \"#utility.yul\":949:971   */\n      lt\n        /* \"#utility.yul\":928:946   */\n      0xffffffffffffffff\n        /* \"#utility.yul\":916:926   */\n      dup3\n        /* \"#utility.yul\":913:947   */\n      gt\n        /* \"#utility.yul\":910:972   */\n      or\n        /* \"#utility.yul\":907:995   */\n      iszero\n      tag_55\n      jumpi\n        /* \"#utility.yul\":975:993   */\n      tag_56\n      tag_12\n      jump\t// in\n    tag_56:\n        /* \"#utility.yul\":907:995   */\n    tag_55:\n        /* \"#utility.yul\":1015:1025   */\n      dup1\n        /* \"#utility.yul\":1011:1013   */\n      0x40\n        /* \"#utility.yul\":1004:1026   */\n      mstore\n        /* \"#utility.yul\":794:1032   */\n      pop\n        /* \"#utility.yul\":751:1032   */\n      pop\n      pop\n      jump\t// out\n        /* \"#utility.yul\":1038:1167   */\n    tag_30:\n        /* \"#utility.yul\":1072:1078   */\n      0x00\n        /* \"#utility.yul\":1099:1119   */\n      tag_58\n      tag_24\n      jump\t// in\n    tag_58:\n        /* \"#utility.yul\":1089:1119   */\n      swap1\n      pop\n        /* \"#utility.yul\":1128:1161   */\n      tag_59\n        /* \"#utility.yul\":1156:1160   */\n      dup3\n        /* \"#utility.yul\":1148:1154   */\n      dup3\n        /* \"#utility.yul\":1128:1161   */\n      tag_29\n      jump\t// in\n    tag_59:\n        /* \"#utility.yul\":1038:1167   */\n      swap2\n      swap1\n      pop\n      jump\t// out\n        /* \"#utility.yul\":1173:1484   */\n    tag_31:\n        /* \"#utility.yul\":1250:1254   */\n      0x00\n        /* \"#utility.yul\":1340:1358   */\n      0xffffffffffffffff\n        /* \"#utility.yul\":1332:1338   */\n      dup3\n        /* \"#utility.yul\":1329:1359   */\n      gt\n        /* \"#utility.yul\":1326:1382   */\n      iszero\n      tag_61\n      jumpi\n        /* \"#utility.yul\":1362:1380   */\n      tag_62\n      tag_12\n      jump\t// in\n    tag_62:\n        /* \"#utility.yul\":1326:1382   */\n    tag_61:\n        /* \"#utility.yul\":1412:1416   */\n      0x20\n        /* \"#utility.yul\":1404:1410   */\n      dup3\n        /* \"#utility.yul\":1400:1417   */\n      mul\n        /* \"#utility.yul\":1392:1417   */\n      swap1\n      pop\n        /* \"#utility.yul\":1472:1476   */\n      0x20\n        /* \"#utility.yul\":1466:1470   */\n      dup2\n        /* \"#utility.yul\":1462:1477   */\n      add\n        /* \"#utility.yul\":1454:1477   */\n      swap1\n      pop\n        /* \"#utility.yul\":1173:1484   */\n      swap2\n      swap1\n      pop\n      jump\t// out\n        /* \"#utility.yul\":1490:1607   */\n    tag_32:\n        /* \"#utility.yul\":1599:1600   */\n      0x00\n        /* \"#utility.yul\":1596:1597   */\n      dup1\n        /* \"#utility.yul\":1589:1601   */\n      revert\n        /* \"#utility.yul\":1613:1690   */\n    tag_33:\n        /* \"#utility.yul\":1650:1657   */\n      0x00\n        /* \"#utility.yul\":1679:1684   */\n      dup2\n        /* \"#utility.yul\":1668:1684   */\n      swap1\n      pop\n        /* \"#utility.yul\":1613:1690   */\n      swap2\n      swap1\n      pop\n      jump\t// out\n        /* \"#utility.yul\":1696:1818   */\n    tag_34:\n        /* \"#utility.yul\":1769:1793   */\n      tag_66\n        /* \"#utility.yul\":1787:1792   */\n      dup2\n        /* \"#utility.yul\":1769:1793   */\n      tag_33\n      jump\t// in\n    tag_66:\n        /* \"#utility.yul\":1762:1767   */\n      dup2\n        /* \"#utility.yul\":1759:1794   */\n      eq\n        /* \"#utility.yul\":1749:1812   */\n      tag_67\n      jumpi\n        /* \"#utility.yul\":1808:1809   */\n      0x00\n        /* \"#utility.yul\":1805:1806   */\n      dup1\n        /* \"#utility.yul\":1798:1810   */\n      revert\n        /* \"#utility.yul\":1749:1812   */\n    tag_67:\n        /* \"#utility.yul\":1696:1818   */\n      pop\n      jump\t// out\n        /* \"#utility.yul\":1824:1963   */\n    tag_35:\n        /* \"#utility.yul\":1870:1875   */\n      0x00\n        /* \"#utility.yul\":1908:1914   */\n      dup2\n        /* \"#utility.yul\":1895:1915   */\n      calldataload\n        /* \"#utility.yul\":1886:1915   */\n      swap1\n      pop\n        /* \"#utility.yul\":1924:1957   */\n      tag_69\n        /* \"#utility.yul\":1951:1956   */\n      dup2\n        /* \"#utility.yul\":1924:1957   */\n      tag_34\n      jump\t// in\n    tag_69:\n        /* \"#utility.yul\":1824:1963   */\n      swap3\n      swap2\n      pop\n      pop\n      jump\t// out\n        /* \"#utility.yul\":1986:2696   */\n    tag_36:\n        /* \"#utility.yul\":2082:2087   */\n      0x00\n        /* \"#utility.yul\":2107:2188   */\n      tag_71\n        /* \"#utility.yul\":2123:2187   */\n      tag_72\n        /* \"#utility.yul\":2180:2186   */\n      dup5\n        /* \"#utility.yul\":2123:2187   */\n      tag_31\n      jump\t// in\n    tag_72:\n        /* \"#utility.yul\":2107:2188   */\n      tag_30\n      jump\t// in\n    tag_71:\n        /* \"#utility.yul\":2098:2188   */\n      swap1\n      pop\n        /* \"#utility.yul\":2208:2213   */\n      dup1\n        /* \"#utility.yul\":2237:2243   */\n      dup4\n        /* \"#utility.yul\":2230:2235   */\n      dup3\n        /* \"#utility.yul\":2223:2244   */\n      mstore\n        /* \"#utility.yul\":2271:2275   */\n      0x20\n        /* \"#utility.yul\":2264:2269   */\n      dup3\n        /* \"#utility.yul\":2260:2276   */\n      add\n        /* \"#utility.yul\":2253:2276   */\n      swap1\n      pop\n        /* \"#utility.yul\":2324:2328   */\n      0x20\n        /* \"#utility.yul\":2316:2322   */\n      dup5\n        /* \"#utility.yul\":2312:2329   */\n      mul\n        /* \"#utility.yul\":2304:2310   */\n      dup4\n        /* \"#utility.yul\":2300:2330   */\n      add\n        /* \"#utility.yul\":2353:2356   */\n      dup6\n        /* \"#utility.yul\":2345:2351   */\n      dup2\n        /* \"#utility.yul\":2342:2357   */\n      gt\n        /* \"#utility.yul\":2339:2461   */\n      iszero\n      tag_73\n      jumpi\n        /* \"#utility.yul\":2372:2451   */\n      tag_74\n      tag_32\n      jump\t// in\n    tag_74:\n        /* \"#utility.yul\":2339:2461   */\n    tag_73:\n        /* \"#utility.yul\":2487:2493   */\n      dup4\n        /* \"#utility.yul\":2470:2690   */\n    tag_75:\n        /* \"#utility.yul\":2504:2510   */\n      dup2\n        /* \"#utility.yul\":2499:2502   */\n      dup2\n        /* \"#utility.yul\":2496:2511   */\n      lt\n        /* \"#utility.yul\":2470:2690   */\n      iszero\n      tag_77\n      jumpi\n        /* \"#utility.yul\":2579:2582   */\n      dup1\n        /* \"#utility.yul\":2608:2645   */\n      tag_78\n        /* \"#utility.yul\":2641:2644   */\n      dup9\n        /* \"#utility.yul\":2629:2639   */\n      dup3\n        /* \"#utility.yul\":2608:2645   */\n      tag_35\n      jump\t// in\n    tag_78:\n        /* \"#utility.yul\":2603:2606   */\n      dup5\n        /* \"#utility.yul\":2596:2646   */\n      mstore\n        /* \"#utility.yul\":2675:2679   */\n      0x20\n        /* \"#utility.yul\":2670:2673   */\n      dup5\n        /* \"#utility.yul\":2666:2680   */\n      add\n        /* \"#utility.yul\":2659:2680   */\n      swap4\n      pop\n        /* \"#utility.yul\":2546:2690   */\n      pop\n        /* \"#utility.yul\":2530:2534   */\n      0x20\n        /* \"#utility.yul\":2525:2528   */\n      dup2\n        /* \"#utility.yul\":2521:2535   */\n      add\n        /* \"#utility.yul\":2514:2535   */\n      swap1\n      pop\n        /* \"#utility.yul\":2470:2690   */\n      jump(tag_75)\n    tag_77:\n        /* \"#utility.yul\":2474:2495   */\n      pop\n        /* \"#utility.yul\":2088:2696   */\n      pop\n      pop\n        /* \"#utility.yul\":1986:2696   */\n      swap4\n      swap3\n      pop\n      pop\n      pop\n      jump\t// out\n        /* \"#utility.yul\":2719:3089   */\n    tag_37:\n        /* \"#utility.yul\":2790:2795   */\n      0x00\n        /* \"#utility.yul\":2839:2842   */\n      dup3\n        /* \"#utility.yul\":2832:2836   */\n      0x1f\n        /* \"#utility.yul\":2824:2830   */\n      dup4\n        /* \"#utility.yul\":2820:2837   */\n      add\n        /* \"#utility.yul\":2816:2843   */\n      slt\n        /* \"#utility.yul\":2806:2928   */\n      tag_80\n      jumpi\n        /* \"#utility.yul\":2847:2926   */\n      tag_81\n      tag_27\n      jump\t// in\n    tag_81:\n        /* \"#utility.yul\":2806:2928   */\n    tag_80:\n        /* \"#utility.yul\":2964:2970   */\n      dup2\n        /* \"#utility.yul\":2951:2971   */\n      calldataload\n        /* \"#utility.yul\":2989:3083   */\n      tag_82\n        /* \"#utility.yul\":3079:3082   */\n      dup5\n        /* \"#utility.yul\":3071:3077   */\n      dup3\n        /* \"#utility.yul\":3064:3068   */\n      0x20\n        /* \"#utility.yul\":3056:3062   */\n      dup7\n        /* \"#utility.yul\":3052:3069   */\n      add\n        /* \"#utility.yul\":2989:3083   */\n      tag_36\n      jump\t// in\n    tag_82:\n        /* \"#utility.yul\":2980:3083   */\n      swap2\n      pop\n        /* \"#utility.yul\":2796:3089   */\n      pop\n        /* \"#utility.yul\":2719:3089   */\n      swap3\n      swap2\n      pop\n      pop\n      jump\t// out\n        /* \"#utility.yul\":3095:3634   */\n    tag_5:\n        /* \"#utility.yul\":3179:3185   */\n      0x00\n        /* \"#utility.yul\":3228:3230   */\n      0x20\n        /* \"#utility.yul\":3216:3225   */\n      dup3\n        /* \"#utility.yul\":3207:3214   */\n      dup5\n        /* \"#utility.yul\":3203:3226   */\n      sub\n        /* \"#utility.yul\":3199:3231   */\n      slt\n        /* \"#utility.yul\":3196:3315   */\n      iszero\n      tag_84\n      jumpi\n        /* \"#utility.yul\":3234:3313   */\n      tag_85\n      tag_25\n      jump\t// in\n    tag_85:\n        /* \"#utility.yul\":3196:3315   */\n    tag_84:\n        /* \"#utility.yul\":3382:3383   */\n      0x00\n        /* \"#utility.yul\":3371:3380   */\n      dup3\n        /* \"#utility.yul\":3367:3384   */\n      add\n        /* \"#utility.yul\":3354:3385   */\n      calldataload\n        /* \"#utility.yul\":3412:3430   */\n      0xffffffffffffffff\n        /* \"#utility.yul\":3404:3410   */\n      dup2\n        /* \"#utility.yul\":3401:3431   */\n      gt\n        /* \"#utility.yul\":3398:3515   */\n      iszero\n      tag_86\n      jumpi\n        /* \"#utility.yul\":3434:3513   */\n      tag_87\n      tag_26\n      jump\t// in\n    tag_87:\n        /* \"#utility.yul\":3398:3515   */\n    tag_86:\n        /* \"#utility.yul\":3539:3617   */\n      tag_88\n        /* \"#utility.yul\":3609:3616   */\n      dup5\n        /* \"#utility.yul\":3600:3606   */\n      dup3\n        /* \"#utility.yul\":3589:3598   */\n      dup6\n        /* \"#utility.yul\":3585:3607   */\n      add\n        /* \"#utility.yul\":3539:3617   */\n      tag_37\n      jump\t// in\n    tag_88:\n        /* \"#utility.yul\":3529:3617   */\n      swap2\n      pop\n        /* \"#utility.yul\":3325:3627   */\n      pop\n        /* \"#utility.yul\":3095:3634   */\n      swap3\n      swap2\n      pop\n      pop\n      jump\t// out\n        /* \"#utility.yul\":3640:3754   */\n    tag_38:\n        /* \"#utility.yul\":3707:3713   */\n      0x00\n        /* \"#utility.yul\":3741:3746   */\n      dup2\n        /* \"#utility.yul\":3735:3747   */\n      mload\n        /* \"#utility.yul\":3725:3747   */\n      swap1\n      pop\n        /* \"#utility.yul\":3640:3754   */\n      swap2\n      swap1\n      pop\n      jump\t// out\n        /* \"#utility.yul\":3760:3952   */\n    tag_39:\n        /* \"#utility.yul\":3867:3878   */\n      0x00\n        /* \"#utility.yul\":3901:3907   */\n      dup3\n        /* \"#utility.yul\":3896:3899   */\n      dup3\n        /* \"#utility.yul\":3889:3908   */\n      mstore\n        /* \"#utility.yul\":3941:3945   */\n      0x20\n        /* \"#utility.yul\":3936:3939   */\n      dup3\n        /* \"#utility.yul\":3932:3946   */\n      add\n        /* \"#utility.yul\":3917:3946   */\n      swap1\n      pop\n        /* \"#utility.yul\":3760:3952   */\n      swap3\n      swap2\n      pop\n      pop\n      jump\t// out\n        /* \"#utility.yul\":3958:4090   */\n    tag_40:\n        /* \"#utility.yul\":4025:4029   */\n      0x00\n        /* \"#utility.yul\":4048:4051   */\n      dup2\n        /* \"#utility.yul\":4040:4051   */\n      swap1\n      pop\n        /* \"#utility.yul\":4078:4082   */\n      0x20\n        /* \"#utility.yul\":4073:4076   */\n      dup3\n        /* \"#utility.yul\":4069:4083   */\n      add\n        /* \"#utility.yul\":4061:4083   */\n      swap1\n      pop\n        /* \"#utility.yul\":3958:4090   */\n      swap2\n      swap1\n      pop\n      jump\t// out\n        /* \"#utility.yul\":4096:4212   */\n    tag_41:\n        /* \"#utility.yul\":4181:4205   */\n      tag_93\n        /* \"#utility.yul\":4199:4204   */\n      dup2\n        /* \"#utility.yul\":4181:4205   */\n      tag_33\n      jump\t// in\n    tag_93:\n        /* \"#utility.yul\":4176:4179   */\n      dup3\n        /* \"#utility.yul\":4169:4206   */\n      mstore\n        /* \"#utility.yul\":4096:4212   */\n      pop\n      pop\n      jump\t// out\n        /* \"#utility.yul\":4218:4413   */\n    tag_42:\n        /* \"#utility.yul\":4295:4305   */\n      0x00\n        /* \"#utility.yul\":4316:4370   */\n      tag_95\n        /* \"#utility.yul\":4366:4369   */\n      dup4\n        /* \"#utility.yul\":4358:4364   */\n      dup4\n        /* \"#utility.yul\":4316:4370   */\n      tag_41\n      jump\t// in\n    tag_95:\n        /* \"#utility.yul\":4402:4406   */\n      0x20\n        /* \"#utility.yul\":4397:4400   */\n      dup4\n        /* \"#utility.yul\":4393:4407   */\n      add\n        /* \"#utility.yul\":4379:4407   */\n      swap1\n      pop\n        /* \"#utility.yul\":4218:4413   */\n      swap3\n      swap2\n      pop\n      pop\n      jump\t// out\n        /* \"#utility.yul\":4419:4532   */\n    tag_43:\n        /* \"#utility.yul\":4489:4493   */\n      0x00\n        /* \"#utility.yul\":4521:4525   */\n      0x20\n        /* \"#utility.yul\":4516:4519   */\n      dup3\n        /* \"#utility.yul\":4512:4526   */\n      add\n        /* \"#utility.yul\":4504:4526   */\n      swap1\n      pop\n        /* \"#utility.yul\":4419:4532   */\n      swap2\n      swap1\n      pop\n      jump\t// out\n        /* \"#utility.yul\":4568:5324   */\n    tag_44:\n        /* \"#utility.yul\":4695:4698   */\n      0x00\n        /* \"#utility.yul\":4724:4778   */\n      tag_98\n        /* \"#utility.yul\":4772:4777   */\n      dup3\n        /* \"#utility.yul\":4724:4778   */\n      tag_38\n      jump\t// in\n    tag_98:\n        /* \"#utility.yul\":4794:4888   */\n      tag_99\n        /* \"#utility.yul\":4881:4887   */\n      dup2\n        /* \"#utility.yul\":4876:4879   */\n      dup6\n        /* \"#utility.yul\":4794:4888   */\n      tag_39\n      jump\t// in\n    tag_99:\n        /* \"#utility.yul\":4787:4888   */\n      swap4\n      pop\n        /* \"#utility.yul\":4912:4968   */\n      tag_100\n        /* \"#utility.yul\":4962:4967   */\n      dup4\n        /* \"#utility.yul\":4912:4968   */\n      tag_40\n      jump\t// in\n    tag_100:\n        /* \"#utility.yul\":4991:4998   */\n      dup1\n        /* \"#utility.yul\":5022:5023   */\n      0x00\n        /* \"#utility.yul\":5007:5299   */\n    tag_101:\n        /* \"#utility.yul\":5032:5038   */\n      dup4\n        /* \"#utility.yul\":5029:5030   */\n      dup2\n        /* \"#utility.yul\":5026:5039   */\n      lt\n        /* \"#utility.yul\":5007:5299   */\n      iszero\n      tag_103\n      jumpi\n        /* \"#utility.yul\":5108:5114   */\n      dup2\n        /* \"#utility.yul\":5102:5115   */\n      mload\n        /* \"#utility.yul\":5135:5206   */\n      tag_104\n        /* \"#utility.yul\":5202:5205   */\n      dup9\n        /* \"#utility.yul\":5187:5200   */\n      dup3\n        /* \"#utility.yul\":5135:5206   */\n      tag_42\n      jump\t// in\n    tag_104:\n        /* \"#utility.yul\":5128:5206   */\n      swap8\n      pop\n        /* \"#utility.yul\":5229:5289   */\n      tag_105\n        /* \"#utility.yul\":5282:5288   */\n      dup4\n        /* \"#utility.yul\":5229:5289   */\n      tag_43\n      jump\t// in\n    tag_105:\n        /* \"#utility.yul\":5219:5289   */\n      swap3\n      pop\n        /* \"#utility.yul\":5067:5299   */\n      pop\n        /* \"#utility.yul\":5054:5055   */\n      0x01\n        /* \"#utility.yul\":5051:5052   */\n      dup2\n        /* \"#utility.yul\":5047:5056   */\n      add\n        /* \"#utility.yul\":5042:5056   */\n      swap1\n      pop\n        /* \"#utility.yul\":5007:5299   */\n      jump(tag_101)\n    tag_103:\n        /* \"#utility.yul\":5011:5025   */\n      pop\n        /* \"#utility.yul\":5315:5318   */\n      dup6\n        /* \"#utility.yul\":5308:5318   */\n      swap4\n      pop\n        /* \"#utility.yul\":4700:5324   */\n      pop\n      pop\n      pop\n        /* \"#utility.yul\":4568:5324   */\n      swap3\n      swap2\n      pop\n      pop\n      jump\t// out\n        /* \"#utility.yul\":5330:5719   */\n    tag_8:\n        /* \"#utility.yul\":5481:5485   */\n      0x00\n        /* \"#utility.yul\":5519:5521   */\n      0x20\n        /* \"#utility.yul\":5508:5517   */\n      dup3\n        /* \"#utility.yul\":5504:5522   */\n      add\n        /* \"#utility.yul\":5496:5522   */\n      swap1\n      pop\n        /* \"#utility.yul\":5568:5577   */\n      dup2\n        /* \"#utility.yul\":5562:5566   */\n      dup2\n        /* \"#utility.yul\":5558:5578   */\n      sub\n        /* \"#utility.yul\":5554:5555   */\n      0x00\n        /* \"#utility.yul\":5543:5552   */\n      dup4\n        /* \"#utility.yul\":5539:5556   */\n      add\n        /* \"#utility.yul\":5532:5579   */\n      mstore\n        /* \"#utility.yul\":5596:5712   */\n      tag_107\n        /* \"#utility.yul\":5707:5711   */\n      dup2\n        /* \"#utility.yul\":5698:5704   */\n      dup5\n        /* \"#utility.yul\":5596:5712   */\n      tag_44\n      jump\t// in\n    tag_107:\n        /* \"#utility.yul\":5588:5712   */\n      swap1\n      pop\n        /* \"#utility.yul\":5330:5719   */\n      swap3\n      swap2\n      pop\n      pop\n      jump\t// out\n        /* \"#utility.yul\":5725:5905   */\n    tag_19:\n        /* \"#utility.yul\":5773:5850   */\n      0x4e487b7100000000000000000000000000000000000000000000000000000000\n        /* \"#utility.yul\":5770:5771   */\n      0x00\n        /* \"#utility.yul\":5763:5851   */\n      mstore\n        /* \"#utility.yul\":5870:5874   */\n      0x32\n        /* \"#utility.yul\":5867:5868   */\n      0x04\n        /* \"#utility.yul\":5860:5875   */\n      mstore\n        /* \"#utility.yul\":5894:5898   */\n      0x24\n        /* \"#utility.yul\":5891:5892   */\n      0x00\n        /* \"#utility.yul\":5884:5899   */\n      revert\n        /* \"#utility.yul\":5911:6091   */\n    tag_45:\n        /* \"#utility.yul\":5959:6036   */\n      0x4e487b7100000000000000000000000000000000000000000000000000000000\n        /* \"#utility.yul\":5956:5957   */\n      0x00\n        /* \"#utility.yul\":5949:6037   */\n      mstore\n        /* \"#utility.yul\":6056:6060   */\n      0x11\n        /* \"#utility.yul\":6053:6054   */\n      0x04\n        /* \"#utility.yul\":6046:6061   */\n      mstore\n        /* \"#utility.yul\":6080:6084   */\n      0x24\n        /* \"#utility.yul\":6077:6078   */\n      0x00\n        /* \"#utility.yul\":6070:6085   */\n      revert\n        /* \"#utility.yul\":6097:6507   */\n    tag_21:\n        /* \"#utility.yul\":6137:6144   */\n      0x00\n        /* \"#utility.yul\":6160:6180   */\n      tag_111\n        /* \"#utility.yul\":6178:6179   */\n      dup3\n        /* \"#utility.yul\":6160:6180   */\n      tag_33\n      jump\t// in\n    tag_111:\n        /* \"#utility.yul\":6155:6180   */\n      swap2\n      pop\n        /* \"#utility.yul\":6194:6214   */\n      tag_112\n        /* \"#utility.yul\":6212:6213   */\n      dup4\n        /* \"#utility.yul\":6194:6214   */\n      tag_33\n      jump\t// in\n    tag_112:\n        /* \"#utility.yul\":6189:6214   */\n      swap3\n      pop\n        /* \"#utility.yul\":6249:6250   */\n      dup3\n        /* \"#utility.yul\":6246:6247   */\n      dup3\n        /* \"#utility.yul\":6242:6251   */\n      mul\n        /* \"#utility.yul\":6271:6301   */\n      tag_113\n        /* \"#utility.yul\":6289:6300   */\n      dup2\n        /* \"#utility.yul\":6271:6301   */\n      tag_33\n      jump\t// in\n    tag_113:\n        /* \"#utility.yul\":6260:6301   */\n      swap2\n      pop\n        /* \"#utility.yul\":6450:6451   */\n      dup3\n        /* \"#utility.yul\":6441:6448   */\n      dup3\n        /* \"#utility.yul\":6437:6452   */\n      div\n        /* \"#utility.yul\":6434:6435   */\n      dup5\n        /* \"#utility.yul\":6431:6453   */\n      eq\n        /* \"#utility.yul\":6411:6412   */\n      dup4\n        /* \"#utility.yul\":6404:6413   */\n      iszero\n        /* \"#utility.yul\":6384:6467   */\n      or\n        /* \"#utility.yul\":6361:6500   */\n      tag_114\n      jumpi\n        /* \"#utility.yul\":6480:6498   */\n      tag_115\n      tag_45\n      jump\t// in\n    tag_115:\n        /* \"#utility.yul\":6361:6500   */\n    tag_114:\n        /* \"#utility.yul\":6145:6507   */\n      pop\n        /* \"#utility.yul\":6097:6507   */\n      swap3\n      swap2\n      pop\n      pop\n      jump\t// out\n\n    auxdata: 0xa2646970667358221220e8f293a1ecb841ba8aae0c3d5cd028e910bbf6c3ea04d7a10d2104d0c49d05c164736f6c63430008160033\n}\n",
				"bytecode": {
					"linkReferences": {},
					"object": "6104a261004e600b8282823980515f1a607314610042577f4e487b71000000000000000000000000000000000000000000000000000000005f525f60045260245ffd5b305f52607381538281f3fe7300000000000000000000000000000000000000003014608060405260043610610034575f3560e01c8063e3fa0ff714610038575b5f80fd5b610052600480360381019061004d91906102b3565b610068565b60405161005f91906103b1565b60405180910390f35b60605f825167ffffffffffffffff81111561008657610085610144565b5b6040519080825280602002602001820160405280156100b45781602001602082028036833780820191505090505b5090505f5b83518110156101155760028482815181106100d7576100d66103d1565b5b60200260200101516100e9919061042b565b8282815181106100fc576100fb6103d1565b5b60200260200101818152505080806001019150506100b9565b5080915050919050565b5f604051905090565b5f80fd5b5f80fd5b5f80fd5b5f601f19601f8301169050919050565b7f4e487b71000000000000000000000000000000000000000000000000000000005f52604160045260245ffd5b61017a82610134565b810181811067ffffffffffffffff8211171561019957610198610144565b5b80604052505050565b5f6101ab61011f565b90506101b78282610171565b919050565b5f67ffffffffffffffff8211156101d6576101d5610144565b5b602082029050602081019050919050565b5f80fd5b5f819050919050565b6101fd816101eb565b8114610207575f80fd5b50565b5f81359050610218816101f4565b92915050565b5f61023061022b846101bc565b6101a2565b90508083825260208201905060208402830185811115610253576102526101e7565b5b835b8181101561027c5780610268888261020a565b845260208401935050602081019050610255565b5050509392505050565b5f82601f83011261029a57610299610130565b5b81356102aa84826020860161021e565b91505092915050565b5f602082840312156102c8576102c7610128565b5b5f82013567ffffffffffffffff8111156102e5576102e461012c565b5b6102f184828501610286565b91505092915050565b5f81519050919050565b5f82825260208201905092915050565b5f819050602082019050919050565b61032c816101eb565b82525050565b5f61033d8383610323565b60208301905092915050565b5f602082019050919050565b5f61035f826102fa565b6103698185610304565b935061037483610314565b805f5b838110156103a457815161038b8882610332565b975061039683610349565b925050600181019050610377565b5085935050505092915050565b5f6020820190508181035f8301526103c98184610355565b905092915050565b7f4e487b71000000000000000000000000000000000000000000000000000000005f52603260045260245ffd5b7f4e487b71000000000000000000000000000000000000000000000000000000005f52601160045260245ffd5b5f610435826101eb565b9150610440836101eb565b925082820261044e816101eb565b91508282048414831517610465576104646103fe565b5b509291505056fea2646970667358221220e8f293a1ecb841ba8aae0c3d5cd028e910bbf6c3ea04d7a10d2104d0c49d05c164736f6c63430008160033",
					"opcodes": "PUSH2 0x4A2 PUSH2 0x4E PUSH1 0xB DUP3 DUP3 DUP3 CODECOPY DUP1 MLOAD PUSH0 BYTE PUSH1 0x73 EQ PUSH2 0x42 JUMPI PUSH32 0x4E487B7100000000000000000000000000000000000000000000000000000000 PUSH0 MSTORE PUSH0 PUSH1 0x4 MSTORE PUSH1 0x24 PUSH0 REVERT JUMPDEST ADDRESS PUSH0 MSTORE PUSH1 0x73 DUP2 MSTORE8 DUP3 DUP2 RETURN INVALID PUSH20 0x0 ADDRESS EQ PUSH1 0x80 PUSH1 0x40 MSTORE PUSH1 0x4 CALLDATASIZE LT PUSH2 0x34 JUMPI PUSH0 CALLDATALOAD PUSH1 0xE0 SHR DUP1 PUSH4 0xE3FA0FF7 EQ PUSH2 0x38 JUMPI JUMPDEST PUSH0 DUP1 REVERT JUMPDEST PUSH2 0x52 PUSH1 0x4 DUP1 CALLDATASIZE SUB DUP2 ADD SWAP1 PUSH2 0x4D SWAP2 SWAP1 PUSH2 0x2B3 JUMP JUMPDEST PUSH2 0x68 JUMP JUMPDEST PUSH1 0x40 MLOAD PUSH2 0x5F SWAP2 SWAP1 PUSH2 0x3B1 JUMP JUMPDEST PUSH1 0x40 MLOAD DUP1 SWAP2 SUB SWAP1 RETURN JUMPDEST PUSH1 0x60 PUSH0 DUP3 MLOAD PUSH8 0xFFFFFFFFFFFFFFFF DUP2 GT ISZERO PUSH2 0x86 JUMPI PUSH2 0x85 PUSH2 0x144 JUMP JUMPDEST JUMPDEST PUSH1 0x40 MLOAD SWAP1 DUP1 DUP3 MSTORE DUP1 PUSH1 0x20 MUL PUSH1 0x20 ADD DUP3 ADD PUSH1 0x40 MSTORE DUP1 ISZERO PUSH2 0xB4 JUMPI DUP2 PUSH1 0x20 ADD PUSH1 0x20 DUP3 MUL DUP1 CALLDATASIZE DUP4 CALLDATACOPY DUP1 DUP3 ADD SWAP2 POP POP SWAP1 POP JUMPDEST POP SWAP1 POP PUSH0 JUMPDEST DUP4 MLOAD DUP2 LT ISZERO PUSH2 0x115 JUMPI PUSH1 0x2 DUP5 DUP3 DUP2 MLOAD DUP2 LT PUSH2 0xD7 JUMPI PUSH2 0xD6 PUSH2 0x3D1 JUMP JUMPDEST JUMPDEST PUSH1 0x20 MUL PUSH1 0x20 ADD ADD MLOAD PUSH2 0xE9 SWAP2 SWAP1 PUSH2 0x42B JUMP JUMPDEST DUP3 DUP3 DUP2 MLOAD DUP2 LT PUSH2 0xFC JUMPI PUSH2 0xFB PUSH2 0x3D1 JUMP JUMPDEST JUMPDEST PUSH1 0x20 MUL PUSH1 0x20 ADD ADD DUP2 DUP2 MSTORE POP POP DUP1 DUP1 PUSH1 0x1 ADD SWAP2 POP POP PUSH2 0xB9 JUMP JUMPDEST POP DUP1 SWAP2 POP POP SWAP2 SWAP1 POP JUMP JUMPDEST PUSH0 PUSH1 0x40 MLOAD SWAP1 POP SWAP1 JUMP JUMPDEST PUSH0 DUP1 REVERT JUMPDEST PUSH0 DUP1 REVERT JUMPDEST PUSH0 DUP1 REVERT JUMPDEST PUSH0 PUSH1 0x1F NOT PUSH1 0x1F DUP4 ADD AND SWAP1 POP SWAP2 SWAP1 POP JUMP JUMPDEST PUSH32 0x4E487B7100000000000000000000000000000000000000000000000000000000 PUSH0 MSTORE PUSH1 0x41 PUSH1 0x4 MSTORE PUSH1 0x24 PUSH0 REVERT JUMPDEST PUSH2 0x17A DUP3 PUSH2 0x134 JUMP JUMPDEST DUP2 ADD DUP2 DUP2 LT PUSH8 0xFFFFFFFFFFFFFFFF DUP3 GT OR ISZERO PUSH2 0x199 JUMPI PUSH2 0x198 PUSH2 0x144 JUMP JUMPDEST JUMPDEST DUP1 PUSH1 0x40 MSTORE POP POP POP JUMP JUMPDEST PUSH0 PUSH2 0x1AB PUSH2 0x11F JUMP JUMPDEST SWAP1 POP PUSH2 0x1B7 DUP3 DUP3 PUSH2 0x171 JUMP JUMPDEST SWAP2 SWAP1 POP JUMP JUMPDEST PUSH0 PUSH8 0xFFFFFFFFFFFFFFFF DUP3 GT ISZERO PUSH2 0x1D6 JUMPI PUSH2 0x1D5 PUSH2 0x144 JUMP JUMPDEST JUMPDEST PUSH1 0x20 DUP3 MUL SWAP1 POP PUSH1 0x20 DUP2 ADD SWAP1 POP SWAP2 SWAP1 POP JUMP JUMPDEST PUSH0 DUP1 REVERT JUMPDEST PUSH0 DUP2 SWAP1 POP SWAP2 SWAP1 POP JUMP JUMPDEST PUSH2 0x1FD DUP2 PUSH2 0x1EB JUMP JUMPDEST DUP2 EQ PUSH2 0x207 JUMPI PUSH0 DUP1 REVERT JUMPDEST POP JUMP JUMPDEST PUSH0 DUP2 CALLDATALOAD SWAP1 POP PUSH2 0x218 DUP2 PUSH2 0x1F4 JUMP JUMPDEST SWAP3 SWAP2 POP POP JUMP JUMPDEST PUSH0 PUSH2 0x230 PUSH2 0x22B DUP5 PUSH2 0x1BC JUMP JUMPDEST PUSH2 0x1A2 JUMP JUMPDEST SWAP1 POP DUP1 DUP4 DUP3 MSTORE PUSH1 0x20 DUP3 ADD SWAP1 POP PUSH1 0x20 DUP5 MUL DUP4 ADD DUP6 DUP2 GT ISZERO PUSH2 0x253 JUMPI PUSH2 0x252 PUSH2 0x1E7 JUMP JUMPDEST JUMPDEST DUP4 JUMPDEST DUP2 DUP2 LT ISZERO PUSH2 0x27C JUMPI DUP1 PUSH2 0x268 DUP9 DUP3 PUSH2 0x20A JUMP JUMPDEST DUP5 MSTORE PUSH1 0x20 DUP5 ADD SWAP4 POP POP PUSH1 0x20 DUP2 ADD SWAP1 POP PUSH2 0x255 JUMP JUMPDEST POP POP POP SWAP4 SWAP3 POP POP POP JUMP JUMPDEST PUSH0 DUP3 PUSH1 0x1F DUP4 ADD SLT PUSH2 0x29A JUMPI PUSH2 0x299 PUSH2 0x130 JUMP JUMPDEST JUMPDEST DUP2 CALLDATALOAD PUSH2 0x2AA DUP5 DUP3 PUSH1 0x20 DUP7 ADD PUSH2 0x21E JUMP JUMPDEST SWAP2 POP POP SWAP3 SWAP2 POP POP JUMP JUMPDEST PUSH0 PUSH1 0x20 DUP3 DUP5 SUB SLT ISZERO PUSH2 0x2C8 JUMPI PUSH2 0x2C7 PUSH2 0x128 JUMP JUMPDEST JUMPDEST PUSH0 DUP3 ADD CALLDATALOAD PUSH8 0xFFFFFFFFFFFFFFFF DUP2 GT ISZERO PUSH2 0x2E5 JUMPI PUSH2 0x2E4 PUSH2 0x12C JUMP JUMPDEST JUMPDEST PUSH2 0x2F1 DUP5 DUP3 DUP6 ADD PUSH2 0x286 JUMP JUMPDEST SWAP2 POP POP SWAP3 SWAP2 POP POP JUMP JUMPDEST PUSH0 DUP2 MLOAD SWAP1 POP SWAP2 SWAP1 POP JUMP JUMPDEST PUSH0 DUP3 DUP3 MSTORE PUSH1 0x20 DUP3 ADD SWAP1 POP SWAP3 SWAP2 POP POP JUMP JUMPDEST PUSH0 DUP2 SWAP1 POP PUSH1 0x20 DUP3 ADD SWAP1 POP SWAP2 SWAP1 POP JUMP JUMPDEST PUSH2 0x32C DUP2 PUSH2 0x1EB JUMP JUMPDEST DUP3 MSTORE POP POP JUMP JUMPDEST PUSH0 PUSH2 0x33D DUP4 DUP4 PUSH2 0x323 JUMP JUMPDEST PUSH1 0x20 DUP4 ADD SWAP1 POP SWAP3 SWAP2 POP POP JUMP JUMPDEST PUSH0 PUSH1 0x20 DUP3 ADD SWAP1 POP SWAP2 SWAP1 POP JUMP JUMPDEST PUSH0 PUSH2 0x35F DUP3 PUSH2 0x2FA JUMP JUMPDEST PUSH2 0x369 DUP2 DUP6 PUSH2 0x304 JUMP JUMPDEST SWAP4 POP PUSH2 0x374 DUP4 PUSH2 0x314 JUMP JUMPDEST DUP1 PUSH0 JUMPDEST DUP4 DUP2 LT ISZERO PUSH2 0x3A4 JUMPI DUP2 MLOAD PUSH2 0x38B DUP9 DUP3 PUSH2 0x332 JUMP JUMPDEST SWAP8 POP PUSH2 0x396 DUP4 PUSH2 0x349 JUMP JUMPDEST SWAP3 POP POP PUSH1 0x1 DUP2 ADD SWAP1 POP PUSH2 0x377 JUMP JUMPDEST POP DUP6 SWAP4 POP POP POP POP SWAP3 SWAP2 POP POP JUMP JUMPDEST PUSH0 PUSH1 0x20 DUP3 ADD SWAP1 POP DUP2 DUP2 SUB PUSH0 DUP4 ADD MSTORE PUSH2 0x3C9 DUP2 DUP5 PUSH2 0x355 JUMP JUMPDEST SWAP1 POP SWAP3 SWAP2 POP POP JUMP JUMPDEST PUSH32 0x4E487B7100000000000000000000000000000000000000000000000000000000 PUSH0 MSTORE PUSH1 0x32 PUSH1 0x4 MSTORE PUSH1 0x24 PUSH0 REVERT JUMPDEST PUSH32 0x4E487B7100000000000000000000000000000000000000000000000000000000 PUSH0 MSTORE PUSH1 0x11 PUSH1 0x4 MSTORE PUSH1 0x24 PUSH0 REVERT JUMPDEST PUSH0 PUSH2 0x435 DUP3 PUSH2 0x1EB JUMP JUMPDEST SWAP2 POP PUSH2 0x440 DUP4 PUSH2 0x1EB JUMP JUMPDEST SWAP3 POP DUP3 DUP3 MUL PUSH2 0x44E DUP2 PUSH2 0x1EB JUMP JUMPDEST SWAP2 POP DUP3 DUP3 DIV DUP5 EQ DUP4 ISZERO OR PUSH2 0x465 JUMPI PUSH2 0x464 PUSH2 0x3FE JUMP JUMPDEST JUMPDEST POP SWAP3 SWAP2 POP POP JUMP INVALID LOG2 PUSH5 0x6970667358 0x22 SLT KECCAK256 0xE8 CALLCODE SWAP4 LOG1 0xEC 0xB8 COINBASE 0xBA DUP11 0xAE 0xC RETURNDATASIZE 0x5C 0xD0 0x28 0xE9 LT 0xBB 0xF6 0xC3 0xEA DIV 0xD7 LOG1 0xD 0x21 DIV 0xD0 0xC4 SWAP14 SDIV 0xC1 PUSH5 0x736F6C6343 STOP ADDMOD AND STOP CALLER "
				},
				"gasEstimates": {
					"creation": {
						"codeDepositCost": "237200",
						"executionCost": "304",
						"totalCost": "237504"
					},
					"external": {
						"double(uint256[])": "infinite"
					}
				},
				"methodIdentifiers": {
					"double(uint256[])": "e3fa0ff7"
				}
			},
			"storageLayout": {
				"storage": [],
				"types": null
			},
			"userdoc": {
				"kind": "user",
				"methods": {},
				"version": 1
			}
		}
	}
}