{
	"data": {
		"bytecode": {
			"linkReferences": {},
			"object": "608060405234801561000f575f80fd5b5061033b8061001d5f395ff3fe608060405234801561000f575f80fd5b506004361061003f575f3560e01c8063456901e4146100435780635a5e80e714610073578063950b9954146100a3575b5f80fd5b61005d600480360381019061005891906101b1565b6100d3565b60405161006a91906101eb565b60405180910390f35b61008d600480360381019061008891906101b1565b610110565b60405161009a91906101eb565b60405180910390f35b6100bd60048036038101906100b891906101b1565b610147565b6040516100ca91906101eb565b60405180910390f35b5f805f90505f5b600a8110156101065780826100ef9190610231565b9150808403156101065780806001019150506100da565b5080915050919050565b5f805f90505b5f831461013e57808061012890610264565b9150508280610136906102ab565b935050610116565b80915050919050565b5f600a8211156101655760018261015e9190610231565b9050610175565b60018261017291906102d2565b90505b919050565b5f80fd5b5f819050919050565b6101908161017e565b811461019a575f80fd5b50565b5f813590506101ab81610187565b92915050565b5f602082840312156101c6576101c561017a565b5b5f6101d38482850161019d565b91505092915050565b6101e58161017e565b82525050565b5f6020820190506101fe5f8301846101dc565b92915050565b7f4e487b71000000000000000000000000000000000000000000000000000000005f52601160045260245ffd5b5f61023b8261017e565b91506102468361017e565b925082820190508082111561025e5761025d610204565b5b92915050565b5f61026e8261017e565b91507fffffffffffffffffffffffffffffffffffffffffffffffffffffffffffffffff82036102a05761029f610204565b5b600182019050919050565b5f6102b58261017e565b91505f82036102c7576102c6610204565b5b600182039050919050565b5f6102dc8261017e565b91506102e78361017e565b92508282039050818111156102ff576102fe610204565b5b9291505056fea26469706673582212209f1e51d4e89acf85d55d318d52ac0a6089b4a86c2aac2286abe445d07a32f70764736f6c63430008160033",
			"opcodes": "PUSH1 0x80 PUSH1 0x40 MSTORE CALLVALUE DUP1 ISZERO PUSH2 0xF JUMPI PUSH0 DUP1 REVERT JUMPDEST POP PUSH2 0x33B DUP1 PUSH2 0x1D PUSH0 CODECOPY PUSH0 RETURN INVALID PUSH1 0x80 PUSH1 0x40 MSTORE CALLVALUE DUP1 ISZERO PUSH2 0xF JUMPI PUSH0 DUP1 REVERT JUMPDEST POP PUSH1 0x4 CALLDATASIZE LT PUSH2 0x3F JUMPI PUSH0 CALLDATALOAD PUSH1 0xE0 SHR DUP1 PUSH4 0x456901E4 EQ PUSH2 0x43 JUMPI DUP1 PUSH4 0x5A5E80E7 EQ PUSH2 0x73 JUMPI DUP1 PUSH4 0x950B9954 EQ PUSH2 0xA3 JUMPI JUMPDEST PUSH0 DUP1 REVERT JUMPDEST PUSH2 0x5D PUSH1 0x4 DUP1 CALLDATASIZE SUB DUP2 ADD SWAP1 PUSH2 0x58 SWAP2 SWAP1 PUSH2 0x1B1 JUMP JUMPDEST PUSH2 0xD3 JUMP JUMPDEST PUSH1 0x40 MLOAD PUSH2 0x6A SWAP2 SWAP1 PUSH2 0x1EB JUMP JUMPDEST PUSH1 0x40 MLOAD DUP1 SWAP2 SUB SWAP1 RETURN JUMPDEST PUSH2 0x8D PUSH1 0x4 DUP1 CALLDATASIZE SUB DUP2 ADD SWAP1 PUSH2 0x88 SWAP2 SWAP1 PUSH2 0x1B1 JUMP JUMPDEST PUSH2 0x110 JUMP JUMPDEST PUSH1 0x40 MLOAD PUSH2 0x9A SWAP2 SWAP1 PUSH2 0x1EB JUMP JUMPDEST PUSH1 0x40 MLOAD DUP1 SWAP2 SUB SWAP1 RETURN JUMPDEST PUSH2 0xBD PUSH1 0x4 DUP1 CALLDATASIZE SUB DUP2 ADD SWAP1 PUSH2 0xB8 SWAP2 SWAP1 PUSH2 0x1B1 JUMP JUMPDEST PUSH2 0x147 JUMP JUMPDEST PUSH1 0x40 MLOAD PUSH2 0xCA SWAP2 SWAP1 PUSH2 0x1EB JUMP JUMPDEST PUSH1 0x40 MLOAD DUP1 SWAP2 SUB SWAP1 RETURN JUMPDEST PUSH0 DUP1 PUSH0 SWAP1 POP PUSH0 JUMPDEST PUSH1 0xA DUP2 LT ISZERO PUSH2 0x106 JUMPI DUP1 DUP3 PUSH2 0xEF SWAP2 SWAP1 PUSH2 0x231 JUMP JUMPDEST SWAP2 POP DUP1 DUP5 SUB ISZERO PUSH2 0x106 JUMPI DUP1 DUP1 PUSH1 0x1 ADD SWAP2 POP POP PUSH2 0xDA JUMP JUMPDEST POP DUP1 SWAP2 POP POP SWAP2 SWAP1 POP JUMP JUMPDEST PUSH0 DUP1 PUSH0 SWAP1 POP JUMPDEST PUSH0 DUP4 EQ PUSH2 0x13E JUMPI DUP1 DUP1 PUSH2 0x128 SWAP1 PUSH2 0x264 JUMP JUMPDEST SWAP2 POP POP DUP3 DUP1 PUSH2 0x136 SWAP1 PUSH2 0x2AB JUMP JUMPDEST SWAP4 POP POP PUSH2 0x116 JUMP JUMPDEST DUP1 SWAP2 POP POP SWAP2 SWAP1 POP JUMP JUMPDEST PUSH0 PUSH1 0xA DUP3 GT ISZERO PUSH2 0x165 JUMPI PUSH1 0x1 DUP3 PUSH2 0x15E SWAP2 SWAP1 PUSH2 0x231 JUMP JUMPDEST SWAP1 POP PUSH2 0x175 JUMP JUMPDEST PUSH1 0x1 DUP3 PUSH2 0x172 SWAP2 SWAP1 PUSH2 0x2D2 JUMP JUMPDEST SWAP1 POP JUMPDEST SWAP2 SWAP1 POP JUMP JUMPDEST PUSH0 DUP1 REVERT JUMPDEST PUSH0 DUP2 SWAP1 POP SWAP2 SWAP1 POP JUMP JUMPDEST PUSH2 0x190 DUP2 PUSH2 0x17E JUMP JUMPDEST DUP2 EQ PUSH2 0x19A JUMPI PUSH0 DUP1 REVERT JUMPDEST POP JUMP JUMPDEST PUSH0 DUP2 CALLDATALOAD SWAP1 POP PUSH2 0x1AB DUP2 PUSH2 0x187 JUMP JUMPDEST SWAP3 SWAP2 POP POP JUMP JUMPDEST PUSH0 PUSH1 0x20 DUP3 DUP5 SUB SLT ISZERO PUSH2 0x1C6 JUMPI PUSH2 0x1C5 PUSH2 0x17A JUMP JUMPDEST JUMPDEST PUSH0 PUSH2 0x1D3 DUP5 DUP3 DUP6 ADD PUSH2 0x19D JUMP JUMPDEST SWAP2 POP POP SWAP3 SWAP2 POP POP JUMP JUMPDEST PUSH2 0x1E5 DUP2 PUSH2 0x17E JUMP JUMPDEST DUP3 MSTORE POP POP JUMP JUMPDEST PUSH0 PUSH1 0x20 DUP3 ADD SWAP1 POP PUSH2 0x1FE PUSH0 DUP4 ADD DUP5 PUSH2 0x1DC JUMP JUMPDEST SWAP3 SWAP2 POP POP JUMP JUMPDEST PUSH32 0x4E487B7100000000000000000000000000000000000000000000000000000000 PUSH0 MSTORE PUSH1 0x11 PUSH1 0x4 MSTORE PUSH1 0x24 PUSH0 REVERT JUMPDEST PUSH0 PUSH2 0x23B DUP3 PUSH2 0x17E JUMP JUMPDEST SWAP2 POP PUSH2 0x246 DUP4 PUSH2 0x17E JUMP JUMPDEST SWAP3 POP DUP3 DUP3 ADD SWAP1 POP DUP1 DUP3 GT ISZERO PUSH2 0x25E JUMPI PUSH2 0x25D PUSH2 0x204 JUMP JUMPDEST JUMPDEST SWAP3 SWAP2 POP POP JUMP JUMPDEST PUSH0 PUSH2 0x26E DUP3 PUSH2 0x17E JUMP JUMPDEST SWAP2 POP PUSH32 0xFFFFFFFFFFFFFFFFFFFFFFFFFFFFFFFFFFFFFFFFFFFFFFFFFFFFFFFFFFFFFFFF DUP3 SUB PUSH2 0x2A0 JUMPI PUSH2 0x29F PUSH2 0x204 JUMP JUMPDEST JUMPDEST PUSH1 0x1 DUP3 ADD SWAP1 POP SWAP2 SWAP1 POP JUMP JUMPDEST PUSH0 PUSH2 0x2B5 DUP3 PUSH2 0x17E JUMP JUMPDEST SWAP2 POP PUSH0 DUP3 SUB PUSH2 0x2C7 JUMPI PUSH2 0x2C6 PUSH2 0x204 JUMP JUMPDEST JUMPDEST PUSH1 0x1 DUP3 SUB SWAP1 POP SWAP2 SWAP1 POP JUMP JUMPDEST PUSH0 PUSH2 0x2DC DUP3 PUSH2 0x17E JUMP JUMPDEST SWAP2 POP PUSH2 0x2E7 DUP4 PUSH2 0x17E JUMP JUMPDEST SWAP3 POP DUP3 DUP3 SUB SWAP1 POP DUP2 DUP2 GT ISZERO PUSH2 0x2FF JUMPI PUSH2 0x2FE PUSH2 0x204 JUMP JUMPDEST JUMPDEST SWAP3 SWAP2 POP POP JUMP INVALID LOG2 PUSH5 0x6970667358 0x22 SLT KECCAK256 SWAP16 0x1E MLOAD 0xD4 0xE8 SWAP11 0xCF DUP6 0xD5 0x5D BALANCE DUP14 MSTORE 0xAC EXP PUSH1 0x89 0xB4 0xA8 PUSH13 0x2AAC2286ABE445D07A32F70764 PUSH20 0x6F6C634300081600330000000000000000000000 "
		},
		"gasEstimates": {
			"creation": {
				"codeDepositCost": "165400",
				"executionCost": "206",
				"totalCost": "165606"
			},
			"external": {
				"forLoop(uint256)": "infinite",
				"ifElse(uint256)": "infinite",
				"whileLoop(uint256)": "infinite"
			}
		},
		"methodIdentifiers": {
			"forLoop(uint256)": "456901e4",
			"ifElse(uint256)": "950b9954",
			"whileLoop(uint256)": "5a5e80e7"
		}
	},
	"abi": [
		{
			"inputs": [
				{
					"internalType": "uint256",
					"name": "stop",
					"type": "uint256"
				}
			],
			"name": "forLoop",
			"outputs": [
				{
					"internalType": "uint256",
					"name": "",
					"type": "uint256"
				}
			],
			"stateMutability": "pure",
			"type": "function"
		},
		{
			"inputs": [
				{
					"internalType": "uint256",
					"name": "x",
					"type": "uint256"
				}
			],
			"name": "ifElse",
			"outputs": [
				{
					"internalType": "uint256",
					"name": "",
					"type": "uint256"
				}
			],
			"stateMutability": "pure",
			"type": "function"
		},
		{
			"inputs": [
				{
					"internalType": "uint256",
					"name": "number",
					"type": "uint256"
				}
			],
			"name": "whileLoop",
			"outputs": [
				{
					"internalType": "uint256",
					"name": "",
					"type": "uint256"
				}
			],
			"stateMutability": "pure",
			"type": "function"
		}
	]
}