{
	"data": {
		"bytecode": {
			"linkReferences": {},
			"object": "608060405234801562000010575f80fd5b5060405162000e9238038062000e92833981810160405281019062000036919062000274565b335f806101000a81548173ffffffffffffffffffffffffffffffffffffffff021916908373ffffffffffffffffffffffffffffffffffffffff16021790555060405180604001604052808381526020018281525060015f820151815f01556020820151816001019081620000ab919062000506565b509050505050620005ea565b5f604051905090565b5f80fd5b5f80fd5b5f819050919050565b620000dc81620000c8565b8114620000e7575f80fd5b50565b5f81519050620000fa81620000d1565b92915050565b5f80fd5b5f80fd5b5f601f19601f8301169050919050565b7f4e487b71000000000000000000000000000000000000000000000000000000005f52604160045260245ffd5b620001508262000108565b810181811067ffffffffffffffff8211171562000172576200017162000118565b5b80604052505050565b5f62000186620000b7565b905062000194828262000145565b919050565b5f67ffffffffffffffff821115620001b657620001b562000118565b5b620001c18262000108565b9050602081019050919050565b5f5b83811015620001ed578082015181840152602081019050620001d0565b5f8484015250505050565b5f6200020e620002088462000199565b6200017b565b9050828152602081018484840111156200022d576200022c62000104565b5b6200023a848285620001ce565b509392505050565b5f82601f83011262000259576200025862000100565b5b81516200026b848260208601620001f8565b91505092915050565b5f80604083850312156200028d576200028c620000c0565b5b5f6200029c85828601620000ea565b925050602083015167ffffffffffffffff811115620002c057620002bf620000c4565b5b620002ce8582860162000242565b9150509250929050565b5f81519050919050565b7f4e487b71000000000000000000000000000000000000000000000000000000005f52602260045260245ffd5b5f60028204905060018216806200032757607f821691505b6020821081036200033d576200033c620002e2565b5b50919050565b5f819050815f5260205f209050919050565b5f6020601f8301049050919050565b5f82821b905092915050565b5f60088302620003a17fffffffffffffffffffffffffffffffffffffffffffffffffffffffffffffffff8262000364565b620003ad868362000364565b95508019841693508086168417925050509392505050565b5f819050919050565b5f620003ee620003e8620003e284620000c8565b620003c5565b620000c8565b9050919050565b5f819050919050565b6200040983620003ce565b620004216200041882620003f5565b84845462000370565b825550505050565b5f90565b6200043762000429565b62000444818484620003fe565b505050565b5b818110156200046b576200045f5f826200042d565b6001810190506200044a565b5050565b601f821115620004ba57620004848162000343565b6200048f8462000355565b810160208510156200049f578190505b620004b7620004ae8562000355565b83018262000449565b50505b505050565b5f82821c905092915050565b5f620004dc5f1984600802620004bf565b1980831691505092915050565b5f620004f68383620004cb565b9150826002028217905092915050565b6200051182620002d8565b67ffffffffffffffff8111156200052d576200052c62000118565b5b6200053982546200030f565b620005468282856200046f565b5f60209050601f8311600181146200057c575f841562000567578287015190505b620005738582620004e9565b865550620005e2565b601f1984166200058c8662000343565b5f5b82811015620005b5578489015182556001820191506020850194506020810190506200058e565b86831015620005d55784890151620005d1601f891682620004cb565b8355505b6001600288020188555050505b505050505050565b61089a80620005f85f395ff3fe608060405234801561000f575f80fd5b506004361061004a575f3560e01c806324b1cc131461004e57806382b15f371461006c578063b4c89bea14610076578063e735b48a14610080575b5f80fd5b61005661009c565b60405161006391906102b3565b60405180910390f35b6100746100a7565b005b61007e610150565b005b61009a60048036038101906100959190610419565b6101f9565b005b5f60015f0154905090565b5f8054906101000a900473ffffffffffffffffffffffffffffffffffffffff1673ffffffffffffffffffffffffffffffffffffffff163373ffffffffffffffffffffffffffffffffffffffff1614610134576040517f08c379a000000000000000000000000000000000000000000000000000000000815260040161012b906104e0565b60405180910390fd5b6001805f015f828254610147919061052b565b92505081905550565b5f8054906101000a900473ffffffffffffffffffffffffffffffffffffffff1673ffffffffffffffffffffffffffffffffffffffff163373ffffffffffffffffffffffffffffffffffffffff16146101dd576040517f08c379a00000000000000000000000000000000000000000000000000000000081526004016101d4906104e0565b60405180910390fd5b6001805f015f8282546101f0919061055e565b92505081905550565b5f8054906101000a900473ffffffffffffffffffffffffffffffffffffffff1673ffffffffffffffffffffffffffffffffffffffff163373ffffffffffffffffffffffffffffffffffffffff1614610286576040517f08c379a000000000000000000000000000000000000000000000000000000000815260040161027d906104e0565b60405180910390fd5b806001800190816102979190610795565b5050565b5f819050919050565b6102ad8161029b565b82525050565b5f6020820190506102c65f8301846102a4565b92915050565b5f604051905090565b5f80fd5b5f80fd5b5f80fd5b5f80fd5b5f601f19601f8301169050919050565b7f4e487b71000000000000000000000000000000000000000000000000000000005f52604160045260245ffd5b61032b826102e5565b810181811067ffffffffffffffff8211171561034a576103496102f5565b5b80604052505050565b5f61035c6102cc565b90506103688282610322565b919050565b5f67ffffffffffffffff821115610387576103866102f5565b5b610390826102e5565b9050602081019050919050565b828183375f83830152505050565b5f6103bd6103b88461036d565b610353565b9050828152602081018484840111156103d9576103d86102e1565b5b6103e484828561039d565b509392505050565b5f82601f830112610400576103ff6102dd565b5b81356104108482602086016103ab565b91505092915050565b5f6020828403121561042e5761042d6102d5565b5b5f82013567ffffffffffffffff81111561044b5761044a6102d9565b5b610457848285016103ec565b91505092915050565b5f82825260208201905092915050565b7f6f6e6c7920746865206f776e65722063616e20696e6372656d656e74206f72205f8201527f64656372656d656e742074686520636f756e7465720000000000000000000000602082015250565b5f6104ca603583610460565b91506104d582610470565b604082019050919050565b5f6020820190508181035f8301526104f7816104be565b9050919050565b7f4e487b71000000000000000000000000000000000000000000000000000000005f52601160045260245ffd5b5f6105358261029b565b91506105408361029b565b9250828201905080821115610558576105576104fe565b5b92915050565b5f6105688261029b565b91506105738361029b565b925082820390508181111561058b5761058a6104fe565b5b92915050565b5f81519050919050565b7f4e487b71000000000000000000000000000000000000000000000000000000005f52602260045260245ffd5b5f60028204905060018216806105df57607f821691505b6020821081036105f2576105f161059b565b5b50919050565b5f819050815f5260205f209050919050565b5f6020601f8301049050919050565b5f82821b905092915050565b5f600883026106547fffffffffffffffffffffffffffffffffffffffffffffffffffffffffffffffff82610619565b61065e8683610619565b95508019841693508086168417925050509392505050565b5f819050919050565b5f61069961069461068f8461029b565b610676565b61029b565b9050919050565b5f819050919050565b6106b28361067f565b6106c66106be826106a0565b848454610625565b825550505050565b5f90565b6106da6106ce565b6106e58184846106a9565b505050565b5b81811015610708576106fd5f826106d2565b6001810190506106eb565b5050565b601f82111561074d5761071e816105f8565b6107278461060a565b81016020851015610736578190505b61074a6107428561060a565b8301826106ea565b50505b505050565b5f82821c905092915050565b5f61076d5f1984600802610752565b1980831691505092915050565b5f610785838361075e565b9150826002028217905092915050565b61079e82610591565b67ffffffffffffffff8111156107b7576107b66102f5565b5b6107c182546105c8565b6107cc82828561070c565b5f60209050601f8311600181146107fd575f84156107eb578287015190505b6107f5858261077a565b86555061085c565b601f19841661080b866105f8565b5f5b828110156108325784890151825560018201915060208501945060208101905061080d565b8683101561084f578489015161084b601f89168261075e565b8355505b6001600288020188555050505b50505050505056fea2646970667358221220be05702721155417d5a0379039beb54f508a5900e34c4010580fecccd42b899064736f6c63430008160033",
			"opcodes": "PUSH1 0x80 PUSH1 0x40 MSTORE CALLVALUE DUP1 ISZERO PUSH3 0x10 JUMPI PUSH0 DUP1 REVERT JUMPDEST POP PUSH1 0x40 MLOAD PUSH3 0xE92 CODESIZE SUB DUP1 PUSH3 0xE92 DUP4 CODECOPY DUP2 DUP2 ADD PUSH1 0x40 MSTORE DUP2 ADD SWAP1 PUSH3 0x36 SWAP2 SWAP1 PUSH3 0x274 JUMP JUMPDEST CALLER PUSH0 DUP1 PUSH2 0x100 EXP DUP2 SLOAD DUP2 PUSH20 0xFFFFFFFFFFFFFFFFFFFFFFFFFFFFFFFFFFFFFFFF MUL NOT AND SWAP1 DUP4 PUSH20 0xFFFFFFFFFFFFFFFFFFFFFFFFFFFFFFFFFFFFFFFF AND MUL OR SWAP1 SSTORE POP PUSH1 0x40 MLOAD DUP1 PUSH1 0x40 ADD PUSH1 0x40 MSTORE DUP1 DUP4 DUP2 MSTORE PUSH1 0x20 ADD DUP3 DUP2 MSTORE POP PUSH1 0x1 PUSH0 DUP3 ADD MLOAD DUP2 PUSH0 ADD SSTORE PUSH1 0x20 DUP3 ADD MLOAD DUP2 PUSH1 0x1 ADD SWAP1 DUP2 PUSH3 0xAB SWAP2 SWAP1 PUSH3 0x506 JUMP JUMPDEST POP SWAP1 POP POP POP POP PUSH3 0x5EA JUMP JUMPDEST PUSH0 PUSH1 0x40 MLOAD SWAP1 POP SWAP1 JUMP JUMPDEST PUSH0 DUP1 REVERT JUMPDEST PUSH0 DUP1 REVERT JUMPDEST PUSH0 DUP2 SWAP1 POP SWAP2 SWAP1 POP JUMP JUMPDEST PUSH3 0xDC DUP2 PUSH3 0xC8 JUMP JUMPDEST DUP2 EQ PUSH3 0xE7 JUMPI PUSH0 DUP1 REVERT JUMPDEST POP JUMP JUMPDEST PUSH0 DUP2 MLOAD SWAP1 POP PUSH3 0xFA DUP2 PUSH3 0xD1 JUMP JUMPDEST SWAP3 SWAP2 POP POP JUMP JUMPDEST PUSH0 DUP1 REVERT JUMPDEST PUSH0 DUP1 REVERT JUMPDEST PUSH0 PUSH1 0x1F NOT PUSH1 0x1F DUP4 ADD AND SWAP1 POP SWAP2 SWAP1 POP JUMP JUMPDEST PUSH32 0x4E487B7100000000000000000000000000000000000000000000000000000000 PUSH0 MSTORE PUSH1 0x41 PUSH1 0x4 MSTORE PUSH1 0x24 PUSH0 REVERT JUMPDEST PUSH3 0x150 DUP3 PUSH3 0x108 JUMP JUMPDEST DUP2 ADD DUP2 DUP2 LT PUSH8 0xFFFFFFFFFFFFFFFF DUP3 GT OR ISZERO PUSH3 0x172 JUMPI PUSH3 0x171 PUSH3 0x118 JUMP JUMPDEST JUMPDEST DUP1 PUSH1 0x40 MSTORE POP POP POP JUMP JUMPDEST PUSH0 PUSH3 0x186 PUSH3 0xB7 JUMP JUMPDEST SWAP1 POP PUSH3 0x194 DUP3 DUP3 PUSH3 0x145 JUMP JUMPDEST SWAP2 SWAP1 POP JUMP JUMPDEST PUSH0 PUSH8 0xFFFFFFFFFFFFFFFF DUP3 GT ISZERO PUSH3 0x1B6 JUMPI PUSH3 0x1B5 PUSH3 0x118 JUMP JUMPDEST JUMPDEST PUSH3 0x1C1 DUP3 PUSH3 0x108 JUMP JUMPDEST SWAP1 POP PUSH1 0x20 DUP2 ADD SWAP1 POP SWAP2 SWAP1 POP JUMP JUMPDEST PUSH0 JUMPDEST DUP4 DUP2 LT ISZERO PUSH3 0x1ED JUMPI DUP1 DUP3 ADD MLOAD DUP2 DUP5 ADD MSTORE PUSH1 0x20 DUP2 ADD SWAP1 POP PUSH3 0x1D0 JUMP JUMPDEST PUSH0 DUP5 DUP5 ADD MSTORE POP POP POP POP JUMP JUMPDEST PUSH0 PUSH3 0x20E PUSH3 0x208 DUP5 PUSH3 0x199 JUMP JUMPDEST PUSH3 0x17B JUMP JUMPDEST SWAP1 POP DUP3 DUP2 MSTORE PUSH1 0x20 DUP2 ADD DUP5 DUP5 DUP5 ADD GT ISZERO PUSH3 0x22D JUMPI PUSH3 0x22C PUSH3 0x104 JUMP JUMPDEST JUMPDEST PUSH3 0x23A DUP5 DUP3 DUP6 PUSH3 0x1CE JUMP JUMPDEST POP SWAP4 SWAP3 POP POP POP JUMP JUMPDEST PUSH0 DUP3 PUSH1 0x1F DUP4 ADD SLT PUSH3 0x259 JUMPI PUSH3 0x258 PUSH3 0x100 JUMP JUMPDEST JUMPDEST DUP2 MLOAD PUSH3 0x26B DUP5 DUP3 PUSH1 0x20 DUP7 ADD PUSH3 0x1F8 JUMP JUMPDEST SWAP2 POP POP SWAP3 SWAP2 POP POP JUMP JUMPDEST PUSH0 DUP1 PUSH1 0x40 DUP4 DUP6 SUB SLT ISZERO PUSH3 0x28D JUMPI PUSH3 0x28C PUSH3 0xC0 JUMP JUMPDEST JUMPDEST PUSH0 PUSH3 0x29C DUP6 DUP3 DUP7 ADD PUSH3 0xEA JUMP JUMPDEST SWAP3 POP POP PUSH1 0x20 DUP4 ADD MLOAD PUSH8 0xFFFFFFFFFFFFFFFF DUP2 GT ISZERO PUSH3 0x2C0 JUMPI PUSH3 0x2BF PUSH3 0xC4 JUMP JUMPDEST JUMPDEST PUSH3 0x2CE DUP6 DUP3 DUP7 ADD PUSH3 0x242 JUMP JUMPDEST SWAP2 POP POP SWAP3 POP SWAP3 SWAP1 POP JUMP JUMPDEST PUSH0 DUP2 MLOAD SWAP1 POP SWAP2 SWAP1 POP JUMP JUMPDEST PUSH32 0x4E487B7100000000000000000000000000000000000000000000000000000000 PUSH0 MSTORE PUSH1 0x22 PUSH1 0x4 MSTORE PUSH1 0x24 PUSH0 REVERT JUMPDEST PUSH0 PUSH1 0x2 DUP3 DIV SWAP1 POP PUSH1 0x1 DUP3 AND DUP1 PUSH3 0x327 JUMPI PUSH1 0x7F DUP3 AND SWAP2 POP JUMPDEST PUSH1 0x20 DUP3 LT DUP2 SUB PUSH3 0x33D JUMPI PUSH3 0x33C PUSH3 0x2E2 JUMP JUMPDEST JUMPDEST POP SWAP2 SWAP1 POP JUMP JUMPDEST PUSH0 DUP2 SWAP1 POP DUP2 PUSH0 MSTORE PUSH1 0x20 PUSH0 KECCAK256 SWAP1 POP SWAP2 SWAP1 POP JUMP JUMPDEST PUSH0 PUSH1 0x20 PUSH1 0x1F DUP4 ADD DIV SWAP1 POP SWAP2 SWAP1 POP JUMP JUMPDEST PUSH0 DUP3 DUP3 SHL SWAP1 POP SWAP3 SWAP2 POP POP JUMP JUMPDEST PUSH0 PUSH1 0x8 DUP4 MUL PUSH3 0x3A1 PUSH32 0xFFFFFFFFFFFFFFFFFFFFFFFFFFFFFFFFFFFFFFFFFFFFFFFFFFFFFFFFFFFFFFFF DUP3 PUSH3 0x364 JUMP JUMPDEST PUSH3 0x3AD DUP7 DUP4 PUSH3 0x364 JUMP JUMPDEST SWAP6 POP DUP1 NOT DUP5 AND SWAP4 POP DUP1 DUP7 AND DUP5 OR SWAP3 POP POP POP SWAP4 SWAP3 POP POP POP JUMP JUMPDEST PUSH0 DUP2 SWAP1 POP SWAP2 SWAP1 POP JUMP JUMPDEST PUSH0 PUSH3 0x3EE PUSH3 0x3E8 PUSH3 0x3E2 DUP5 PUSH3 0xC8 JUMP JUMPDEST PUSH3 0x3C5 JUMP JUMPDEST PUSH3 0xC8 JUMP JUMPDEST SWAP1 POP SWAP2 SWAP1 POP JUMP JUMPDEST PUSH0 DUP2 SWAP1 POP SWAP2 SWAP1 POP JUMP JUMPDEST PUSH3 0x409 DUP4 PUSH3 0x3CE JUMP JUMPDEST PUSH3 0x421 PUSH3 0x418 DUP3 PUSH3 0x3F5 JUMP JUMPDEST DUP5 DUP5 SLOAD PUSH3 0x370 JUMP JUMPDEST DUP3 SSTORE POP POP POP POP JUMP JUMPDEST PUSH0 SWAP1 JUMP JUMPDEST PUSH3 0x437 PUSH3 0x429 JUMP JUMPDEST PUSH3 0x444 DUP2 DUP5 DUP5 PUSH3 0x3FE JUMP JUMPDEST POP POP POP JUMP JUMPDEST JUMPDEST DUP2 DUP2 LT ISZERO PUSH3 0x46B JUMPI PUSH3 0x45F PUSH0 DUP3 PUSH3 0x42D JUMP JUMPDEST PUSH1 0x1 DUP2 ADD SWAP1 POP PUSH3 0x44A JUMP JUMPDEST POP POP JUMP JUMPDEST PUSH1 0x1F DUP3 GT ISZERO PUSH3 0x4BA JUMPI PUSH3 0x484 DUP2 PUSH3 0x343 JUMP JUMPDEST PUSH3 0x48F DUP5 PUSH3 0x355 JUMP JUMPDEST DUP2 ADD PUSH1 0x20 DUP6 LT ISZERO PUSH3 0x49F JUMPI DUP2 SWAP1 POP JUMPDEST PUSH3 0x4B7 PUSH3 0x4AE DUP6 PUSH3 0x355 JUMP JUMPDEST DUP4 ADD DUP3 PUSH3 0x449 JUMP JUMPDEST POP POP JUMPDEST POP POP POP JUMP JUMPDEST PUSH0 DUP3 DUP3 SHR SWAP1 POP SWAP3 SWAP2 POP POP JUMP JUMPDEST PUSH0 PUSH3 0x4DC PUSH0 NOT DUP5 PUSH1 0x8 MUL PUSH3 0x4BF JUMP JUMPDEST NOT DUP1 DUP4 AND SWAP2 POP POP SWAP3 SWAP2 POP POP JUMP JUMPDEST PUSH0 PUSH3 0x4F6 DUP4 DUP4 PUSH3 0x4CB JUMP JUMPDEST SWAP2 POP DUP3 PUSH1 0x2 MUL DUP3 OR SWAP1 POP SWAP3 SWAP2 POP POP JUMP JUMPDEST PUSH3 0x511 DUP3 PUSH3 0x2D8 JUMP JUMPDEST PUSH8 0xFFFFFFFFFFFFFFFF DUP2 GT ISZERO PUSH3 0x52D JUMPI PUSH3 0x52C PUSH3 0x118 JUMP JUMPDEST JUMPDEST PUSH3 0x539 DUP3 SLOAD PUSH3 0x30F JUMP JUMPDEST PUSH3 0x546 DUP3 DUP3 DUP6 PUSH3 0x46F JUMP JUMPDEST PUSH0 PUSH1 0x20 SWAP1 POP PUSH1 0x1F DUP4 GT PUSH1 0x1 DUP2 EQ PUSH3 0x57C JUMPI PUSH0 DUP5 ISZERO PUSH3 0x567 JUMPI DUP3 DUP8 ADD MLOAD SWAP1 POP JUMPDEST PUSH3 0x573 DUP6 DUP3 PUSH3 0x4E9 JUMP JUMPDEST DUP7 SSTORE POP PUSH3 0x5E2 JUMP JUMPDEST PUSH1 0x1F NOT DUP5 AND PUSH3 0x58C DUP7 PUSH3 0x343 JUMP JUMPDEST PUSH0 JUMPDEST DUP3 DUP2 LT ISZERO PUSH3 0x5B5 JUMPI DUP5 DUP10 ADD MLOAD DUP3 SSTORE PUSH1 0x1 DUP3 ADD SWAP2 POP PUSH1 0x20 DUP6 ADD SWAP5 POP PUSH1 0x20 DUP2 ADD SWAP1 POP PUSH3 0x58E JUMP JUMPDEST DUP7 DUP4 LT ISZERO PUSH3 0x5D5 JUMPI DUP5 DUP10 ADD MLOAD PUSH3 0x5D1 PUSH1 0x1F DUP10 AND DUP3 PUSH3 0x4CB JUMP JUMPDEST DUP4 SSTORE POP JUMPDEST PUSH1 0x1 PUSH1 0x2 DUP9 MUL ADD DUP9 SSTORE POP POP POP JUMPDEST POP POP POP POP POP POP JUMP JUMPDEST PUSH2 0x89A DUP1 PUSH3 0x5F8 PUSH0 CODECOPY PUSH0 RETURN INVALID PUSH1 0x80 PUSH1 0x40 MSTORE CALLVALUE DUP1 ISZERO PUSH2 0xF JUMPI PUSH0 DUP1 REVERT JUMPDEST POP PUSH1 0x4 CALLDATASIZE LT PUSH2 0x4A JUMPI PUSH0 CALLDATALOAD PUSH1 0xE0 SHR DUP1 PUSH4 0x24B1CC13 EQ PUSH2 0x4E JUMPI DUP1 PUSH4 0x82B15F37 EQ PUSH2 0x6C JUMPI DUP1 PUSH4 0xB4C89BEA EQ PUSH2 0x76 JUMPI DUP1 PUSH4 0xE735B48A EQ PUSH2 0x80 JUMPI JUMPDEST PUSH0 DUP1 REVERT JUMPDEST PUSH2 0x56 PUSH2 0x9C JUMP JUMPDEST PUSH1 0x40 MLOAD PUSH2 0x63 SWAP2 SWAP1 PUSH2 0x2B3 JUMP JUMPDEST PUSH1 0x40 MLOAD DUP1 SWAP2 SUB SWAP1 RETURN JUMPDEST PUSH2 0x74 PUSH2 0xA7 JUMP JUMPDEST STOP JUMPDEST PUSH2 0x7E PUSH2 0x150 JUMP JUMPDEST STOP JUMPDEST PUSH2 0x9A PUSH1 0x4 DUP1 CALLDATASIZE SUB DUP2 ADD SWAP1 PUSH2 0x95 SWAP2 SWAP1 PUSH2 0x419 JUMP JUMPDEST PUSH2 0x1F9 JUMP JUMPDEST STOP JUMPDEST PUSH0 PUSH1 0x1 PUSH0 ADD SLOAD SWAP1 POP SWAP1 JUMP JUMPDEST PUSH0 DUP1 SLOAD SWAP1 PUSH2 0x100 EXP SWAP1 DIV PUSH20 0xFFFFFFFFFFFFFFFFFFFFFFFFFFFFFFFFFFFFFFFF AND PUSH20 0xFFFFFFFFFFFFFFFFFFFFFFFFFFFFFFFFFFFFFFFF AND CALLER PUSH20 0xFFFFFFFFFFFFFFFFFFFFFFFFFFFFFFFFFFFFFFFF AND EQ PUSH2 0x134 JUMPI PUSH1 0x40 MLOAD PUSH32 0x8C379A000000000000000000000000000000000000000000000000000000000 DUP2 MSTORE PUSH1 0x4 ADD PUSH2 0x12B SWAP1 PUSH2 0x4E0 JUMP JUMPDEST PUSH1 0x40 MLOAD DUP1 SWAP2 SUB SWAP1 REVERT JUMPDEST PUSH1 0x1 DUP1 PUSH0 ADD PUSH0 DUP3 DUP3 SLOAD PUSH2 0x147 SWAP2 SWAP1 PUSH2 0x52B JUMP JUMPDEST SWAP3 POP POP DUP2 SWAP1 SSTORE POP JUMP JUMPDEST PUSH0 DUP1 SLOAD SWAP1 PUSH2 0x100 EXP SWAP1 DIV PUSH20 0xFFFFFFFFFFFFFFFFFFFFFFFFFFFFFFFFFFFFFFFF AND PUSH20 0xFFFFFFFFFFFFFFFFFFFFFFFFFFFFFFFFFFFFFFFF AND CALLER PUSH20 0xFFFFFFFFFFFFFFFFFFFFFFFFFFFFFFFFFFFFFFFF AND EQ PUSH2 0x1DD JUMPI PUSH1 0x40 MLOAD PUSH32 0x8C379A000000000000000000000000000000000000000000000000000000000 DUP2 MSTORE PUSH1 0x4 ADD PUSH2 0x1D4 SWAP1 PUSH2 0x4E0 JUMP JUMPDEST PUSH1 0x40 MLOAD DUP1 SWAP2 SUB SWAP1 REVERT JUMPDEST PUSH1 0x1 DUP1 PUSH0 ADD PUSH0 DUP3 DUP3 SLOAD PUSH2 0x1F0 SWAP2 SWAP1 PUSH2 0x55E JUMP JUMPDEST SWAP3 POP POP DUP2 SWAP1 SSTORE POP JUMP JUMPDEST PUSH0 DUP1 SLOAD SWAP1 PUSH2 0x100 EXP SWAP1 DIV PUSH20 0xFFFFFFFFFFFFFFFFFFFFFFFFFFFFFFFFFFFFFFFF AND PUSH20 0xFFFFFFFFFFFFFFFFFFFFFFFFFFFFFFFFFFFFFFFF AND CALLER PUSH20 0xFFFFFFFFFFFFFFFFFFFFFFFFFFFFFFFFFFFFFFFF AND EQ PUSH2 0x286 JUMPI PUSH1 0x40 MLOAD PUSH32 0x8C379A000000000000000000000000000000000000000000000000000000000 DUP2 MSTORE PUSH1 0x4 ADD PUSH2 0x27D SWAP1 PUSH2 0x4E0 JUMP JUMPDEST PUSH1 0x40 MLOAD DUP1 SWAP2 SUB SWAP1 REVERT JUMPDEST DUP1 PUSH1 0x1 DUP1 ADD SWAP1 DUP2 PUSH2 0x297 SWAP2 SWAP1 PUSH2 0x795 JUMP JUMPDEST POP POP JUMP JUMPDEST PUSH0 DUP2 SWAP1 POP SWAP2 SWAP1 POP JUMP JUMPDEST PUSH2 0x2AD DUP2 PUSH2 0x29B JUMP JUMPDEST DUP3 MSTORE POP POP JUMP JUMPDEST PUSH0 PUSH1 0x20 DUP3 ADD SWAP1 POP PUSH2 0x2C6 PUSH0 DUP4 ADD DUP5 PUSH2 0x2A4 JUMP JUMPDEST SWAP3 SWAP2 POP POP JUMP JUMPDEST PUSH0 PUSH1 0x40 MLOAD SWAP1 POP SWAP1 JUMP JUMPDEST PUSH0 DUP1 REVERT JUMPDEST PUSH0 DUP1 REVERT JUMPDEST PUSH0 DUP1 REVERT JUMPDEST PUSH0 DUP1 REVERT JUMPDEST PUSH0 PUSH1 0x1F NOT PUSH1 0x1F DUP4 ADD AND SWAP1 POP SWAP2 SWAP1 POP JUMP JUMPDEST PUSH32 0x4E487B7100000000000000000000000000000000000000000000000000000000 PUSH0 MSTORE PUSH1 0x41 PUSH1 0x4 MSTORE PUSH1 0x24 PUSH0 REVERT JUMPDEST PUSH2 0x32B DUP3 PUSH2 0x2E5 JUMP JUMPDEST DUP2 ADD DUP2 DUP2 LT PUSH8 0xFFFFFFFFFFFFFFFF DUP3 GT OR ISZERO PUSH2 0x34A JUMPI PUSH2 0x349 PUSH2 0x2F5 JUMP JUMPDEST JUMPDEST DUP1 PUSH1 0x40 MSTORE POP POP POP JUMP JUMPDEST PUSH0 PUSH2 0x35C PUSH2 0x2CC JUMP JUMPDEST SWAP1 POP PUSH2 0x368 DUP3 DUP3 PUSH2 0x322 JUMP JUMPDEST SWAP2 SWAP1 POP JUMP JUMPDEST PUSH0 PUSH8 0xFFFFFFFFFFFFFFFF DUP3 GT ISZERO PUSH2 0x387 JUMPI PUSH2 0x386 PUSH2 0x2F5 JUMP JUMPDEST JUMPDEST PUSH2 0x390 DUP3 PUSH2 0x2E5 JUMP JUMPDEST SWAP1 POP PUSH1 0x20 DUP2 ADD SWAP1 POP SWAP2 SWAP1 POP JUMP JUMPDEST DUP3 DUP2 DUP4 CALLDATACOPY PUSH0 DUP4 DUP4 ADD MSTORE POP POP POP JUMP JUMPDEST PUSH0 PUSH2 0x3BD PUSH2 0x3B8 DUP5 PUSH2 0x36D JUMP JUMPDEST PUSH2 0x353 JUMP JUMPDEST SWAP1 POP DUP3 DUP2 MSTORE PUSH1 0x20 DUP2 ADD DUP5 DUP5 DUP5 ADD GT ISZERO PUSH2 0x3D9 JUMPI PUSH2 0x3D8 PUSH2 0x2E1 JUMP JUMPDEST JUMPDEST PUSH2 0x3E4 DUP5 DUP3 DUP6 PUSH2 0x39D JUMP JUMPDEST POP SWAP4 SWAP3 POP POP POP JUMP JUMPDEST PUSH0 DUP3 PUSH1 0x1F DUP4 ADD SLT PUSH2 0x400 JUMPI PUSH2 0x3FF PUSH2 0x2DD JUMP JUMPDEST JUMPDEST DUP2 CALLDATALOAD PUSH2 0x410 DUP5 DUP3 PUSH1 0x20 DUP7 ADD PUSH2 0x3AB JUMP JUMPDEST SWAP2 POP POP SWAP3 SWAP2 POP POP JUMP JUMPDEST PUSH0 PUSH1 0x20 DUP3 DUP5 SUB SLT ISZERO PUSH2 0x42E JUMPI PUSH2 0x42D PUSH2 0x2D5 JUMP JUMPDEST JUMPDEST PUSH0 DUP3 ADD CALLDATALOAD PUSH8 0xFFFFFFFFFFFFFFFF DUP2 GT ISZERO PUSH2 0x44B JUMPI PUSH2 0x44A PUSH2 0x2D9 JUMP JUMPDEST JUMPDEST PUSH2 0x457 DUP5 DUP3 DUP6 ADD PUSH2 0x3EC JUMP JUMPDEST SWAP2 POP POP SWAP3 SWAP2 POP POP JUMP JUMPDEST PUSH0 DUP3 DUP3 MSTORE PUSH1 0x20 DUP3 ADD SWAP1 POP SWAP3 SWAP2 POP POP JUMP JUMPDEST PUSH32 0x6F6E6C7920746865206F776E65722063616E20696E6372656D656E74206F7220 PUSH0 DUP3 ADD MSTORE PUSH32 0x64656372656D656E742074686520636F756E7465720000000000000000000000 PUSH1 0x20 DUP3 ADD MSTORE POP JUMP JUMPDEST PUSH0 PUSH2 0x4CA PUSH1 0x35 DUP4 PUSH2 0x460 JUMP JUMPDEST SWAP2 POP PUSH2 0x4D5 DUP3 PUSH2 0x470 JUMP JUMPDEST PUSH1 0x40 DUP3 ADD SWAP1 POP SWAP2 SWAP1 POP JUMP JUMPDEST PUSH0 PUSH1 0x20 DUP3 ADD SWAP1 POP DUP2 DUP2 SUB PUSH0 DUP4 ADD MSTORE PUSH2 0x4F7 DUP2 PUSH2 0x4BE JUMP JUMPDEST SWAP1 POP SWAP2 SWAP1 POP JUMP JUMPDEST PUSH32 0x4E487B7100000000000000000000000000000000000000000000000000000000 PUSH0 MSTORE PUSH1 0x11 PUSH1 0x4 MSTORE PUSH1 0x24 PUSH0 REVERT JUMPDEST PUSH0 PUSH2 0x535 DUP3 PUSH2 0x29B JUMP JUMPDEST SWAP2 POP PUSH2 0x540 DUP4 PUSH2 0x29B JUMP JUMPDEST SWAP3 POP DUP3 DUP3 ADD SWAP1 POP DUP1 DUP3 GT ISZERO PUSH2 0x558 JUMPI PUSH2 0x557 PUSH2 0x4FE JUMP JUMPDEST JUMPDEST SWAP3 SWAP2 POP POP JUMP JUMPDEST PUSH0 PUSH2 0x568 DUP3 PUSH2 0x29B JUMP JUMPDEST SWAP2 POP PUSH2 0x573 DUP4 PUSH2 0x29B JUMP JUMPDEST SWAP3 POP DUP3 DUP3 SUB SWAP1 POP DUP2 DUP2 GT ISZERO PUSH2 0x58B JUMPI PUSH2 0x58A PUSH2 0x4FE JUMP JUMPDEST JUMPDEST SWAP3 SWAP2 POP POP JUMP JUMPDEST PUSH0 DUP2 MLOAD SWAP1 POP SWAP2 SWAP1 POP JUMP JUMPDEST PUSH32 0x4E487B7100000000000000000000000000000000000000000000000000000000 PUSH0 MSTORE PUSH1 0x22 PUSH1 0x4 MSTORE PUSH1 0x24 PUSH0 REVERT JUMPDEST PUSH0 PUSH1 0x2 DUP3 DIV SWAP1 POP PUSH1 0x1 DUP3 AND DUP1 PUSH2 0x5DF JUMPI PUSH1 0x7F DUP3 AND SWAP2 POP JUMPDEST PUSH1 0x20 DUP3 LT DUP2 SUB PUSH2 0x5F2 JUMPI PUSH2 0x5F1 PUSH2 0x59B JUMP JUMPDEST JUMPDEST POP SWAP2 SWAP1 POP JUMP JUMPDEST PUSH0 DUP2 SWAP1 POP DUP2 PUSH0 MSTORE PUSH1 0x20 PUSH0 KECCAK256 SWAP1 POP SWAP2 SWAP1 POP JUMP JUMPDEST PUSH0 PUSH1 0x20 PUSH1 0x1F DUP4 ADD DIV SWAP1 POP SWAP2 SWAP1 POP JUMP JUMPDEST PUSH0 DUP3 DUP3 SHL SWAP1 POP SWAP3 SWAP2 POP POP JUMP JUMPDEST PUSH0 PUSH1 0x8 DUP4 MUL PUSH2 0x654 PUSH32 0xFFFFFFFFFFFFFFFFFFFFFFFFFFFFFFFFFFFFFFFFFFFFFFFFFFFFFFFFFFFFFFFF DUP3 PUSH2 0x619 JUMP JUMPDEST PUSH2 0x65E DUP7 DUP4 PUSH2 0x619 JUMP JUMPDEST SWAP6 POP DUP1 NOT DUP5 AND SWAP4 POP DUP1 DUP7 AND DUP5 OR SWAP3 POP POP POP SWAP4 SWAP3 POP POP POP JUMP JUMPDEST PUSH0 DUP2 SWAP1 POP SWAP2 SWAP1 POP JUMP JUMPDEST PUSH0 PUSH2 0x699 PUSH2 0x694 PUSH2 0x68F DUP5 PUSH2 0x29B JUMP JUMPDEST PUSH2 0x676 JUMP JUMPDEST PUSH2 0x29B JUMP JUMPDEST SWAP1 POP SWAP2 SWAP1 POP JUMP JUMPDEST PUSH0 DUP2 SWAP1 POP SWAP2 SWAP1 POP JUMP JUMPDEST PUSH2 0x6B2 DUP4 PUSH2 0x67F JUMP JUMPDEST PUSH2 0x6C6 PUSH2 0x6BE DUP3 PUSH2 0x6A0 JUMP JUMPDEST DUP5 DUP5 SLOAD PUSH2 0x625 JUMP JUMPDEST DUP3 SSTORE POP POP POP POP JUMP JUMPDEST PUSH0 SWAP1 JUMP JUMPDEST PUSH2 0x6DA PUSH2 0x6CE JUMP JUMPDEST PUSH2 0x6E5 DUP2 DUP5 DUP5 PUSH2 0x6A9 JUMP JUMPDEST POP POP POP JUMP JUMPDEST JUMPDEST DUP2 DUP2 LT ISZERO PUSH2 0x708 JUMPI PUSH2 0x6FD PUSH0 DUP3 PUSH2 0x6D2 JUMP JUMPDEST PUSH1 0x1 DUP2 ADD SWAP1 POP PUSH2 0x6EB JUMP JUMPDEST POP POP JUMP JUMPDEST PUSH1 0x1F DUP3 GT ISZERO PUSH2 0x74D JUMPI PUSH2 0x71E DUP2 PUSH2 0x5F8 JUMP JUMPDEST PUSH2 0x727 DUP5 PUSH2 0x60A JUMP JUMPDEST DUP2 ADD PUSH1 0x20 DUP6 LT ISZERO PUSH2 0x736 JUMPI DUP2 SWAP1 POP JUMPDEST PUSH2 0x74A PUSH2 0x742 DUP6 PUSH2 0x60A JUMP JUMPDEST DUP4 ADD DUP3 PUSH2 0x6EA JUMP JUMPDEST POP POP JUMPDEST POP POP POP JUMP JUMPDEST PUSH0 DUP3 DUP3 SHR SWAP1 POP SWAP3 SWAP2 POP POP JUMP JUMPDEST PUSH0 PUSH2 0x76D PUSH0 NOT DUP5 PUSH1 0x8 MUL PUSH2 0x752 JUMP JUMPDEST NOT DUP1 DUP4 AND SWAP2 POP POP SWAP3 SWAP2 POP POP JUMP JUMPDEST PUSH0 PUSH2 0x785 DUP4 DUP4 PUSH2 0x75E JUMP JUMPDEST SWAP2 POP DUP3 PUSH1 0x2 MUL DUP3 OR SWAP1 POP SWAP3 SWAP2 POP POP JUMP JUMPDEST PUSH2 0x79E DUP3 PUSH2 0x591 JUMP JUMPDEST PUSH8 0xFFFFFFFFFFFFFFFF DUP2 GT ISZERO PUSH2 0x7B7 JUMPI PUSH2 0x7B6 PUSH2 0x2F5 JUMP JUMPDEST JUMPDEST PUSH2 0x7C1 DUP3 SLOAD PUSH2 0x5C8 JUMP JUMPDEST PUSH2 0x7CC DUP3 DUP3 DUP6 PUSH2 0x70C JUMP JUMPDEST PUSH0 PUSH1 0x20 SWAP1 POP PUSH1 0x1F DUP4 GT PUSH1 0x1 DUP2 EQ PUSH2 0x7FD JUMPI PUSH0 DUP5 ISZERO PUSH2 0x7EB JUMPI DUP3 DUP8 ADD MLOAD SWAP1 POP JUMPDEST PUSH2 0x7F5 DUP6 DUP3 PUSH2 0x77A JUMP JUMPDEST DUP7 SSTORE POP PUSH2 0x85C JUMP JUMPDEST PUSH1 0x1F NOT DUP5 AND PUSH2 0x80B DUP7 PUSH2 0x5F8 JUMP JUMPDEST PUSH0 JUMPDEST DUP3 DUP2 LT ISZERO PUSH2 0x832 JUMPI DUP5 DUP10 ADD MLOAD DUP3 SSTORE PUSH1 0x1 DUP3 ADD SWAP2 POP PUSH1 0x20 DUP6 ADD SWAP5 POP PUSH1 0x20 DUP2 ADD SWAP1 POP PUSH2 0x80D JUMP JUMPDEST DUP7 DUP4 LT ISZERO PUSH2 0x84F JUMPI DUP5 DUP10 ADD MLOAD PUSH2 0x84B PUSH1 0x1F DUP10 AND DUP3 PUSH2 0x75E JUMP JUMPDEST DUP4 SSTORE POP JUMPDEST PUSH1 0x1 PUSH1 0x2 DUP9 MUL ADD DUP9 SSTORE POP POP POP JUMPDEST POP POP POP POP POP POP JUMP INVALID LOG2 PUSH5 0x6970667358 0x22 SLT KECCAK256 0xBE SDIV PUSH17 0x2721155417D5A0379039BEB54F508A5900 0xE3 0x4C BLOCKHASH LT PC 0xF 0xEC 0xCC 0xD4 0x2B DUP10 SWAP1 PUSH5 0x736F6C6343 STOP ADDMOD AND STOP CALLER "
		},
		"gasEstimates": {
			"creation": {
				"codeDepositCost": "440400",
				"executionCost": "infinite",
				"totalCost": "infinite"
			},
			"external": {
				"decrement_counter()": "infinite",
				"get_counter_value()": "2415",
				"increment_counter()": "infinite",
				"updateDescription(string)": "infinite"
			}
		},
		"methodIdentifiers": {
			"decrement_counter()": "b4c89bea",
			"get_counter_value()": "24b1cc13",
			"increment_counter()": "82b15f37",
			"updateDescription(string)": "e735b48a"
		}
	},
	"abi": [
		{
			"inputs": [
				{
					"internalType": "uint256",
					"name": "initial_value",
					"type": "uint256"
				},
				{
					"internalType": "string",
					"name": "description",
					"type": "string"
				}
			],
			"stateMutability": "nonpayable",
			"type": "constructor"
		},
		{
			"inputs": [],
			"name": "decrement_counter",
			"outputs": [],
			"stateMutability": "nonpayable",
			"type": "function"
		},
		{
			"inputs": [],
			"name": "get_counter_value",
			"outputs": [
				{
					"internalType": "uint256",
					"name": "",
					"type": "uint256"
				}
			],
			"stateMutability": "view",
			"type": "function"
		},
		{
			"inputs": [],
			"name": "increment_counter",
			"outputs": [],
			"stateMutability": "nonpayable",
			"type": "function"
		},
		{
			"inputs": [
				{
					"internalType": "string",
					"name": "newDescription",
					"type": "string"
				}
			],
			"name": "updateDescription",
			"outputs": [],
			"stateMutability": "nonpayable",
			"type": "function"
		}
	]
}