{
	"data": {
		"bytecode": {
			"linkReferences": {
				"contracts/MyLibrary.sol": {
					"MyLibrary": [
						{
							"length": 20,
							"start": 295
						}
					]
				}
			},
			"object": "60806040526040518060a00160405280600160ff168152602001600260ff168152602001600360ff168152602001600460ff168152602001600560ff168152505f90600561004e929190610060565b5034801561005a575f80fd5b506100cb565b828054828255905f5260205f2090810192821561009f579160200282015b8281111561009e578251829060ff1690559160200191906001019061007e565b5b5090506100ac91906100b0565b5090565b5b808211156100c7575f815f9055506001016100b1565b5090565b6104d3806100d85f395ff3fe608060405234801561000f575f80fd5b5060043610610029575f3560e01c8063317919e01461002d575b5f80fd5b61003561004b565b604051610042919061018b565b60405180910390f35b606073__$08189c6f66991b270496ade9a869f76c96$__63e3fa0ff75f6040518263ffffffff1660e01b815260040161008491906102ab565b5f60405180830381865af415801561009e573d5f803e3d5ffd5b505050506040513d5f823e3d601f19601f820116820180604052508101906100c69190610456565b905090565b5f81519050919050565b5f82825260208201905092915050565b5f819050602082019050919050565b5f819050919050565b610106816100f4565b82525050565b5f61011783836100fd565b60208301905092915050565b5f602082019050919050565b5f610139826100cb565b61014381856100d5565b935061014e836100e5565b805f5b8381101561017e578151610165888261010c565b975061017083610123565b925050600181019050610151565b5085935050505092915050565b5f6020820190508181035f8301526101a3818461012f565b905092915050565b5f81549050919050565b5f82825260208201905092915050565b5f819050815f5260205f209050919050565b6101e0816100f4565b82525050565b5f6101f183836101d7565b60208301905092915050565b5f815f1c9050919050565b5f819050919050565b5f61022361021e836101fd565b610208565b9050919050565b5f6102358254610211565b9050919050565b5f600182019050919050565b5f610252826101ab565b61025c81856101b5565b9350610267836101c5565b805f5b8381101561029e5761027b8261022a565b61028588826101e6565b97506102908361023c565b92505060018101905061026a565b5085935050505092915050565b5f6020820190508181035f8301526102c38184610248565b905092915050565b5f604051905090565b5f80fd5b5f80fd5b5f80fd5b5f601f19601f8301169050919050565b7f4e487b71000000000000000000000000000000000000000000000000000000005f52604160045260245ffd5b610326826102e0565b810181811067ffffffffffffffff82111715610345576103446102f0565b5b80604052505050565b5f6103576102cb565b9050610363828261031d565b919050565b5f67ffffffffffffffff821115610382576103816102f0565b5b602082029050602081019050919050565b5f80fd5b6103a0816100f4565b81146103aa575f80fd5b50565b5f815190506103bb81610397565b92915050565b5f6103d36103ce84610368565b61034e565b905080838252602082019050602084028301858111156103f6576103f5610393565b5b835b8181101561041f578061040b88826103ad565b8452602084019350506020810190506103f8565b5050509392505050565b5f82601f83011261043d5761043c6102dc565b5b815161044d8482602086016103c1565b91505092915050565b5f6020828403121561046b5761046a6102d4565b5b5f82015167ffffffffffffffff811115610488576104876102d8565b5b61049484828501610429565b9150509291505056fea2646970667358221220b9529ebc286671b01ba0600c8bd6981f4ea1b041d348719e7ed5f32baacd1ba364736f6c63430008160033",
			"opcodes": "PUSH1 0x80 PUSH1 0x40 MSTORE PUSH1 0x40 MLOAD DUP1 PUSH1 0xA0 ADD PUSH1 0x40 MSTORE DUP1 PUSH1 0x1 PUSH1 0xFF AND DUP2 MSTORE PUSH1 0x20 ADD PUSH1 0x2 PUSH1 0xFF AND DUP2 MSTORE PUSH1 0x20 ADD PUSH1 0x3 PUSH1 0xFF AND DUP2 MSTORE PUSH1 0x20 ADD PUSH1 0x4 PUSH1 0xFF AND DUP2 MSTORE PUSH1 0x20 ADD PUSH1 0x5 PUSH1 0xFF AND DUP2 MSTORE POP PUSH0 SWAP1 PUSH1 0x5 PUSH2 0x4E SWAP3 SWAP2 SWAP1 PUSH2 0x60 JUMP JUMPDEST POP CALLVALUE DUP1 ISZERO PUSH2 0x5A JUMPI PUSH0 DUP1 REVERT JUMPDEST POP PUSH2 0xCB JUMP JUMPDEST DUP3 DUP1 SLOAD DUP3 DUP3 SSTORE SWAP1 PUSH0 MSTORE PUSH1 0x20 PUSH0 KECCAK256 SWAP1 DUP2 ADD SWAP3 DUP3 ISZERO PUSH2 0x9F JUMPI SWAP2 PUSH1 0x20 MUL DUP3 ADD JUMPDEST DUP3 DUP2 GT ISZERO PUSH2 0x9E JUMPI DUP3 MLOAD DUP3 SWAP1 PUSH1 0xFF AND SWAP1 SSTORE SWAP2 PUSH1 0x20 ADD SWAP2 SWAP1 PUSH1 0x1 ADD SWAP1 PUSH2 0x7E JUMP JUMPDEST JUMPDEST POP SWAP1 POP PUSH2 0xAC SWAP2 SWAP1 PUSH2 0xB0 JUMP JUMPDEST POP SWAP1 JUMP JUMPDEST JUMPDEST DUP1 DUP3 GT ISZERO PUSH2 0xC7 JUMPI PUSH0 DUP2 PUSH0 SWAP1 SSTORE POP PUSH1 0x1 ADD PUSH2 0xB1 JUMP JUMPDEST POP SWAP1 JUMP JUMPDEST PUSH2 0x4D3 DUP1 PUSH2 0xD8 PUSH0 CODECOPY PUSH0 RETURN INVALID PUSH1 0x80 PUSH1 0x40 MSTORE CALLVALUE DUP1 ISZERO PUSH2 0xF JUMPI PUSH0 DUP1 REVERT JUMPDEST POP PUSH1 0x4 CALLDATASIZE LT PUSH2 0x29 JUMPI PUSH0 CALLDATALOAD PUSH1 0xE0 SHR DUP1 PUSH4 0x317919E0 EQ PUSH2 0x2D JUMPI JUMPDEST PUSH0 DUP1 REVERT JUMPDEST PUSH2 0x35 PUSH2 0x4B JUMP JUMPDEST PUSH1 0x40 MLOAD PUSH2 0x42 SWAP2 SWAP1 PUSH2 0x18B JUMP JUMPDEST PUSH1 0x40 MLOAD DUP1 SWAP2 SUB SWAP1 RETURN JUMPDEST PUSH1 0x60 PUSH20 0x0 PUSH4 0xE3FA0FF7 PUSH0 PUSH1 0x40 MLOAD DUP3 PUSH4 0xFFFFFFFF AND PUSH1 0xE0 SHL DUP2 MSTORE PUSH1 0x4 ADD PUSH2 0x84 SWAP2 SWAP1 PUSH2 0x2AB JUMP JUMPDEST PUSH0 PUSH1 0x40 MLOAD DUP1 DUP4 SUB DUP2 DUP7 GAS DELEGATECALL ISZERO DUP1 ISZERO PUSH2 0x9E JUMPI RETURNDATASIZE PUSH0 DUP1 RETURNDATACOPY RETURNDATASIZE PUSH0 REVERT JUMPDEST POP POP POP POP PUSH1 0x40 MLOAD RETURNDATASIZE PUSH0 DUP3 RETURNDATACOPY RETURNDATASIZE PUSH1 0x1F NOT PUSH1 0x1F DUP3 ADD AND DUP3 ADD DUP1 PUSH1 0x40 MSTORE POP DUP2 ADD SWAP1 PUSH2 0xC6 SWAP2 SWAP1 PUSH2 0x456 JUMP JUMPDEST SWAP1 POP SWAP1 JUMP JUMPDEST PUSH0 DUP2 MLOAD SWAP1 POP SWAP2 SWAP1 POP JUMP JUMPDEST PUSH0 DUP3 DUP3 MSTORE PUSH1 0x20 DUP3 ADD SWAP1 POP SWAP3 SWAP2 POP POP JUMP JUMPDEST PUSH0 DUP2 SWAP1 POP PUSH1 0x20 DUP3 ADD SWAP1 POP SWAP2 SWAP1 POP JUMP JUMPDEST PUSH0 DUP2 SWAP1 POP SWAP2 SWAP1 POP JUMP JUMPDEST PUSH2 0x106 DUP2 PUSH2 0xF4 JUMP JUMPDEST DUP3 MSTORE POP POP JUMP JUMPDEST PUSH0 PUSH2 0x117 DUP4 DUP4 PUSH2 0xFD JUMP JUMPDEST PUSH1 0x20 DUP4 ADD SWAP1 POP SWAP3 SWAP2 POP POP JUMP JUMPDEST PUSH0 PUSH1 0x20 DUP3 ADD SWAP1 POP SWAP2 SWAP1 POP JUMP JUMPDEST PUSH0 PUSH2 0x139 DUP3 PUSH2 0xCB JUMP JUMPDEST PUSH2 0x143 DUP2 DUP6 PUSH2 0xD5 JUMP JUMPDEST SWAP4 POP PUSH2 0x14E DUP4 PUSH2 0xE5 JUMP JUMPDEST DUP1 PUSH0 JUMPDEST DUP4 DUP2 LT ISZERO PUSH2 0x17E JUMPI DUP2 MLOAD PUSH2 0x165 DUP9 DUP3 PUSH2 0x10C JUMP JUMPDEST SWAP8 POP PUSH2 0x170 DUP4 PUSH2 0x123 JUMP JUMPDEST SWAP3 POP POP PUSH1 0x1 DUP2 ADD SWAP1 POP PUSH2 0x151 JUMP JUMPDEST POP DUP6 SWAP4 POP POP POP POP SWAP3 SWAP2 POP POP JUMP JUMPDEST PUSH0 PUSH1 0x20 DUP3 ADD SWAP1 POP DUP2 DUP2 SUB PUSH0 DUP4 ADD MSTORE PUSH2 0x1A3 DUP2 DUP5 PUSH2 0x12F JUMP JUMPDEST SWAP1 POP SWAP3 SWAP2 POP POP JUMP JUMPDEST PUSH0 DUP2 SLOAD SWAP1 POP SWAP2 SWAP1 POP JUMP JUMPDEST PUSH0 DUP3 DUP3 MSTORE PUSH1 0x20 DUP3 ADD SWAP1 POP SWAP3 SWAP2 POP POP JUMP JUMPDEST PUSH0 DUP2 SWAP1 POP DUP2 PUSH0 MSTORE PUSH1 0x20 PUSH0 KECCAK256 SWAP1 POP SWAP2 SWAP1 POP JUMP JUMPDEST PUSH2 0x1E0 DUP2 PUSH2 0xF4 JUMP JUMPDEST DUP3 MSTORE POP POP JUMP JUMPDEST PUSH0 PUSH2 0x1F1 DUP4 DUP4 PUSH2 0x1D7 JUMP JUMPDEST PUSH1 0x20 DUP4 ADD SWAP1 POP SWAP3 SWAP2 POP POP JUMP JUMPDEST PUSH0 DUP2 PUSH0 SHR SWAP1 POP SWAP2 SWAP1 POP JUMP JUMPDEST PUSH0 DUP2 SWAP1 POP SWAP2 SWAP1 POP JUMP JUMPDEST PUSH0 PUSH2 0x223 PUSH2 0x21E DUP4 PUSH2 0x1FD JUMP JUMPDEST PUSH2 0x208 JUMP JUMPDEST SWAP1 POP SWAP2 SWAP1 POP JUMP JUMPDEST PUSH0 PUSH2 0x235 DUP3 SLOAD PUSH2 0x211 JUMP JUMPDEST SWAP1 POP SWAP2 SWAP1 POP JUMP JUMPDEST PUSH0 PUSH1 0x1 DUP3 ADD SWAP1 POP SWAP2 SWAP1 POP JUMP JUMPDEST PUSH0 PUSH2 0x252 DUP3 PUSH2 0x1AB JUMP JUMPDEST PUSH2 0x25C DUP2 DUP6 PUSH2 0x1B5 JUMP JUMPDEST SWAP4 POP PUSH2 0x267 DUP4 PUSH2 0x1C5 JUMP JUMPDEST DUP1 PUSH0 JUMPDEST DUP4 DUP2 LT ISZERO PUSH2 0x29E JUMPI PUSH2 0x27B DUP3 PUSH2 0x22A JUMP JUMPDEST PUSH2 0x285 DUP9 DUP3 PUSH2 0x1E6 JUMP JUMPDEST SWAP8 POP PUSH2 0x290 DUP4 PUSH2 0x23C JUMP JUMPDEST SWAP3 POP POP PUSH1 0x1 DUP2 ADD SWAP1 POP PUSH2 0x26A JUMP JUMPDEST POP DUP6 SWAP4 POP POP POP POP SWAP3 SWAP2 POP POP JUMP JUMPDEST PUSH0 PUSH1 0x20 DUP3 ADD SWAP1 POP DUP2 DUP2 SUB PUSH0 DUP4 ADD MSTORE PUSH2 0x2C3 DUP2 DUP5 PUSH2 0x248 JUMP JUMPDEST SWAP1 POP SWAP3 SWAP2 POP POP JUMP JUMPDEST PUSH0 PUSH1 0x40 MLOAD SWAP1 POP SWAP1 JUMP JUMPDEST PUSH0 DUP1 REVERT JUMPDEST PUSH0 DUP1 REVERT JUMPDEST PUSH0 DUP1 REVERT JUMPDEST PUSH0 PUSH1 0x1F NOT PUSH1 0x1F DUP4 ADD AND SWAP1 POP SWAP2 SWAP1 POP JUMP JUMPDEST PUSH32 0x4E487B7100000000000000000000000000000000000000000000000000000000 PUSH0 MSTORE PUSH1 0x41 PUSH1 0x4 MSTORE PUSH1 0x24 PUSH0 REVERT JUMPDEST PUSH2 0x326 DUP3 PUSH2 0x2E0 JUMP JUMPDEST DUP2 ADD DUP2 DUP2 LT PUSH8 0xFFFFFFFFFFFFFFFF DUP3 GT OR ISZERO PUSH2 0x345 JUMPI PUSH2 0x344 PUSH2 0x2F0 JUMP JUMPDEST JUMPDEST DUP1 PUSH1 0x40 MSTORE POP POP POP JUMP JUMPDEST PUSH0 PUSH2 0x357 PUSH2 0x2CB JUMP JUMPDEST SWAP1 POP PUSH2 0x363 DUP3 DUP3 PUSH2 0x31D JUMP JUMPDEST SWAP2 SWAP1 POP JUMP JUMPDEST PUSH0 PUSH8 0xFFFFFFFFFFFFFFFF DUP3 GT ISZERO PUSH2 0x382 JUMPI PUSH2 0x381 PUSH2 0x2F0 JUMP JUMPDEST JUMPDEST PUSH1 0x20 DUP3 MUL SWAP1 POP PUSH1 0x20 DUP2 ADD SWAP1 POP SWAP2 SWAP1 POP JUMP JUMPDEST PUSH0 DUP1 REVERT JUMPDEST PUSH2 0x3A0 DUP2 PUSH2 0xF4 JUMP JUMPDEST DUP2 EQ PUSH2 0x3AA JUMPI PUSH0 DUP1 REVERT JUMPDEST POP JUMP JUMPDEST PUSH0 DUP2 MLOAD SWAP1 POP PUSH2 0x3BB DUP2 PUSH2 0x397 JUMP JUMPDEST SWAP3 SWAP2 POP POP JUMP JUMPDEST PUSH0 PUSH2 0x3D3 PUSH2 0x3CE DUP5 PUSH2 0x368 JUMP JUMPDEST PUSH2 0x34E JUMP JUMPDEST SWAP1 POP DUP1 DUP4 DUP3 MSTORE PUSH1 0x20 DUP3 ADD SWAP1 POP PUSH1 0x20 DUP5 MUL DUP4 ADD DUP6 DUP2 GT ISZERO PUSH2 0x3F6 JUMPI PUSH2 0x3F5 PUSH2 0x393 JUMP JUMPDEST JUMPDEST DUP4 JUMPDEST DUP2 DUP2 LT ISZERO PUSH2 0x41F JUMPI DUP1 PUSH2 0x40B DUP9 DUP3 PUSH2 0x3AD JUMP JUMPDEST DUP5 MSTORE PUSH1 0x20 DUP5 ADD SWAP4 POP POP PUSH1 0x20 DUP2 ADD SWAP1 POP PUSH2 0x3F8 JUMP JUMPDEST POP POP POP SWAP4 SWAP3 POP POP POP JUMP JUMPDEST PUSH0 DUP3 PUSH1 0x1F DUP4 ADD SLT PUSH2 0x43D JUMPI PUSH2 0x43C PUSH2 0x2DC JUMP JUMPDEST JUMPDEST DUP2 MLOAD PUSH2 0x44D DUP5 DUP3 PUSH1 0x20 DUP7 ADD PUSH2 0x3C1 JUMP JUMPDEST SWAP2 POP POP SWAP3 SWAP2 POP POP JUMP JUMPDEST PUSH0 PUSH1 0x20 DUP3 DUP5 SUB SLT ISZERO PUSH2 0x46B JUMPI PUSH2 0x46A PUSH2 0x2D4 JUMP JUMPDEST JUMPDEST PUSH0 DUP3 ADD MLOAD PUSH8 0xFFFFFFFFFFFFFFFF DUP2 GT ISZERO PUSH2 0x488 JUMPI PUSH2 0x487 PUSH2 0x2D8 JUMP JUMPDEST JUMPDEST PUSH2 0x494 DUP5 DUP3 DUP6 ADD PUSH2 0x429 JUMP JUMPDEST SWAP2 POP POP SWAP3 SWAP2 POP POP JUMP INVALID LOG2 PUSH5 0x6970667358 0x22 SLT KECCAK256 0xB9 MSTORE SWAP15 0xBC 0x28 PUSH7 0x71B01BA0600C8B 0xD6 SWAP9 0x1F 0x4E LOG1 0xB0 COINBASE 0xD3 BASEFEE PUSH18 0x9E7ED5F32BAACD1BA364736F6C6343000816 STOP CALLER "
		},
		"gasEstimates": {
			"creation": {
				"codeDepositCost": "247000",
				"executionCost": "infinite",
				"totalCost": "infinite"
			},
			"external": {
				"doubleMyNumbers()": "infinite"
			}
		},
		"methodIdentifiers": {
			"doubleMyNumbers()": "317919e0"
		}
	},
	"abi": [
		{
			"inputs": [],
			"name": "doubleMyNumbers",
			"outputs": [
				{
					"internalType": "uint256[]",
					"name": "",
					"type": "uint256[]"
				}
			],
			"stateMutability": "view",
			"type": "function"
		}
	]
}